:10000000F8C0000027C1000025C1000023C1000086
:1000100021C100001FC100001DC100001BC1000064
:1000200019C1000017C1000015C1000013C1000074
:1000300011C100000FC100000DC100000BC1000084
:1000400009C1000007C1000005C1000003C1000094
:1000500001C10000FFC00000FDC000000C94A12BF6
:10006000F9C000000C94752F0C94AB2FF3C0000066
:10007000F1C00000EFC00000EDC00000EBC00000C8
:10008000E9C00000E7C00000E5C00000E3C00000D8
:100090000C9401300C943730DDC00000DBC0000050
:1000A000D9C00000D7C00000D5C00000D3C00000F8
:1000B000D1C00000CFC00000CDC00000CBC0000008
:1000C000C9C00000C7C000000C944A280C948D30B1
:1000D0000C94C330BFC000000C9419310C944F3104
:1000E000B9C0000000000A0B02090C0D0E0807033E
:1000F00004010000000000000000000000000000FB
:1001000000000000000000000000000000000000EF
:1001100012111000000000000000000000000000AC
:100120000000000000000000000001021020200874
:100130000810204010204080020102010804020142
:1001400001020408102040808040201008040201B1
:10015000800402018040201008040201080402010A
:100160000102040810204080010204081020408091
:1001700005050505070508080808020202020A0A23
:100180000808040404040101010101010101030341
:10019000030303030303040707070C0C0C0C0C0CEC
:1001A0000C0C0202020206060606060606060B0BE9
:1001B0000B0B0B0B0B0B00002200250028002B0063
:1001C0002E003100340002010000050108010B017E
:1001D00000002100240027002A002D0030003300F9
:1001E00001010000040107010A01D42F6030EC3046
:1001F000783111241FBECFEFD1E2DEBFCDBF00E0CA
:100200000CBF13E0A0E0B2E0E6E9F4E600E00BBFCB
:1002100002C007900D92A030B107D9F728E0A0E006
:10022000B3E001C01D92A43FB207E1F710E0C9EFAF
:10023000D0E000E006C021970109802FFE010E9456
:100240001832C53FD10780E00807A9F70E94662948
:100250000C944932D5CE611102C00C94E22D61306C
:10026000E1F362E0FACF662319F061E00C941E2EF0
:1002700060E0FCCFCF92DF92EF92FF92CF93882382
:1002800051F16A017B01CFEFC80F20E030E0A901F6
:10029000CB01B6010E94532A18168CF0C701B60193
:1002A00090580E945C2A9B01AC016C2F70E090E09A
:1002B00080E0CF91FF90EF90DF90CF90B2C0C70168
:1002C000B6010E94572A8C2FCF91FF90EF90DF90BC
:1002D000CF900C94A82CCF91FF90EF90DF90CF900F
:1002E00008950F931F938B019C0183E0369527950A
:1002F000179507958A95D1F700501D4F462F4770E7
:1003000021E030E0F90102C0EE0FFF1F4A95E2F74D
:10031000AF01F80120812423CB010196211102C0F5
:1003200090E080E01F910F9108950F931F938B0130
:100330009C0183E036952795179507958A95D1F707
:10034000677081E090E001C0880F6A95EAF7F801D4
:10035000E050FD4F2081452B31F48095822380832E
:100360001F910F910895822BFACF2F923F924F92B7
:100370005F926F927F928F929F92AF92BF92CF9235
:10038000DF92EF92FF920F931F93CF93DF93D62EBE
:10039000C72E782E692E49015A01280161E08D2D62
:1003A0000E94E22DCD2DDC2D8E010F5F1F4FA80185
:1003B0006D2D7C2D872D962DB8DF20E030E0A90132
:1003C000C201B7010E943A2B181664F4C201B701AA
:1003D0000E945C2A2B01C501B4010E945C2AA20183
:1003E000CE0123D0C801DF91CF911F910F91FF90D3
:1003F000EF90DF90CF90BF90AF909F908F907F90C5
:100400006F905F904F903F902F900895882341F018
:100410008150682F70E090E080E050E040E085CFB0
:100420000895862FB9010C94A82C9C01FC01EC5175
:10043000FF4FE491E150E231E0F4F0E08827EC5D19
:10044000FD4F8F4F0C94183236023D024002570286
:100450006C02390281028D029102A802BD02D20211
:10046000E902FE02390213032A033F0384B58068C0
:1004700084BD60E0822F0C941E2E84B58062F8CF7C
:10048000809180008C7F82608093800080918100C9
:10049000807E8061682B6093810050938700409339
:1004A000860080918000806880938000E2CF8091F8
:1004B00080008C7F82608093800080918100807EAC
:1004C0008061682B60938100509387004093860081
:1004D000809180008062E8CF809180008C7F826074
:1004E0008093800080918100807E8061682B609382
:1004F000810050938700409386008091800088603F
:10050000D3CF8091B00080688093B0008091B1001B
:10051000887F682B6093B100ACCF8091B00080627F
:10052000F3CF809190008C7F8260809390008091C7
:100530009100807E8061682B6093910050939700BA
:10054000409396008091900080688093900091CFB6
:10055000809190008C7F82608093900080919100C8
:10056000807E8061682B6093910050939700409348
:100570009600809190008062E8CF809190008C7FFF
:1005800082608093900080919100807E8061682BD2
:100590006093910050939700409396008091900053
:1005A0008860D3CF8091A0008C7F82608093A00070
:1005B0008091A100807E8061682B6093A1005093A0
:1005C000A7004093A6008091A00080688093A000BF
:1005D00050CF8091A0008C7F82608093A00080919A
:1005E000A100807E8061682B6093A1005093A700DA
:1005F0004093A6008091A0008062E8CF8091A00087
:100600008C7F82608093A0008091A100807E8061B9
:10061000682B6093A1005093A7004093A60080919F
:10062000A0008860D3CF809120018C7F826080936E
:10063000200180912101807E8061682B60932101DF
:100640005093270140932601809120018068809378
:1006500020010FCF809120018C7F82608093200148
:1006600080912101807E8061682B609321015093ED
:10067000270140932601809120018062E8CF80917C
:1006800020018C7F82608093200180912101807EF7
:100690008061682B609321015093270140932601CC
:1006A000809120018860D3CF90E080E008950F937F
:1006B0001F93009709F488C06115710509F484C07F
:1006C0000091440210914502209146023091470268
:1006D0000E3F1F4F2F4F3F4F09F067C04FEF5FEFA7
:1006E000BA014093440250934502609346027093CE
:1006F0004702409144025091450260914602709138
:100700004702DC011296ED91FC9180819181A281DA
:10071000B3818093850390938603A0938703B0935E
:10072000880384819581A681B7818093810390930A
:100730008203A0938303B093840380859185A2856F
:10074000B38580937D0390937E03A0937F03B09342
:10075000800384859585A685B785809379039093DA
:100760007A03A0937B03B0937C03109275031092DD
:10077000760310927703109278030E94330C88E579
:100780009CE090930A038093090390930C03809359
:100790000B0358D7009731F421E030E030938A03FF
:1007A000209389031F910F910895009144021091A5
:1007B00045022091460230914702DB010D931D93C3
:1007C0002D933C93139795CF8FEF9FEFEBCF8F92A5
:1007D0009F92AF92BF92CF92DF92EF92FF921F93C0
:1007E000CF93DF934B015C0110918C0382E090E08A
:1007F00090938A038093890381149104A104B10426
:1008000041F480918C03811104C080918B03C1E07D
:100810008111C0E0C12CD12C760180918C03811113
:1008200006C080918B03811102C0CC23D9F083E0F4
:1008300090E090938A0380938903CC2379F1CCE9EB
:10084000DFEF111102C00E94BC0FCE01DF91CF91EA
:100850001F91FF90EF90DF90CF90BF90AF909F904F
:100860008F9008956AE070E080E090E00E94102C84
:1008700080E1C80E87E2D81EE11CF11C8FEF8816BC
:100880009806A806B80631F0C1E08C149D04AE04A9
:10089000BF0408F0C0E080E009D7BFCFD0E0C0E0DF
:1008A000D0CFCF92DF92EF92FF920F931F93CF930F
:1008B000DF938F3F910511F008F050C0209189031C
:1008C00030918A032330310539F02091890330912A
:1008D0008A032130310531F424E030E030938A037B
:1008E000209389036A017B01EC0182309105A0F01D
:1008F00011E0AE01C701B601A4D6AB01BC01CE0127
:100900001123F9F0DF91CF911F910F91FF90EF909C
:10091000DF90CF900C94E5118C01000F111F075F41
:100920001C4FD8018D919C91892B11F30E94EF11DE
:100930000297F1F6D801ED91FC91CE011995182F8F
:10094000D8CF0E94071290E080E0DF91CF911F91F5
:100950000F91FF90EF90DF90CF9008958FEF9FEF72
:10096000F4CF80E0A3C6CF93DF9386E090E090932E
:100970008A0380938903F3D6EC01E9E0F3E084E095
:10098000DF011D928A95E9F70E94540F10928A03A5
:1009900010928903CE01DF91CF91089580918B034E
:1009A0000895809174030895609344027093450202
:1009B000809346029093470290E080E008954F9222
:1009C0005F926F927F928F929F92AF92BF92CF92DF
:1009D000DF92EF92FF921F93CF93DF9300D000D06E
:1009E00000D01F92CDB7DEB7609108027091090266
:1009F00080910A0290910B020E945C2A6B017C019B
:100A0000DC01CB01B695A795979587959C01217040
:100A100033273A872987D701C60162E0B695A795A3
:100A2000979587956A95D1F78D839E83AF83B88715
:100A30004090D3085090D4086090D5087090D608A4
:100A4000C301B2010E948A2A69837A838B839C83C3
:100A50002091140230911502409116025091170214
:100A60000E94532A87FF86C277FC84C280900C02C2
:100A700090900D02A0900E02B0900F0220E030E0A6
:100A800040E85FE3609110027091110280911202C0
:100A9000909113020E94EE299B01AC0169817A8139
:100AA0008B819C810E943A2B87FD68C21092D308EB
:100AB0001092D4081092D5081092D608C601817001
:100AC000992711E0892B49F020E030E0A901C50108
:100AD000B4010E94532A811110E0B12E43E0F69434
:100AE000E794D794C7944A95D1F791E0C922DD24C1
:100AF000C114D10409F0C12E6C2D81E3B4DB8D81CA
:100B00009E8181709927892B09F410E0612F83E37E
:100B1000AADBA985BA85AB2B19F061E0B11001C041
:100B200060E085E3A0DBB1E0B98320910002309161
:100B30000102409102025091030260911C027091E7
:100B40001D0280911E0290911F020E94532A811162
:100B500001C0198229812093F008622F8DE083DB88
:100B6000C0901C02D0901D02E0901E02F0901F0267
:100B70008090240290902502A0902602B090270237
:100B8000A5019401C701B6010E943A2B18160CF07A
:100B900003C28092E0089092E108A092E208B0922D
:100BA000E3086BE070E080E090E09BDB9A83898350
:100BB0009093BA088093B908C090E008D090E108FB
:100BC000E090E208F090E30820E030E04FE753E4E3
:100BD000C701B6010E94532A18160CF4F6C120E092
:100BE00030E0A901C701B6010E943A2B87FF03C07C
:100BF000C12CD12C7601B701A60189819A813ADBFB
:100C0000B0901C0210911D0230911E023D83809114
:100C10001F028983C0902C02D0902D02E0902E02FA
:100C2000F0902F02A70196016B2D712F8D81998174
:100C30000E943A2B1816B4F0C0903002D0903102C6
:100C4000E0903202F0903302A70196016B2D712FD4
:100C50008D8199810E94532A87FD04C0CB2CD12E0F
:100C6000ED80F980E894F7F8C092E408D092E508A6
:100C7000E092E608F092E7086CE070E080E090E037
:100C800030DB9A8389839093CA088093C908C09007
:100C9000E408D090E508E090E608F090E70820E04E
:100CA00030E04FE753E4C701B6010E94532A1816FB
:100CB0000CF492C120E030E0A901C701B6010E9406
:100CC0003A2B87FF03C0C12CD12C7601B701A601B6
:100CD00089819A81CFDA91E0998320910402309141
:100CE0000502409106025091070260912002709126
:100CF000210280912202909123020E94532A8111A5
:100D000001C01982A981A093F1086A2F88E0ABDAAB
:100D1000C0902002D0902102E0902202F0902302A5
:100D20008090340290903502A0903602B090370245
:100D3000A5019401C701B6010E943A2B18160CF0C8
:100D400052C18092E8089092E908A092EA08B09215
:100D5000EB0869E070E080E090E0C3DA9A83898371
:100D60009093C2088093C108C090E808D090E90829
:100D7000E090EA08F090EB0820E030E04FE753E421
:100D8000C701B6010E94532A18160CF445C120E091
:100D900030E0A901C701B6010E943A2B87FF03C0CA
:100DA000C12CD12C7601B701A60189819A8162DA22
:100DB000B090200210912102B0912202BD832091B7
:100DC00023022983C0903C02D0903D02E0903E0275
:100DD000F0903F02A70196016B2D712F8B2F998107
:100DE0000E943A2B1816B4F0C0904002D0904102F5
:100DF000E0904202F0904302A70196016B2D712F03
:100E00008D8199810E94532A87FD04C0CB2CD12E5D
:100E1000ED80F980E894F7F8C092EC08D092ED08E4
:100E2000E092EE08F092EF086AE070E080E090E077
:100E300058DA9A8389839093D2088093D108C0901E
:100E4000EC08D090ED08E090EE08F090EF0820E07C
:100E500030E04FE753E4C701B6010E94532A181649
:100E60000CF4E1C020E030E0A901C701B6010E9406
:100E70003A2B87FF03C0C12CD12C7601B701A60104
:100E800089819A81F7D9C0904703D0904803E090B8
:100E90004903F0904A033FEFC31AD30AE30AF30A67
:100EA000C0924703D0924803E0924903F0924A036C
:100EB000C114D104E104F10499F480914B039091A1
:100EC0004C03A0914D03B0914E030196A11DB11D9D
:100ED00080934B0390934C03A0934D03B0934E0328
:100EE00080904F0390905003A0905103B090520314
:100EF00060914B0370914C0380914D0390914E0390
:100F00000E94882AA50194010E943E2B20E030E037
:100F100040E85FE40E943E2B2B013C01C701B60173
:100F20000E94882AA50194010E943E2B9B01AC01DE
:100F3000C301B2010E94EF296093430370934403FD
:100F400080934503909346032A960FB6F894DEBF2C
:100F50000FBECDBFDF91CF911F91FF90EF90DF903B
:100F6000CF90BF90AF909F908F907F906F905F9049
:100F70004F900895812C912C540180CDD301C20152
:100F80000196A11DB11D8093D3089093D408A0931E
:100F9000D508B093D60892CD80902802909029026F
:100FA000A0902A02B0902B02A5019401C701B601BE
:100FB0000E94532A87FDEDCDC092E008D092E1084F
:100FC000E092E208F092E308ECCDC12CD12C3FE78F
:100FD000E32E33E4F32E0FCEC12CD12C2FE7E22EDB
:100FE00023E4F22E73CE8090380290903902A090C4
:100FF0003A02B0903B02A5019401C701B6010E94DC
:10100000532A87FD9ECEC092E808D092E908E0926C
:10101000EA08F092EB089DCEC12CD12C9FE7E92E77
:1010200093E4F92EC0CEC12CD12C8FE7E82E83E4B7
:10103000F82E24CF8F929F92AF92BF92DF92EF92C1
:10104000FF920F931F93CF93DF93EDE2F3E08BE2D8
:10105000DF011D928A95E9F780E090E0A0E8BFEB00
:1010600086A397A3A0A7B1A780E090E0A0E8BFE384
:1010700082A393A3A4A3B5A38BEB9AEAAEE4B6E74D
:1010800084839583A683B78386E29CECA9E6B5E0CA
:1010900080879187A287B3878EE29FE5A2E1B2E9BC
:1010A00084879587A687B78789E49FEAAAE2B6E591
:1010B000808B918BA28BB38BA1E2B3E0B383A2832D
:1010C000EDE0F3E01196FC93EE938DE692E09183D0
:1010D0008083938382839583848397838683918798
:1010E0008087938782879587848797878687918B68
:1010F000808B938B828B81E493E015969C938E93E7
:10110000149781E393E013969C938E93129783E454
:1011100093E017969C938E931697E0EEF8E082E1A9
:10112000DF011D928A95E9F7CBE8D8E085E5FE015D
:1011300011928A95E9F7DD24D394D092D908812CB5
:10114000912C54018394898A9A8AAB8ABC8A61E083
:1011500081E381D8DD8A1886D092D80889869A865C
:10116000AB86BC8661E083E376D8DD861882D092B8
:10117000D70889829A82AB82BC8261E085E36BD812
:10118000DD82188ED092DE08898E9A8EAB8EBC8E50
:1011900061E08DE060D8DD8E18A6D092DA0889A6CD
:1011A0009AA6ABA6BCA6E12CF12C8701A801970159
:1011B0006BE070E080E090E0D8D89FA78EA7DDA616
:1011C00018AED092DC0889AE9AAEABAEBCAEA80128
:1011D00097016CE070E080E090E0C7D89FAF8EAFE1
:1011E000DDAE18A2D092DF0889A29AA2ABA2BCA25F
:1011F00061E088E030D8DDA218AAD092DB0889AA85
:101200009AAAABAABCAAA801970169E070E080E0A5
:1012100090E0ABD89FAB8EABDDAA1092CB08D092FA
:10122000DD088092CC089092CD08A092CE08B092B2
:10123000CF08A80197016AE070E080E090E095D8BF
:101240009093D2088093D108D092D008DF91CF91AB
:101250001F910F91FF90EF90DF90BF90AF909F9004
:101260008F90089580919B08811103C081E0809345
:101270009B0880919308811103C081E080939308BB
:1012800080918B08811103C081E080938B0880914D
:10129000A308811103C081E08093A3088091B30863
:1012A00081112CC081E08093B3088091B4089091A3
:1012B000B508A091B608B091B7080197A105B1058E
:1012C000E9F48091B8088823C9F06BE070E080E011
:1012D00090E007D89093BA088093B90840E050E0B6
:1012E000BA010E943A016BE070E080E090E00E9459
:1012F00071019093BA088093B90888D88091C30887
:1013000081112DC081E08093C3088091C408909121
:10131000C508A091C608B091C7080197A105B105FD
:10132000F1F48091C8088823D1F06CE070E080E08F
:1013300090E00E9471019093CA088093C90840E030
:1013400050E0BA010E943A016CE070E080E090E069
:101350000E9471019093CA088093C90857D8809160
:10136000AB08811103C081E08093AB088091BB087A
:1013700081112DC081E08093BB088091BC089091C1
:10138000BD08A091BE08B091BF080197A105B105A5
:10139000F1F48091C0088823D1F069E070E080E02A
:1013A00090E00E9471019093C2088093C10840E0D0
:1013B00050E0BA010E943A0169E070E080E090E0FC
:1013C0000E9471019093C2088093C1081FD8809138
:1013D000CB0881112EC081E08093CB088091CC088E
:1013E0009091CD08A091CE08B091CF080197A105AA
:1013F000B105F9F48091D0088823D9F06AE070E053
:1014000080E090E00E9471019093D2088093D1080F
:1014100040E050E0BA010E943A016AE070E080E0EA
:1014200090E00E9471019093D2088093D1080C94AF
:10143000060208954F925F926F927F928F929F92D1
:10144000AF92BF92CF92DF92EF92FF920F931F93D2
:10145000F894409064035090650360906603709028
:101460006703C0905803D0905903E0905A03F0905E
:101470005B03452B09F0A6C09B01AC01241935097B
:101480004609570929013A0100916003109161034F
:10149000209162033091630348015901840C951C2B
:1014A000A61CB71C80169106A206B306A0F40091F4
:1014B0005C0310915D0320915E0330915F030F5F29
:1014C0001F4F2F4F3F4F00935C0310935D032093FA
:1014D0005E0330935F038092600390926103A09259
:1014E0006203B092630300915C0310915D0320914D
:1014F0005E0330915F038092680390926903A0922B
:101500006A03B0926B0300936C0310936D032093F6
:101510006E0330936F03609364037093650380934D
:10152000660390936703A301920160E472E48FE085
:1015300090E00E94D3316C0D7D1D8E1D9F1D609328
:1015400058037093590380935A0390935B0300915F
:1015500044021091450220914602309147020F3F0C
:101560001F4F2F4F3F4FF1F0009144021091450261
:1015700020914602309147020E3F1F4F2F4F3F4FA1
:1015800089F0C0904402D0904502E0904602F0906D
:10159000470221E08C149D04AE04BF0408F420E04F
:1015A0002093740378941F910F91FF90EF90DF9038
:1015B000CF90BF90AF909F908F907F906F905F90F3
:1015C0004F9008954B015C0184189508A608B70850
:1015D000A3019201261B370B480B590B64157505A7
:1015E00086059705E0F082169306A406B50640F43A
:1015F00020E030E0A90181149104A104B104A1F418
:1016000060E472E48FE090E00E94D331A70196017C
:10161000261B370B480B590BCA01B901C3CF8216E1
:101620009306A406B50660F7A501940160E472E490
:101630008FE090E00E94D3316C0D7D1D8E1D9F1DAB
:10164000B1CFF8CECF93DF9300D01F92CDB7DEB7E6
:101650001C821B821A8219821092700310927103ED
:101660001092720310927303BE016F5F7F4FCE0121
:1016700003960E941B2869817A818B819C810E943C
:101680000B21009761F4BE016F5F7F4FCE0103967F
:101690000E94272869817A818B819C812ED50F90A9
:1016A0000F900F900F90DF91CF910895FF920F93BD
:1016B0001F93CF93DF93082F60E070E0CB010E946F
:1016C000102CFF24F3940E94F41FEC01892B89F065
:1016D00010E0CE3F8FEFD80769F0002361F160E0A2
:1016E00070E0CB010E94102C81E090E0892B59F32F
:1016F00022C011E025D5EC01892B21F0CE3F8FEFE0
:10170000D80759F711111EC011E0229609F410E014
:101710000E94A41FEC01892B21F0CE3F8FEFD80748
:10172000E1F6111111C011E0CE3F8FEFD80709F497
:1017300010E001110BC0CE01DF91CF911F910F91ED
:10174000FF90089511E0E4CF11E0F3CF60E070E086
:10175000CB010E94102C1F25812F90E0C7CFCF9383
:10176000DF9380917403882321F060E070E0CB0167
:101770004CD635D6D0E0C0E0892B71F06AE070E03D
:1017800080E090E00E94102C81E090DF28D6219626
:10179000C03D27E0D20781F727D60E945F21109233
:1017A0008C0310928B031092850310928603109283
:1017B0008703109288031092810310928203109283
:1017C00083031092840310927D0310927E03109283
:1017D0007F03109280031092790310927A03109283
:1017E0007B0310927C031092750310927603109283
:1017F0007703109278034EEF5FEF6FEF7FEF409328
:10180000440250934502609346027093470210923F
:101810007403E8E6F3E028E0DF011D922A95E9F77A
:10182000109264031092650310926603109267038E
:10183000109260031092610310926203109263038E
:1018400010925C0310925D0310925E0310925F038E
:10185000109258031092590310925A0310925B038E
:10186000DF91CF91089510929803109299031092EE
:101870009A0310929B03109297038091A00390917A
:10188000A103909396038093950310929403109272
:10189000930310928F031092900310929103109271
:1018A000920310929D0310929C0390E080E00895B3
:1018B000CF92DF92EF92FF920F931F93CF938C0101
:1018C000892B09F055C02091A0033091A10380918C
:1018D0009503909196034091A0035091A1035093DA
:1018E0009603409395032817390781F010929403CB
:1018F0001092930310928F03109290031092910311
:101900001092920310929D0310929C038091A00369
:101910009091A103019761F580919C0390919D03A3
:10192000892B21F480914802811112C080919C037F
:1019300090919D030197E1F480918F039091900322
:10194000A0919103B09192030197A105B10581F493
:1019500010928F03109290031092910310929203B1
:101960001092480282E090E090939D0380939C0344
:101970008091A0039091A103019709F01CC180916F
:10198000B6039091B7038017910709F014C18091B5
:10199000B2039091B303A091B403B091B503009743
:1019A00009F409C12091B10321110DC04091B20386
:1019B0005091B3036091B4037091B503452B462B4E
:1019C000472B09F4F8C020919C0330919D032230ED
:1019D000310509F0F0C0209193032111ECC0FC0106
:1019E000C080D180E280F38080919703882309F43E
:1019F000D3C08091A3039091A403892B09F4FDC067
:101A00002091A3033091A40381E02230310509F035
:101A100080E02091A3033091A403C1E0213031057F
:101A200049F02091A3033091A403C1E02230310595
:101A300009F0C0E0882309F456C02091AD0330912D
:101A4000AE034091AF035091B003C701B6010E94AD
:101A50003A2B87FD14C02091AD033091AE03409125
:101A6000AF035091B00360919803709199038091F6
:101A70009A0390919B030E94532A87FD22C02091D4
:101A8000AD033091AE034091AF035091B003C70155
:101A9000B6010E943A2B181634F52091AD0330910F
:101AA000AE034091AF035091B003609198037091E1
:101AB000990380919A0390919B030E94532A81116C
:101AC00012C08091A5039091A603A091A703B091A5
:101AD000A803892B8A2B8B2B19F481E08093940324
:101AE00081E080939303CC2309F456C02091AD0389
:101AF0003091AE034091AF035091B003C701B601DE
:101B00000E94532A87FF14C02091AD033091AE0389
:101B10004091AF035091B003609198037091990385
:101B200080919A0390919B030E943A2B87FF22C0D9
:101B30002091AD033091AE034091AF035091B003BB
:101B4000C701B6010E94532A811126C02091AD031E
:101B50003091AE034091AF035091B0036091980370
:101B60007091990380919A0390919B030E943A2B64
:101B7000181694F48091A5039091A603A091A70351
:101B8000B091A803892B8A2B8B2B19F481E08093C9
:101B9000940381E08093930381E0909193039111EA
:101BA00080E080939703C0929803D0929903E092CB
:101BB0009A03F0929B03012B09F067C180919C036B
:101BC00090919D03892BD9F41092A2031092930354
:101BD00080914802882379F082E090E090939D0301
:101BE00080939C03109248022091A0033091A1039E
:101BF00081E0232BE9F080E01BC081E00ACF109246
:101C000048028091A203882349F010929403109215
:101C10009D0310929C031092A203EDCF8091A0032C
:101C20009091A103892BE1F080919303109293038B
:101C300020919C0330919D032230310509F45EC050
:101C400088F42115310509F448C02130310509F423
:101C5000F3C010929403109293031092A20338C021
:101C600081E0E6CF2330310509F4B1C024303105DD
:101C700081F740918F03509190036091910370918F
:101C80009203411551056105710561F041505109FB
:101C90006109710940938F035093900360939103FE
:101CA0007093920340918F03509190036091910340
:101CB00070919203452B462B472BD9F420919E031C
:101CC00030919F032130310509F046C010929403F2
:101CD00010929D0310929C030CC0809148028823AF
:101CE00041F082E090E090939D0380939C031092DA
:101CF000480210928D0380919403CEC08823C9F3CB
:101D00008091A5039091A603A091A703B091A80389
:101D1000181619061A061B060CF07DC08091A00348
:101D20009091A103019709F076C08091A50390914D
:101D3000A603A091A703B091A80380938F0390936B
:101D40009003A0939103B093920383E090E090936B
:101D50009D0380939C03CDCF4091A9035091AA038A
:101D60006091AB037091AC03452B462B472BA9F038
:101D7000109294038091A9039091AA03A091AB03C0
:101D8000B091AC0380938F0390939003A093910341
:101D9000B093920381E090E0DACF882399F08091AC
:101DA000490290914A02A0914B02B0914C0280935B
:101DB0008F0390939003A0939103B093920384E0D8
:101DC00090E0C5CF1092940382E090E0C0CF809164
:101DD0008F0390919003A0919103B091920300978B
:101DE000A105B10559F00197A109B10980938F03AD
:101DF00090939003A0939103B093920380918F03EB
:101E000090919003A0919103B0919203892B8A2B1A
:101E10008B2B09F06ECF8091490290914A02A091DC
:101E20004B02B0914C02892B8A2B8B2B09F44ECF9D
:101E300081E080939403B3CF40918F03509190033E
:101E400060919103709192034115510561057105EF
:101E500061F0415051096109710940938F0350931A
:101E60009003609391037093920340918F0350917C
:101E700090036091910370919203452B462B472B61
:101E800009F037CF8111C7CF9FCF80918D03882371
:101E900009F431CF80918E03CF911F910F91FF9064
:101EA000EF90DF90CF9008951092980310929903CD
:101EB00010929A0310929B031092970310929D0325
:101EC00010929C0310929603109295031092B70300
:101ED0001092B603109294031092930310928F0302
:101EE00010929003109291031092920310928E031D
:101EF00010928D031092B2031092B3031092B403A8
:101F00001092B5031092B1031092AD031092AE037C
:101F10001092AF031092B00388EE93E0A0E0B0E01F
:101F20008093490290934A02A0934B02B0934C02D3
:101F30001092A9031092AA031092AB031092AC0363
:101F40001092A5031092A6031092A7031092A80363
:101F50001092A4031092A30381E080934802109290
:101F6000A2031092A1031092A00310929F0310925B
:101F70009E0390E080E008958091A0039091A103DA
:101F8000892B19F580914802882351F08091A20392
:101F9000811106C081E080938E0380938D030895A4
:101FA0002091A2033091480281E090E0332311F0A8
:101FB00090E080E030E082239323892B21F010927F
:101FC0008E0381E0EACF10928D03089582E090E0C5
:101FD000FA01918380838FEF9FEF0895CF93DF9372
:101FE000EA01009711F00E947F221982188290E086
:101FF00080E0DF91CF910895DB01009719F48FEF16
:102000008C9308952EEF2C93FC013F96EF30F10551
:1020100008F034C08827E05FFF4E8F4F0C941832D1
:102020003C103A10381036103410301032102E1088
:102030002C102A10271023101F1025103E1080E3AB
:1020400011968C93089589E2FBCF82E2F9CF119625
:102050001C92089583E2F4CF81E2F2CF81E1F0CFC8
:1020600087E2EECF8AE2ECCF80E1EACF84E2E8CFEC
:1020700088E2E6CF86E2E4CF81E3E2CF80E2E0CF00
:102080008091C4039091C50308959093C5038093F4
:10209000C40308958091C30308959091C303892BCD
:1020A0008093C3030895982F90958091C30389234B
:1020B0008093C30308958091C20308958091C00363
:1020C0009091C10308956115710559F0FB0130E04D
:1020D00020E070E060E02417350719F06115710504
:1020E00011F0CB010895A081B181A817B90709F4B7
:1020F000BF012F5F3F4F3696EECF8091C60381110F
:102100001CC060D266D29093B9038093B8030E943A
:102110007D1A0E948F1A9093BD038093BC030E9486
:102120000C1F0E94131F9093BB038093BA0381E09E
:102130008093C60390E080E0089584EF9FEF0895B8
:102140008F929F92AF92BF92CF92DF92EF92FF92C7
:102150000F931F93CF93DF9300D000D000D01F9236
:10216000CDB7DEB71A86198618861F821E821D8299
:102170001C821B821A8219828091C60307EF1FEF0F
:10218000882309F49CC08E010D5F1F4F9E012B5FB9
:102190003F4FAE01495F5F4FBE01675F7F4F90E0E9
:1021A00080E00E9490208C01009721F00596029714
:1021B00008F0DBC029853A852115310509F402C1F3
:1021C000ED80FE804B815C81B701640F751F8F81AC
:1021D00098858617970708F4F5C0E20EF31ED7011D
:1021E0009C91903C09F07FC04230510508F47BC0BF
:1021F00011968C914091C4035091C503452B09F46D
:102200009CC0913F08F071C02CE1290F2D3008F4DB
:102210008BC02DE2290F203108F489C0903C21F4B5
:102220008150823008F483C088E3890F8B3008F432
:1022300081C09CEFC92E9FE0D92EE6EEFFE06D81B4
:102240007E81AE014F5F5F4F89859A8519955C014C
:10225000C114D104A1F189809A808114910479F18B
:102260008B819C818815990508F487C010E000E0F7
:102270004B815C8170E060E0C7010E944232011531
:102280001105E9F449815A8169857A858D819E819C
:10229000680F791FC501F6011995E980FA800D8153
:1022A0001E812F81388549855A856FEF7FEF81E048
:1022B00090E00E942B208C01892B09F056C0C801A8
:1022C0002A960FB6F894DEBF0FBECDBFDF91CF9137
:1022D0001F910F91FF90EF90DF90CF90BF90AF9044
:1022E0009F908F90089580E085CF30E020E0220F0E
:1022F000331FF901E854FC4F0190F081E02D309735
:1023000009F497CF892F90E01995009709F491CFA0
:10231000DC011296ED91FC9113971496CD90DC9010
:10232000309709F08CCF1FC021E030E0E0CF22E0F1
:1023300030E0DDCF23E030E0DACFD12CC12CEEEE5F
:10234000FFE09F3F09F07BCFE091B803F091B90324
:10235000309721F4C90104EF1FEF0CC08FEF90E01C
:1023600019950097A9F604EF1FEF89859A850097C4
:1023700009F4A5CF0E947F22A2CF0E945A218C018E
:1023800089859A850E947F2270E060E0C4010E94E6
:10239000F32098878F830E9428209E838D836F81EE
:1023A00078856115710559F0C8010E940B249A8740
:1023B000898706EF1FEF892B09F058CF59CF08EF17
:1023C0001FEF56CF08EF1FEFD0CF2091C603222377
:1023D00019F020E00C94941A87EF9FEF08958091F4
:1023E000C4039091C50308950E94181F0E94721E95
:1023F000F5D0E8EBF3E088E0DF011D928A95E9F77C
:102400001092C60390E080E008950C94D01C21E067
:1024100040E050E0BA010C94941A86E090E0FA0192
:102420009183808390E080E0089547E050E060E78A
:1024300072E049CEDF92EF92FF920F931F93CF93FA
:10244000DF938A01EC01C60FD71FE090CA03F0901A
:10245000CB03D9800E944221D816190678F082E079
:1024600090E0F801918380838EEF9FEFDF91CF9111
:102470001F910F91FF90EF90DF900895EF2841F4A6
:1024800082E090E0F8019183808384EF9FEFEECFAC
:1024900089818093C90390E00196F801918380833C
:1024A00090E080E0E3CFCF93DF93EA010E94811DAB
:1024B000882321F00E944F210E94821D82E090E03B
:1024C000998388838BEF9FEFDF91CF910895CF930E
:1024D000DF93EB0186E0FB0111928A95E9F78FEF1C
:1024E0008883D8DD8983E7DD8A83E8DD9D838C835B
:1024F000DF91CF910895CF93DF93EA010E94841D6D
:10250000811109C082E090E09983888385EF9FEF75
:10251000DF91CF91089590E080E0B7DD81E090E019
:102520009983888390E080E0F3CF0F931F93CF933C
:10253000DF93EA018C01060F171F0E94841D811191
:102540000BC082E090E09983888385EF9FEFDF9155
:10255000CF911F910F910895F8018181823038F059
:1025600082E090E0998388838EEF9FEFF0CF81E047
:1025700090E08BDD88E090E09983888390E080E0B4
:10258000E6CFCF93DF930097D1F4EB01FB013296B6
:1025900086E0DF011D928A95E9F78FEF888385E059
:1025A00089831A820E9442218B830E9441219D834C
:1025B0008C8381E08E838F83DF91CF910895DF91AB
:1025C000CF911ACD85E192E19093C8038093C70320
:1025D00008958091C7039091C80308951092C8038D
:1025E0001092C70308958091CA039091CB03089578
:1025F000411105C0611571058105910561F0609378
:10260000CA037093CB038093CC039093CD03409384
:10261000CE0381E0089580E00895FF920F931F9309
:10262000CF93DF938A01EC01C60FD71FF9800E9478
:102630004221F816190668F082E090E0F8019183D3
:1026400080838EEF9FEFDF91CF911F910F91FF90CD
:1026500008956C817D818E819F814B81C9DF8111BD
:1026600008C082E090E0F8019183808384EF9FEFBF
:10267000EACF89818093C90390E00196F8019183A4
:10268000808390E080E0DFCFCF93DF93EA01FC010D
:10269000E60FF71F64817581868197814381A8DFEA
:1026A000811109C082E090E09983888384EF9FEFD5
:1026B000DF91CF91089581E090E09983888390E045
:1026C00080E0F6CFEAECF3E04081518162817381D2
:1026D000480F511D611D711D4083518362837383B7
:1026E0000895CF93C091C9034C2F50E06091CA0365
:1026F0007091CB0301960E9439328C2FE3DF109248
:10270000C903CF910895009799F48091CA039091DD
:10271000CB032FEFFB012083892B59F02091C903B4
:1027200030E02F5F3F4F2417350719F4CB01D9CF85
:1027300063CC0895009799F48091CA039091CB03DC
:102740002FEFFB012083892B59F02091C90330E042
:102750002F5F3F4F2417350719F4CB01C2CF4CCC64
:10276000089523E1AC01249FC001259F900D112401
:10277000E091D303F091D403E80FF91F2381348152
:102780002250310981E02230310508F080E00895BF
:102790000F931F93CF93DF930091D5031091D6032E
:1027A000D0E0C0E080E00C171D0749F491E08111F2
:1027B00090E0892FDF91CF911F910F9108958111A2
:1027C000F5CFCE01CEDF2196EECFA091D303B0910D
:1027D000D403109729F12091D5033091D6038217A5
:1027E0009307F0F453E1589F9001599F300D112445
:1027F000A20FB31FED91FC911197309789F01296BB
:102800008C91681768F48DE0689FE00DF11D11242C
:1028100080819181892B21F081E09281491708F014
:1028200080E008959C0143E1429FC001439F900DC9
:102830001124E091D303F091D403E80FF91F8385AD
:10284000823091F481E090E06581768140914D0283
:1028500050914E026417750711F490E080E0892BC7
:1028600019F081E0232B09F080E00895FC01A0819C
:10287000B1818DE0689FA00DB11D112413964D917B
:102880005C9185859685489F9001499F300D589FA2
:10289000300D1124C9010196611103C0478144FD27
:1028A00004960895EF92FF920F931F93CF93DF93B7
:1028B000EA01FC01E60FF71F02811381E480F58035
:1028C0004F2D6E2DC80181DF81110DC082E090E097
:1028D000998388838EEF9FEFDF91CF911F910F91A6
:1028E000FF90EF900895C8013CDF882339F082E023
:1028F00090E09983888388EF9FEFEECF1093540286
:1029000000935302E0925502F092560281E090E06B
:102910009983888390E080E0DFCFCF92DF92EF92BF
:10292000FF920F931F93CF93DF937A01EC01C60FB1
:10293000D71FC0905302D0905402009155021091BD
:102940005602412F602FC60140DF811110C082E086
:1029500090E0F701918380838AEF9FEFDF91CF9121
:102960001F910F91FF90EF90DF90CF900895C601D7
:10297000F8DE882341F082E090E0F70191838083C4
:1029800088EF9FEFEBCF4C815D816E817F819A81D3
:1029900089818F3F41F082E090E0F701918380834D
:1029A0008EEF9FEFDBCFE3E1EC9D9001ED9D300DCD
:1029B0001124E091D303F091D403E20FF31F0190AF
:1029C000F081E02D2DE0029FE00DF11D112401901A
:1029D000F081E02D27E0129FE00DF11D112480838E
:1029E00091838B81828343835483658376831F5FC6
:1029F0001093560281E090E0F7019183808390E08C
:102A000080E0ACCFEF92FF920F931F93CF93DF93B1
:102A10007A018C01060F171FC091D303D091D40304
:102A2000209781F021E030E0F8018281938140918C
:102A3000D5035091D6038417950710F030E020E0BD
:102A4000232B71F482E090E0F701918380838EEF75
:102A50009FEFDF91CF911F910F91FF90EF9008951D
:102A600043E1489F9001499F300D1124C20FD31FAD
:102A700078DE882341F082E090E0F7019183808343
:102A800088EF9FEFE6CFF8012481358120383105AA
:102A9000C8F687818111D6CF4181842F90E08F7E47
:102AA000009741F082E090E0F7019183808386EF08
:102AB0009FEFCFCF4F833E832D83268128871986B2
:102AC000223010F421E0288721E030E0F701318343
:102AD0002083BFCF88E090E0FA019183808390E06B
:102AE00080E00895FB018FEF808381E181838FEF88
:102AF0009FEF9383828380E890E09583848316829E
:102B000017820895FB018FEF808391E09183828388
:102B10009383848384E3858381E090E09783868335
:102B20000895DF92EF92FF920F931F93CF93DF935D
:102B3000EA01FC01E60FF71F8181813071F082E02C
:102B400090E0998388838FEF9FEFDF91CF911F9162
:102B50000F91FF90EF90DF90089582819381D48050
:102B60002581E680F7800091D3031091D4030115ED
:102B7000110539F482E090E0998388838CEF9FEF10
:102B8000E4CF4091D5035091D6038417950738F0D0
:102B900082E090E0998388838EEF9FEFD6CF892BD8
:102BA00039F082E090E09983888386EF9FEFCDCF64
:102BB0008D2D8D7FB1F72130A1F781E0D11006C0B6
:102BC00091E0E916F10431F080E004C0E2E0EE1695
:102BD000F104D0F3882329F390E080E0C2DD88235C
:102BE00039F082E090E09983888388EF9FEFADCF42
:102BF000F801D38681E08487F686E586108A1786F9
:102C000081E090E09983888390E080E09ECF4CE063
:102C100050E06AE972E057CA8F929F92BF92CF92BA
:102C2000DF92EF92FF920F931F93CF93DF93EA010E
:102C3000FC01E60FF71F828193810481B580E0914A
:102C4000D303F091D403309791F482E090E099831C
:102C500088838CEF9FEFDF91CF911F910F91FF90B1
:102C6000EF90DF90CF90BF909F908F90089520912C
:102C7000D5033091D6038217930738F082E090E0B5
:102C8000998388838EEF9FEFE6CF23E1289F600131
:102C9000299FD00C1124EC0DFD1DE080F180E11482
:102CA000F10499F28281081748F78DE0089F8001AE
:102CB0001124E00EF11EF70180819181892B29F604
:102CC000BB20E1F2F7E0BF9E40011124C4010E9445
:102CD0004622F70191838083E091D303F091D403DE
:102CE000EC0DFD1D0190F081E02DE00FF11F8081C2
:102CF0009181009739F482E090E0998388838DEF89
:102D00009FEFA9CFA40170E060E00E944232809161
:102D1000D3039091D403C80ED91EF601808191810E
:102D2000080F191FF801B28281E090E0998388832F
:102D300090E080E090CFAF92BF92CF92DF92FF926F
:102D40000F931F93CF93DF93EA01FC01E60FF71F68
:102D500082819381F4800091D3031091D4030115F3
:102D6000110581F482E090E0998388838CEF9FEFD6
:102D7000DF91CF911F910F91FF90DF90CF90BF9087
:102D8000AF9008952091D5033091D6038217930711
:102D900038F082E090E0998388838EEF9FEFE8CF50
:102DA0002FEF2F0D2C3FA8F723E1289F6001299FCB
:102DB000D00C11240C0D1D1DF80180819181892BEF
:102DC00089F6FDE0FF9E50011124C5010E944622B4
:102DD000F80191838083E091D303F091D403EC0D4B
:102DE000FD1D80819181009739F482E090E0998304
:102DF00088838DEF9FEFBCCFA50170E060E00E945B
:102E00004232E091D303F091D403EC0DFD1DF28228
:102E100081E090E09983888390E080E0A9CFCF9211
:102E2000DF92EF92FF920F931F93CF93DF93860F62
:102E3000971FFC01028113818091D3039091D403E9
:102E4000892B81F082E090E0FA01918380838CEFFE
:102E50009FEFDF91CF911F910F91FF90EF90DF9047
:102E6000CF900895C801B0E0A0E00197A109B10991
:102E70008F3F9F4FA105B10540F082E090E0FA013D
:102E8000918380838EEF9FEFE4CF7A0183E1809F6F
:102E90006001819FD00C1124C6010E944622EC01E2
:102EA000009741F482E090E0F701918380838DEFF9
:102EB0009FEFCFCFA60170E060E00E944232D09336
:102EC000D403C093D3031093D6030093D50390E0AB
:102ED00080E02FEF3FEF41E061E070E08017910765
:102EE00041F481E090E0F7019183808390E080E0FD
:102EF000B0CF3A8B298B1B864C877E876D87188ACB
:102F00001F8601966396EACFEF92FF921F93CF93AD
:102F1000DF93EC0110E0F12CE12C6A811617B0F080
:102F200083E0689FB0011124AE014F5E5F4FC7017F
:102F30000E94AB22009721F02FEF3FEF3A8B298BB5
:102F4000DF91CF911F91FF90EF900895612FCE01F7
:102F50008DDC61E070E00E94F320E816F90608F4C9
:102F60007C011F5FDACFF8942091D1033091D20316
:102F700081E02115310509F080E0232B09F07894D8
:102F800008952F923F924F925F926F927F928F920D
:102F90009F92AF92BF92CF92DF92EF92FF920F93E8
:102FA0001F93CF93DF933C01660E771EF30182815E
:102FB00093814C01B12CA12CC091D303D091D403A7
:102FC000209769F021E030E06091D5037091D6033D
:102FD0008617970710F030E020E0232BD1F482E031
:102FE00090E0FA01918380838EEF9FEFDF91CF9184
:102FF0001F910F91FF90EF90DF90CF90BF90AF9017
:103000009F908F907F906F905F904F903F902F9008
:1030100008958092570290925802A0925902B0925D
:103020005A0263E1689F9001699F300D1124C20F1D
:10303000D31FF3018181833040F082E090E0FA01F8
:103040009183808386EF9FEFD1CF2A012B813C8132
:10305000232BF1F4288139819F8191FF2EC0232BEE
:1030600009F46FC02091D8039A81422F490F552748
:10307000551FBA0141E050E06138710514F050E08D
:1030800040E0452B09F45DC02A87920F9093D80346
:103090008150823008F481C066DF882309F4D8C0EB
:1030A000F3018181813009F48DC008F47BC0823046
:1030B00009F4C6C090E080E0ADC0232B09F441C004
:1030C0002091D7039A81E22FE90FFF27FF1F41E0EC
:1030D00050E0ED3FF10514F050E040E0452B89F160
:1030E0002A87920F9093D703D3CFA081B181A20FEB
:1030F000B31F11966C91060F111D0196295F3F4F6A
:103100008417950794F38D859E85089F1001099F6C
:10311000300C189F300C1124C114D104D1F48F81CC
:1031200084FF17C00E944121F5E02F0E311C21E0E1
:103130008215930508F420E0A701435F5F4F21113A
:103140000EC082E090E0F2019183808387EF9FEFD1
:103150004DCF0E9441212FEF221A320AE8CF8881F9
:103160009981E80EF91EF70114830383FFEFCF1A4C
:10317000DF0A7A018A818C151D0409F00CF48CCFCA
:10318000E881F981EE0DFF1D428150E030E020E042
:1031900010E000E090E080E0B3CFF12CE12CD12CE6
:1031A000C12CE8CF81E090E09C838B83F1DA882307
:1031B00009F480CF81E090E00E94451080E40E94F5
:1031C000531078CF89899A89019661F083E090E065
:1031D0009C838B8382E090E00E94451080E40E94F3
:1031E0004D1068CF8D819E8120914D0230914E020D
:1031F00082179307D1F46091510270915202AE018F
:103200004F5E5F4F80914F02909150020E94CA23FF
:103210000097E1F2789422E030E0F20131832083DC
:10322000892B99F08DEF9FEFE1CE89288A288B2892
:1032300069F6892B59F6CE0167DE188A1F86E8CF1A
:1032400082E090E09C838B8335CF90E080E0CECE0F
:1032500082E090E0F2019183808385EF9FEFC6CEFC
:103260008F929F92AF92BF92CF92DF92EF92FF9296
:103270000F931F93CF93DF93EA018C01060F171F63
:10328000F8018181833098F082E090E0998388830F
:1032900086EF9FEFDF91CF911F910F91FF90EF90FD
:1032A000DF90CF90BF90AF909F908F9008958091C6
:1032B000D3039091D403892B61F081E090E02091B9
:1032C000D5033091D603232B11F490E080E0892BB5
:1032D00039F482E090E0998388838EEF9FEFDACF14
:1032E00042DE882309F4DFC0F8018181813009F4CE
:1032F00095C0E8F0823099F42091D5033091D6033F
:10330000E091D303F091D40390E080E041E050E0FD
:103310002817390709F0BDC03BDA811117C078942E
:1033200081E090E09983888390E080E0B3CF2091A2
:10333000D5033091D603E091D303F091D40390E00C
:1033400080E041E050E02817390741F481E090E047
:103350000E94451080E40E945310E1CF6381748184
:10336000672B11F05483438301967396ECCFE09161
:10337000D303F091D403E00FF11F23813481223075
:103380003105D9F4218932892F3F3F4FB1F425818E
:10339000368140914D0250914E022417350761F558
:1033A000AF014F5E5F4F6091510270915202809168
:1033B0004F02909150020E94CA23EFEFCE1ADE0A0C
:1033C000EE0AFE0A0D5E1F4F4091D5035091D603C1
:1033D00070E060E0C416D506E606F7063CF50097F7
:1033E00031F27894892B09F49BCF82E090E09983A5
:1033F00088838DEF9FEF4ECFC114D104E104F10417
:10340000E1F6232BD1F6CF017FDDE091D303F091DC
:10341000D403E00FF11F108A1786CFCF10E000E031
:1034200090E080E0C12CD12C7601CECF0097C9F678
:1034300010E000E0812C912C540183E0E82EF12C67
:103440001AC0E091D303F091D403E00FF11F838100
:103450009481029749F4F482E38282E090E00E9432
:10346000451080E40E944D10FFEF8F1A9F0AAF0AAB
:10347000BF0A0D5E1F4F8091D5039091D603B0E037
:10348000A0E088169906AA06BB06DCF290E080E070
:10349000A8CF638174816230710511F45483438332
:1034A0000196739635CF82E090E09983888385EF0B
:1034B0009FEFF0CE0097B9F48FEFFB01808320914E
:1034C00057023091580243E1429FC001439F900D43
:1034D0001124E091D303F091D403E80FF91F828502
:1034E000FB01818308950C94FC0F88E090E0FA01C1
:1034F0009183808390E080E008951092D20310922F
:10350000D103E3EDF3E086E0DF011D928A95E9F750
:1035100087E096E19093D0038093CF030895809144
:10352000CF039091D00308952F923F924F925F92D4
:103530006F927F928F929F92AF92BF92CF92DF92C3
:10354000EF92FF920F931F93CF93DF93CDB7DEB728
:103550002F970FB6F894DEBF0FBECDBFF894E09161
:10356000D103F091D2033196F093D203E093D103CB
:1035700078944090D3035090D4034114510409F43B
:103580000CC2E091D503F091D603EF2B09F405C2EC
:103590002D8749875A876B877C8798878F8312018D
:1035A000B12CA12C10E000E08091D5039091D603BE
:1035B000A816B90618F40115110529F1F89480919F
:1035C000D1039091D20301979093D2038093D103BA
:1035D0007894C8012F960FB6F894DEBF0FBECDBF0A
:1035E000DF91CF911F910F91FF90EF90DF90CF90DF
:1035F000BF90AF909F908F907F906F905F904F9013
:103600003F902F9008957101E418F508D1011796A5
:103610008C91179781FD54C013968D919C911497AE
:10362000039709F04DC015968D919C91EF81F88517
:103630008E179F0709F044C0B50190E080E07FD469
:103640008A832091D3033091D4033D832C833D851D
:10365000332309F44CC04C815D81452B09F49AC198
:103660008091D5039091D603A816B90608F092C1AF
:10367000C501D8D88823E9F06C817D816E0D7F1D4E
:103680007D836C83DB011F968D919C91892B89F042
:10369000D12CC12CF12CE12CAC81BD8112968C91E6
:1036A00012978E151F0409F094F450961C921E92E6
:1036B0001F972A81222321F0B50190E080E041D4B8
:1036C0003FEFA31AB30A43E1240E311C6DCFAC8146
:1036D000BD81ED91FC91EC0DFD1D858196810FD78B
:1036E000BFEFEB1AFB0AEDE0CE0ED11CD5CFEC817B
:1036F000FD81309709F44EC18091D5039091D60396
:10370000A816B90608F046C1EE0DFF1DFF87EE872B
:10371000C50188D88B83882339F1AE85BF851F9674
:103720008D919C915097019621E01D964D915C9151
:103730008417950709F020E02E831982712C10E080
:1037400000E0AE85BF8512968C91781608F45DC0B6
:10375000EE85FF85878590890196658576850E942F
:10376000E231908B8787A5CFB1E0BE83E6CF992465
:1037700093946BC08BD6F6019683858382C0D60165
:10378000ED90FC90B7E06B9EE00CF11C1124F7016A
:103790006381748180818F3F61F121E030E002C05C
:1037A000220F331F8A95E2F7C901092E000CAA0BDC
:1037B000BB0BFB014081518162817381842395237E
:1037C000A623B72321E0892B8A2B8B2B09F420E039
:1037D000D4012C93D70111968C91F6012385348561
:1037E000820F932F911D880E991E14861386639461
:1037F0009BC0418150E0C4010E943932EBCF9982D5
:1038000006EF1FEFC5C01982C3C0F981F111A0CF27
:10381000EDE07E9E70011124AE85BF85CD90DC90D9
:10382000CE0CDF1C15D49D838C83BB81BB2309F494
:103830009ECF81E0EE85FF8527853089232B09F017
:1038400080E0982E882309F458C0672D8E859F85C7
:103850000DD8D60118969C938E93179761E070E06F
:10386000C2D4EE85FF85218932892F3F320709F4C2
:1038700081CFBC01C901CFD7D60116969C938E93F8
:103880001597D60115968D919C911697009709F47E
:10389000B6CFEC81FD818E0F9F1F1A969C938E935D
:1038A0001997AE85BF85ED91FC911197EE0EFF1E25
:1038B000F70121853285148613861A968C91870D1F
:1038C000D9018D93711016C0EE85FF85878184FF25
:1038D00011C049855A856B857C85F90141835283E6
:1038E00063837483F701838594850496A80FB91FB9
:1038F00014861386F701B287A187D60115968D919C
:103900009C911697892B09F443C0EE85FF8525818C
:10391000368180914D0290914E022817390779F037
:1039200019968D909C90612CD60112968C911297CD
:10393000681608F424CF1A969C928E921997BE812D
:10394000BB2309F460CF61E070E0F60187819085C8
:103950004AD4D6011796ED90FC90189715964D9184
:103960005C91E1E0F0E0BA81BB2311F0F0E0E0E02F
:103970000C811D819C01B501882799278E1B9F0B07
:103980006AD38C01892B21F0F60185819681B7D508
:103990007394D7CE0FEF1FEF8CCE10E000E00ECE69
:1039A0002F923F924F925F926F927F928F929F924F
:1039B000AF92BF92CF92DF92EF92FF920F931F933D
:1039C000CF93DF938091D3039091D40310E000E074
:1039D000892BA9F0C8DA0AEF1FEF882381F0209025
:1039E000D5033090D603C091D303D091D403D12C0A
:1039F000C12C10E000E02C143D04A9F47894C80117
:103A0000DF91CF911F910F91FF90EF90DF90CF90BA
:103A1000BF90AF909F908F907F906F905F904F90EE
:103A20003F902F900895C6010E941214882309F137
:103A30008B819C810397E9F48F859889892BC9F044
:103A4000B60190E080E07BD221E030E0882311F0E5
:103A500030E020E044245524421A530AB12CA12C12
:103A6000912C812C8A818815190409F038F4188A60
:103A70001F864FEFC41AD40A6396BDCFE881F9813F
:103A8000EA0DFB1D85819681892BA1F161E070E033
:103A900087819085A8D33C01DBD28C01E881F98134
:103AA000EA0DFB1D8185928525813681200F311F0E
:103AB000AC01421B530B9A0147815085421B530BAB
:103AC00070E060E00E944232E881F981EA0DFB1D5E
:103AD000E780F084458156819301B601C201BBD2D3
:103AE0008C01892B39F0E881F981EA0DFB1D858174
:103AF000968105D55FEF851A950A8DE0A80EB11C59
:103B0000B1CF31CA789408952F923F924F925F922D
:103B10006F927F929F92AF92BF92CF92DF92EF927D
:103B2000FF920F931F93CF93DF9300D000D0CDB7B8
:103B3000DEB70091D3031091D40399249394011517
:103B4000110509F43EC0A090D503B090D6030BDA5E
:103B5000982E8823B1F11092D4031092D3031092BF
:103B6000D6031092D5031092D7031092D8038FEF8B
:103B70009FEFDC018093570290935802A093590263
:103B8000B0935A0278947FD31E830D83C12CD12C1D
:103B90007601C501B0E0A0E089839A83AB83BC8342
:103BA00022242A94322C89819A81AB81BC81C81647
:103BB000D906EA06FB06F4F0C801A1D480E40E940D
:103BC0005310892D26960FB6F894DEBF0FBECDBFD9
:103BD000DF91CF911F910F91FF90EF90DF90CF90E9
:103BE000BF90AF909F907F906F905F904F903F906D
:103BF0002F900895AD81BE8115968D919C91169759
:103C000020914D0230914E0282179307D1F45196C4
:103C10008D919C91EED5ED81FE8180819181B12CB9
:103C2000A12C412C512C3201892B89F5BFEFCB1AE5
:103C3000DB0AEB0AFB0AED81FE817396FE83ED83BE
:103C4000B2CFC114D104E104F10429F7892B19F78B
:103C5000ED81FE81818992898F3F980709F029D5EE
:103C6000AD81BE8152963C922E925197D4CF8A0D4F
:103C70009B1DDC018D919C91009709F040D4BFEF12
:103C80004B1A5B0A6B0A7B0AEDE0AE0EB11CAD81EC
:103C9000BE818D919C91119712964C9150E070E0ED
:103CA00060E044165506660677060CF328D4BECFAE
:103CB000CF93DF93EA0128DF811109C082E090E011
:103CC0009983888385EF9FEFDF91CF91089581E0FD
:103CD00090E00E94451081E090E09983888390E015
:103CE00080E0F2CF11DF1092D0031092CF0308953D
:103CF00042E050E062EE72E00C946310FF920F938A
:103D00001F93CF93DF938A01EC01C60FD71FF98071
:103D1000B9D20897F816190671F068F082E090E0C1
:103D2000F801918380838EEF9FEFDF91CF911F91F8
:103D30000F91FF9008956C817D818E819F814B81D1
:103D40000E94F812811108C082E090E0F80191838E
:103D5000808384EF9FEFE9CFF9800E94F3124F2D0B
:103D600050E0BE01685F7F4F0E94393289810E9416
:103D7000621381E090E0F8019183808390E080E01D
:103D8000D4CFDF92EF92FF920F931F93CF93DF93E5
:103D90008A01EC01C60FD71F0E94F3127C01D98063
:103DA00071D2DD2059F0029721E030E0D8161906D3
:103DB00019F010F030E020E0232B79F482E090E05D
:103DC000F801918380838EEF9FEFDF91CF911F9158
:103DD0000F91FF90EF90DF900895EF2841F482E07B
:103DE00090E0F8019183808384EF9FEFEECFF9801C
:103DF0000E94F3124F2D50E0BE016E5F7F4F0E9474
:103E0000393289810E94621381E090E0F801918348
:103E1000808390E080E0D9CF88E79EE19093DA0339
:103E20008093D90308958091D9039091DA0308957E
:103E30000895FC0111821082938382830895DB012F
:103E40001D921C92DC011296ED91FC9113977183E7
:103E5000608313967C936E9312970895FC01808182
:103E60009181DB018D939C93A081B181109741F0EA
:103E70008D919C9191838083892B11F4F383E2834C
:103E80000895FC0180819181DB018D939C93892BA6
:103E900011F473836283718360830895FC0111823E
:103EA0001082938382830895CF93DF931F921F9292
:103EB000CDB7DEB71A821982F894BE016F5F7F4FCB
:103EC00080EE93E0CBDF89819A81009709F017D3C8
:103ED00089819A81892B89F7BE016F5F7F4F84EEBC
:103EE00093E0BCDF89819A81009709F008D389812A
:103EF0009A81892B89F778940F900F90DF91CF9159
:103F00000895CF93DF931F921F92CDB7DEB71A8229
:103F10001982F894BE016F5F7F4F8CED93E09EDFB6
:103F200089819A81009709F0EAD289819A81892B47
:103F300089F778940F900F90DF91CF91089581E0E9
:103F4000089590E080E00895EF92FF920F931F9301
:103F5000CF93DF931F921F92CDB7DEB71A821982DB
:103F60008091DB0307EF1FEF8823A1F1F894BE01D6
:103F70006F5F7F4F84EE93E071DF789489819A813F
:103F8000EE24E394F12C892B51F4F894BE016F5F79
:103F90007F4F80EE93E062DF7894F12CE12C8981F1
:103FA0009A810EEF1FEF0097A9F0FC014281538127
:103FB00064E070E074D68C01892B61F0F89469811B
:103FC0007A81C701880F991F880F991F80529C4FD3
:103FD00058DF7894C8010F900F90DF91CF911F9117
:103FE0000F91FF90EF9008950F931F93CF93DF935E
:103FF00000D01F92CDB7DEB71C821B821A821982B5
:104000008091DB0307EF1FEF8823C1F0AE014D5F06
:104010005F4F64E070E0CE010196B4D68C01892B2D
:1040200069F4E981FA818B819C8193838283F8947E
:1040300069817A818CED93E002DF7894C8010F905A
:104040000F900F900F90DF91CF911F910F910895D6
:10405000B9D7049608958F929F92AF92BF92CF9254
:10406000DF92EF92FF920F931F93CF93DF931F92F4
:104070001F92CDB7DEB71A821982BC016F5F7F4FE6
:104080006330710598F0AA24AA94BA2CC5010F9048
:104090000F90DF91CF911F910F91FF90EF90DF90E4
:1040A000CF90BF90AF909F908F900895411551058C
:1040B00051F3480159018A016C01CADF881599053D
:1040C00011F7E114F104F9F28E0D9F1DA816B9063F
:1040D000D0F28091DB038823F1F0F894B5016450AD
:1040E00071099701AE014F5F5F4FC8010496DFD69B
:1040F0005C01892B71F489819A81F8019383828311
:10410000C601880F991F880F991FB80180529C4FD4
:1041100096DE7894BBCF87EFA82EBB24BA94B6CF97
:10412000AF92BF92CF92DF92EF92FF920F931F93C5
:10413000CF93DF931F921F92CDB7DEB71A821982F9
:10414000892B09F047C06115710509F443C0411579
:10415000510509F43FC02115310509F43BC0011593
:104160001105C1F18091DB038823B9F179016A015E
:104170005B01F894BE016F5F7F4F8CED93E06EDEC4
:10418000789489819A81009759F1DC0112966D919A
:104190007C91A8010496A4D68C01E981FA81D5010D
:1041A000ED93FC93828193810496F6019183808341
:1041B0004FDFD7018D939C93C8010F900F90DF9133
:1041C000CF911F910F91FF90EF90DF90CF90BF9014
:1041D000AF9008950FEF1FEFEFCF07EF1FEFECCF7A
:1041E0000EEF1FEFE9CFCF93DF93EC01672B71F454
:1041F000F2D68C179D0760F0E5D62496C80FD91F1C
:10420000E4D68C0F9D1FDF91CF910895E1D6F1CFB9
:1042100090E080E0F8CF0F931F93CF93DF9320912E
:10422000DB0321112BC08B01EC0180EE93E001DE5A
:1042300084EE93E0FEDD8CED93E0FBDD97D00097FC
:10424000C1F4C9D670E060E0CEDF4BE552E062E039
:1042500070E081D1009769F480915B0290915C02DB
:10426000CCD6B801CE0101D5009719F421E02093F6
:10427000DB03DF91CF911F910F91089584EF9FEFA2
:10428000F8CFA6C6A8C6CF93DF93A8D6EC01892B9A
:1042900011F40ADE36DECE01DF91CF910895CF937F
:1042A000DF939CD6EC01892B09F4FEDDCE01DF9172
:1042B000CF91089580915B0290915C020895CF9315
:1042C000DF938091DB03D0E0C0E08823D1F09AD661
:1042D000EC01892BB1F4E8DD14DE80915B02909152
:1042E0005C02E7D1E8D2EC01892B59F480EE93E02F
:1042F000D5DD84EE93E0D2DD8CED93E0CFDD10923E
:10430000DB03CE01DF91CF910895EF92FF920F93DF
:104310001F93CF93DF93EC017A018B010F5F1F4F47
:104320000E9DA0010F9D500D1E9D500D112470E09B
:1043300060E00E94423290E080E0F0E0E0E02FEFA9
:10434000E816F90639F4DF91CF911F910F91FF9094
:10435000EF9008951A8219822883309711F0D28342
:10436000C1830196FE01C00FD11FEACFCF92DF9229
:10437000EF92FF920F931F93CF93DF9301E415E029
:104380000C7F43E050E06DE572E083E692E01AD4E2
:104390008DE5E82E82E0F82E93E6C92E92E0D92E24
:1043A000C0EDD5E0D7014D915D917D01F6016191A0
:1043B00071916F01198308835D834C835B834A830A
:1043C0007F836E839B012F5F3F4F249FC001259FFA
:1043D000900D349F900D1124998788870115110540
:1043E00011F0C80192DF88859985080F191F2A9658
:1043F000F3E6EF16F2E0FF06A9F6EAEEF3E084E555
:1044000091E0DF019C011D9221503040E1F71092B4
:10441000E9031092E8031092EF051092EE05109256
:10442000F3051092F2051092F1051092F00510922A
:10443000F5051092F4051092F7051092F60510920A
:10444000F9051092F8051092FD051092FC051092E6
:10445000FB051092FA051092FF051092FE051092CE
:104460000106109200061092CD051092CC05109214
:10447000CF051092CE0590E080E0DF91CF911F91A3
:104480000F91FF90EF90DF90CF9008950097F1F09B
:10449000F894A3E6B2E0E0EDF5E030E020E04D91E5
:1044A0005D9148175907A8F0428153814115510584
:1044B00081F08AE0829FF001839FF00D1124E05388
:1044C000FA4F80819181009759F4789490E080E0D0
:1044D00008952F5F3F4F3A962330310501F7F5CF0E
:1044E000DC0111966D917C9171836083415051097B
:1044F00053834283FC012193CF0178940895009760
:1045000049F1DC018E91853041F4E091CE05F091C6
:10451000CF053097F9F0CD0119948530D8F4282FC4
:1045200030E0F8948FEF8C938AE0829FF001839FB4
:10453000F00D1124E053FA4F8081918112969C93E3
:104540008E931197B183A083828193810196938387
:10455000828378940895CF92DF92EF92FF920F9327
:104560001F93CF93DF939C018DEE93E08C7F4115D9
:10457000510509F49BC02115310509F497C0611557
:10458000710509F493C07A01AB01B9016D5F7F4FEA
:104590006C7F9B012F5F3F4F249F8001259F100D53
:1045A000349F100D1124F8942091EE053091EF0501
:1045B000232B59F42091F6053091F705211531058B
:1045C00069F12017310708F058C02091F8053091A3
:1045D000F905232B91F42091F6053091F705820F10
:1045E000931F20910006309101062115310509F431
:1045F00041C02017310708F056C07894CFEFDFEFA5
:1046000086EF9FEFF701D183C083DF91CF911F9198
:104610000F91FF90EF90DF90CF900895C3E0D0E02E
:10462000C090E803D090E90321E531E02C193D0961
:104630002017310710F32AE02C9FF0012D9FF00D79
:104640001124E053FA4F918380835583448353832D
:1046500042837783668311870087009709F055DED0
:104660000C0D1D1D1093E9030093E803789490E06E
:1046700080E0C8CFC4E0D0E0D3CFC3E0D0E02AE0F0
:104680002C9FF0012D9FF00D1124E053FA4F9183E0
:104690008083558344835383428377836683009763
:1046A00029F333DEE3CFC4E0D0E0E9CF8FEF9FEF13
:1046B000ACCF9C010397029708F069C0F89484E09E
:1046C0009AE0482F50E0241735070CF44DC091E0D4
:1046D0008AE0829FF001839FF00D1124E053FA4F8E
:1046E000118210821582148213821282178216821E
:1046F0009923B1F18091EE059091EF05892BA9F4F2
:104700002091F6053091F7052115310571F0809162
:10471000E8039091E903821B930B9093E903809344
:10472000E8031092F7051092F6058091F805909134
:10473000F905892BA9F42091000630910106211575
:10474000310571F08091E8039091E903821B930B8E
:104750009093E9038093E8031092010610920006FB
:10476000789490E080E00895949FF001959FF00D7B
:104770001124E053FA4F40815181452B31F440859B
:104780005185452B11F481509CCF90E0A1CF8FEF44
:104790009FEF08954115510549F1009739F16115D1
:1047A000710521F1F8942091CC053091CD05232B92
:1047B000B9F42091CE053091CF05232B89F4909345
:1047C000CD058093CC057093CF056093CE0578948A
:1047D00025E030E090E080E0FA0131832083089505
:1047E00078942FEF3FEF86EF9FEFF6CF8FEF9FEF9D
:1047F0000895059769F4F8941092CD051092CC05B0
:104800001092CF051092CE05789490E080E0089544
:104810008FEF9FEF08956115710519F4F0E0E0E066
:1048200011C08530910581F4E091CC05F091CD0562
:104830003097A1F3CB0101961995009779F3FC010C
:1048400085E08193CF0108959C01235031092230E6
:10485000310520F72AE0289FD001299FB00D1124AF
:10486000A053BA4F2D913C911197232BB9F2169674
:104870002D913C9117972617370780F2F8941296DE
:104880002D913C9113972115310529F0ED91FC9163
:104890001197309711F47894C1CF418152811196CC
:1048A0005C934E932150310913963C932E931297AB
:1048B00081937894C7CFEEE3F5E08EE8DF011D9297
:1048C0008A95E9F7EAEEF3E084E591E0DF019C01E7
:1048D0001D9221503040E1F71092E9031092E80355
:1048E000E0EDF5E082E3DF011D928A95E9F7ECEC5B
:1048F000F5E084E0DF011D928A95E9F790E080E021
:104900000895CF93DF93C0916902D0916A02CF3F9F
:10491000DC0759F420D490936A028093690297FFD0
:1049200009C0D0936A02C093690284EF9FEFDF91C0
:10493000CF91089590E080E0FACF8230910528F47D
:104940008093020690E080E008958FEF9FEF089536
:104950004F925F926F927F92AF92BF92CF92DF920F
:10496000EF92FF920F931F93CF93DF931F921F92AB
:10497000CDB7DEB71A821982009709F478C06115A5
:10498000710509F474C02091690230916A0207EF41
:104990001FEF2F3F3F4F09F444C06B015C01412CD6
:1049A000512C3201F12CE12C10E000E09E012F5F30
:1049B0003F4FA6014E195F09B5016E0D7F1D809115
:1049C000690290916A0226D4892B09F04AC0898134
:1049D0009A81009741F4E114F10429F42091020630
:1049E000222309F441C0E80EF91EEC14FD04C8F4BA
:1049F00080E8481684E858068EE16806710418F5C8
:104A000060E070E0CB010CD72AE0420E511C611C23
:104A1000711C0A3F4FEF140721F0043F8FEF180776
:104A2000A1F4C8010F900F90DF91CF911F910F91CA
:104A3000FF90EF90DF90CF90BF90AF907F906F90FE
:104A40005F904F90089501EF1FEF81E090E0013FEC
:104A50002FEF120711F090E080E0892B09F4A6CF28
:104A6000E0CF04EF1FEFDDCF0AEF1FEFDACF0FEF3C
:104A70001FEFD7CF4F925F926F927F92AF92BF920C
:104A8000CF92DF92EF92FF920F931F93CF93DF931A
:104A90001F921F92CDB7DEB71A821982009709F4D0
:104AA00078C06115710509F474C0209169023091D4
:104AB0006A0207EF1FEF2F3F3F4F09F444C06B011D
:104AC0005C01412C512C3201F12CE12C10E000E072
:104AD0009E012F5F3F4FA6014E195F09B5016E0D74
:104AE0007F1D8091690290916A024AD3892B09F057
:104AF0004AC089819A81009741F4E114F10429F4B4
:104B000020910206222309F441C0E80EF91EEC149C
:104B1000FD04C8F480E4481682E458068FE0680675
:104B2000710418F560E070E0CB017AD62AE0420EFD
:104B3000511C611C711C0E3F4FEF140721F0043F04
:104B40008FEF1807A1F4C8010F900F90DF91CF915C
:104B50001F910F91FF90EF90DF90CF90BF90AF909B
:104B60007F906F905F904F90089502EF1FEF81E06C
:104B700090E0023F2FEF120711F090E080E0892BC8
:104B800009F4A6CFE0CF04EF1FEFDDCF0EEF1FEF4C
:104B9000DACF0FEF1FEFD7CF8091690290916A02B1
:104BA0008F3F980749F0CFD2892B49F48FEF9FEFC1
:104BB00090936A028093690290E080E0089584EF08
:104BC0009FEF0895CF92DF92EF92FF920F931F9382
:104BD000CF93DF9321E04115510509F020E04150CA
:104BE000510921112CC0DC01FB01D12CC12C21E089
:104BF00022C03FEFC31AD30A7D010D911D91E70139
:104C0000EA80FB80E016F106A8F420813181E28081
:104C1000F380F182E08233832283ED90FC90119740
:104C20009D0122503109E901F982E88211961C9315
:104C30000E9320E03296C416D506D8F2D2CFDF917B
:104C4000CF911F910F91FF90EF90DF90CF9008953B
:104C5000FC01680F791F90E080E0E617F70709F480
:104C600008952191820F911DF8CF20910306211103
:104C700013C047DE009791F41092090610920806BF
:104C8000109207061092060610920506109204066E
:104C900021E020930306089584EF9FEF0895AF92DB
:104CA000BF92CF92DF92EF92FF920F931F93CF9319
:104CB000DF93009709F460C04630510508F45CC0EA
:104CC00020910306C7EFDFEF222309F449C08C01CE
:104CD000060F171FF801C080D180C114D10409F458
:104CE0004EC096012A5F3F4F4217530708F447C052
:104CF0007C01809108069091090693838283B60116
:104D00006C5F7F4F5801A60EB71EC801A1DFF501E9
:104D10009183808364E070E0C8011ADEEC01892B86
:104D2000F9F481E090E009DEB601C801049610DED6
:104D3000EC01892B91F462E070E0C50109DEEC0121
:104D4000892B59F4C701DBDB809108069091090695
:104D50000196909309068093080690E080E0EDDDCF
:104D6000CE01DF91CF911F910F91FF90EF90DF90D7
:104D7000CF90BF90AF900895CFEFDFEFF1CFC9EFA5
:104D8000DFEFEECF6F927F928F929F92AF92BF92A2
:104D9000CF92DF92EF92FF920F931F93CF93DF9307
:104DA00000D01F92CDB7DEB7009709F47AC0411545
:104DB000510509F476C02091030607EF1FEF222367
:104DC00009F44DC03A017B015C0164E070E0CE0162
:104DD000019650DE8C01892B09F041C009811A81AE
:104DE0000115110509F45AC0480186E0880E911C8E
:104DF000B701680D791D80916B0290916C020BDDFB
:104E00006C01009709F450C0A70170E060E00E94B7
:104E1000423289819A81AB81BC81EC0CFD1CF70187
:104E200081939193A193B1937F0181E090E085DD1F
:104E3000B801C7011FDE892B31F562E070E0C701C0
:104E4000800F911F17DE8C01892BE9F490E080E040
:104E500074DDF501D182C082F30191828082C801A4
:104E60000F900F900F900F90DF91CF911F910F91A6
:104E7000FF90EF90DF90CF90BF90AF909F908F907A
:104E80007F906F90089590E080E057DDF5011182EA
:104E90001082F30111821082C60131DB09EF1FEF8E
:104EA000DECF0FEF1FEFDBCF06EF1FEFD8CF00975E
:104EB000A1F04115510589F02115310571F0F90175
:104EC00036966E177F0748F0DC012D933C93DA018C
:104ED000ED93FC9390E080E008958FEF9FEF0895AD
:104EE000AF92BF92CF92DF92EF92FF920F931F93F8
:104EF000CF93DF93009709F45FC04115510509F482
:104F00005BC06530710508F457C020910306C7EFF8
:104F1000DFEF222391F1DC01CD90DC901197129606
:104F2000ED91FC9196012A5F3F4FC9EFDFEF261705
:104F3000370719F5C0910406D0910506209749F569
:104F400021E030E030930506209304067A018C01BD
:104F5000F0930706E09306065601B4E0AB0EB11CD1
:104F6000B50176DE0A0D1B1DF80120813181821703
:104F7000930729F5D701CD92DC92CE01DF91CF9135
:104F80001F910F91FF90EF90DF90CF90BF90AF9067
:104F9000089520910606309107062F5F3F4FCCEF12
:104FA000DFEFE217F30790F2CBEFDFEF2E173F07AB
:104FB00068F2D0E0C0E0CACFCFEFDFEFDECFC3EFC3
:104FC000DFEFDBCF84E090E0089582E090E0089589
:104FD0008CEF9FEF089580E290E00895109209060B
:104FE0001092080610920706109206061092050607
:104FF0001092040690E080E0089590936C028093F4
:105000006B02089580910306882391F0C5DD009717
:1050100089F4109209061092080610920706109261
:1050200006061092050610920406109203060895D3
:1050300090E080E00895009749F06115710531F026
:10504000FC0111821082FB01118210820895F3CFBE
:1050500026E030E040E855E260E070E090E080E07B
:1050600000C08130910569F01CF4892B39F0089556
:105070008230910549F0039751F0089587E196E059
:10508000D4C684EB96E0FCCF81E597E0F9CF8EEEB5
:1050900097E0F6CF1F920F920FB60F9211240BB626
:1050A0000F922F933F934F935F936F937F938F93C1
:1050B0009F93AF93BF93EF93FF9387EF92EC9093FF
:1050C000250180932401BAD0FF91EF91BF91AF9158
:1050D0009F918F917F916F915F914F913F912F9110
:1050E0000F900BBE0F900FBE0F901F90189587EF7B
:1050F00092EC9093250180932401A3E7B0E08C917A
:105100008E7F8C93E0E2F1E080818C7F8083E1E20E
:10511000F1E08081877E80838081856080838081CB
:105120008D7F80838C9181608C930895E3E7F0E01C
:10513000808190819E7F90838170089581E00895A1
:1051400010920A06089568EE73E080E090E068D35C
:1051500090E080E0089526E030E040E050E16EE02D
:1051600070E090E080E07DDF87E196E094D5892BC8
:1051700021F087E196E0A9D5F7CF90E080E008958F
:10518000CF92DF92EF92FF920F931F93CF93DF9313
:105190006B017A01E9011982188287E196E07BD5DB
:1051A000892B69F18601CC24C39482E0D82E8091AA
:1051B0000A06811110C087E196E087D50297B9F7FA
:1051C000C0920A06F801D1928F01888199810196D7
:1051D00099838883ECCF888199818E159F0578F417
:1051E00087E196E072D58F3F9807A9F3F801819384
:1051F0008F0188819981019699838883ECCF90E013
:1052000080E0DF91CF911F910F91FF90EF90DF90A1
:10521000CF9008950F931F93CF93DF93EA018901F5
:1052200087E196E00E94A531F801D183C08390E028
:1052300080E0DF91CF911F910F910895CF92DF927F
:10524000EF92FF92CF93DF9380910B0691E0980F3E
:1052500090930B06882379F021E030E030930D061F
:1052600020930C0680930B06DF91CF91FF90EF9077
:10527000DF90CF9008957894C0916E02D0916F0224
:105280006E8D7F8D88A199A143D120E030E040E868
:105290005FE4F4D16B017C016A8D7B8D8C8D9D8DDB
:1052A00037D19B01AC01C701B60199D005D16B0183
:1052B0007C010E94DF04B701A60190E080E00E941B
:1052C0005104F89480910B068150CCCF0F931F931B
:1052D000CF93DF931092F3081092F208D7D2B8DE82
:1052E000C0916E02D0916F02198218826FEF7FEF2A
:1052F000CB010E94D40470E060E090E080E00E9466
:105300005403009709F03AC00E941A08F894789460
:10531000BE016A5D7F4F8A819B810E945703892B62
:1053200059F46FEF7FEFCB010E94E7030E94CE0498
:10533000882311F081E08AA7F894D9DE0E94D10475
:10534000882311F080E008C00E94CE048111FACFBA
:1053500081E09AA59111F6CF8093F20878940E948B
:1053600040108C0178948091F20881110CC00E9449
:1053700032090E94B304F89490E080E0DF91CF916D
:105380001F910F9108950E94B1040E94D1048823B7
:10539000D9F081E08093F3089091F30881E09111B6
:1053A00080E08093F2088091F3088111BFDE013024
:1053B000110529F40E944010892B09F4C1DE0E94D6
:1053C00040108C01BBDECFCF0E94CE048111E1CF13
:1053D00081E09AA59111DECF80E0DCCF5058BB2749
:1053E000AA270ED00DC1FED030F003D120F031F449
:1053F0009F3F11F41EF4F3C00EF4E095E7FBE9C003
:10540000E92F0FD180F3BA17620773078407950756
:1054100018F071F49EF527C10EF4E0950B2EBA2F0B
:10542000A02D0B01B90190010C01CA01A0011124AA
:10543000FF27591B99F0593F50F4503E68F11A1656
:10544000F040A22F232F342F4427585FF3CF4695E7
:1054500037952795A795F0405395C9F77EF41F1609
:10546000BA0B620B730B840BBAF09150A1F0FF0FD3
:10547000BB1F661F771F881FC2F70EC0BA0F621FBF
:10548000731F841F48F4879577956795B795F795AF
:105490009E3F08F0B3CF9395880F08F09927EE0F41
:1054A00097958795089571D008F481E0089504D008
:1054B0006894B111D9C00895BCD088F09F5790F07E
:1054C000B92F9927B751A0F0D1F0660F771F881F29
:1054D000991F1AF0BA95C9F712C0B13081F0C3D044
:1054E000B1E00895C0C0672F782F8827B85F39F0E2
:1054F000B93FCCF3869577956795B395D9F73EF488
:1055000090958095709561957F4F8F4F9F4F08952F
:10551000E89409C097FB3EF490958095709561954D
:105520007F4F8F4F9F4F9923A9F0F92F96E9BB2703
:105530009395F695879577956795B795F111F8CF7F
:10554000FAF4BB0F11F460FF1BC06F5F7F4F8F4FEA
:105550009F4F16C0882311F096E911C0772321F0E0
:105560009EE8872F762F05C0662371F096E8862F78
:1055700070E060E02AF09A95660F771F881FDAF7CF
:10558000880F9695879597F90895990F0008550FFC
:10559000AA0BE0E8FEEF16161706E807F907C0F0B9
:1055A00012161306E407F50798F0621B730B840BC1
:1055B000950B39F40A2661F0232B242B252B21F49B
:1055C00008950A2609F4A140A6958FEF811D811D3B
:1055D000089597F99F6780E870E060E008959FEF75
:1055E00080EC089500240A9416161706180609067A
:1055F000089500240A941216130614060506089549
:10560000092E0394000C11F4882352F0BB0F40F4D0
:10561000BF2B11F460FF04C06F5F7F4F8F4F9F4F10
:10562000089557FD9058440F551F59F05F3F71F092
:105630004795880F97FB991F61F09F3F79F08795F9
:105640000895121613061406551FF2CF4695F1DF82
:1056500008C0161617061806991FF1CF8695710512
:10566000610508940895E894BB2766277727CB0146
:1056700097F908958ADF08F48FEF08950BD0C0CF13
:10568000B1DF28F0B6DF18F0952309F0A2CFA7CF3D
:105690001124EACFC6DFA0F3959FD1F3950F50E018
:1056A000551F629FF001729FBB27F00DB11D639FD4
:1056B000AA27F00DB11DAA1F649F6627B00DA11D7A
:1056C000661F829F2227B00DA11D621F739FB00D20
:1056D000A11D621F839FA00D611D221F749F332790
:1056E000A00D611D231F849F600D211D822F762F29
:1056F0006A2F11249F5750408AF0E1F088234AF026
:10570000EE0FFF1FBB1F661F771F881F9150504071
:10571000A9F79E3F510570F05CCFA6CF5F3FECF339
:10572000983EDCF3869577956795B795F795E7955D
:105730009F5FC1F7FE2B880F911D9695879597F96E
:1057400008951F920F920FB60F9211242F933F933B
:105750008F939F93AF93BF9380910F069091100604
:10576000A0911106B091120630910E0623E0230F8E
:105770002D3758F50196A11DB11D20930E0680937B
:105780000F0690931006A0931106B0931206809115
:10579000130690911406A0911506B0911606019675
:1057A000A11DB11D8093130690931406A0931506B6
:1057B000B0931606BF91AF919F918F913F912F911A
:1057C0000F900FBE0F901F90189526E8230F02969A
:1057D000A11DB11DD2CF3FB7F894809113069091CF
:1057E0001406A0911506B091160626B5A89B05C013
:1057F0002F3F19F00196A11DB11D3FBFBA2FA92F50
:10580000982F8827BC01CD01620F711D811D911D4C
:1058100042E0660F771F881F991F4A95D1F70895B8
:105820008F929F92AF92BF92CF92DF92EF92FF92B0
:105830006B017C01D0DF4B015C01C114D104E10498
:10584000F104D9F0AFD5C7DF681979098A099B0936
:10585000683E73408105910580F321E0C21AD108AA
:10586000E108F10888EE880E83E0981EA11CB11CA7
:10587000C114D104E104F10431F7FF90EF90DF90FF
:10588000CF90BF90AF909F908F900895789484B5FB
:10589000826084BD84B5816084BD85B5826085BD2C
:1058A00085B5816085BDEEE6F0E080818160808312
:1058B000E1E8F0E0108280818260808380818160F5
:1058C0008083E0E8F0E0808181608083E1EBF0E0BC
:1058D000808184608083E0EBF0E080818160808360
:1058E000E1E9F0E080818260808380818160808353
:1058F000E0E9F0E0808181608083E1EAF0E080818E
:1059000082608083808181608083E0EAF0E0808132
:1059100081608083E1E2F1E0808182608083808128
:1059200081608083E0E2F1E0808181608083EAE74A
:10593000F0E08081846080838081826080838081C8
:10594000816080838081806880831092C100089587
:105950001F93CF93DF93182FEB0161E033D1209792
:1059600031F460E0812FDF91CF911F9167C1CF3F6C
:10597000D10511F461E0F6CFE12FF0E0EC51FF4FDB
:10598000E491E150E23108F0B2C0F0E08827E5533D
:10599000F34D8F4F4DC5DD2CE52CEA2CF42CFE2C5D
:1059A000772D082D102D182D222D2C2D362D452D1F
:1059B0004F2D772D592D632D6D2D84B5806884BDB5
:1059C000C7BDDF91CF911F91089584B5806284BDDA
:1059D000C8BDF7CF80918000806880938000D0930D
:1059E0008900C0938800EDCF809180008062809311
:1059F0008000D0938B00C0938A00E3CF8091800019
:105A0000886080938000D0938D00C0938C00D9CFA4
:105A10008091B00080688093B000C093B300D1CF74
:105A20008091B00080628093B000C093B400C9CF71
:105A300080919000806880939000D0939900C093EB
:105A40009800BFCF80919000806280939000D093A7
:105A50009B00C0939A00B5CF80919000886080939E
:105A60009000D0939D00C0939C00ABCF8091A0008C
:105A700080688093A0008091A0008F7B8093A0001D
:105A8000D093A900C093A8009CCF8091A000806211
:105A90008093A000D093AB00C093AA0092CF8091D6
:105AA000A00088608093A000D093AD00C093AC00AC
:105AB00088CF80912001806880932001D0932901B4
:105AC000C09328017ECF80912001806280932001C5
:105AD000D0932B01C0932A0174CF8091200188605C
