:10000000F8C0000027C1000025C1000023C1000086
:1000100021C100001FC100001DC100001BC1000064
:1000200019C1000017C1000015C1000013C1000074
:1000300011C100000FC100000DC100000BC1000084
:1000400009C1000007C1000005C1000003C1000094
:1000500001C10000FFC00000FDC000000C94AE0B09
:10006000F9C000000C944A0F0C94800FF3C00000FC
:10007000F1C00000EFC00000EDC00000EBC00000C8
:10008000E9C00000E7C00000E5C00000E3C00000D8
:100090000C94D60F0C940C10DDC00000DBC00000E7
:1000A000D9C00000D7C00000D5C00000D3C00000F8
:1000B000D1C00000CFC00000CDC00000CBC0000008
:1000C000C9C00000C7C000000C945E090C94621007
:1000D0000C949810BFC000000C94EE100C942411E6
:1000E000B9C0000000000A0B02090C0D0E0807033E
:1000F00004010000000000000000000000000000FB
:1001000000000000000000000000000000000000EF
:1001100012111000000000000000000000000000AC
:100120000000000000000000000001021020200874
:100130000810204010204080020102010804020142
:1001400001020408102040808040201008040201B1
:10015000800402018040201008040201080402010A
:100160000102040810204080010204081020408091
:1001700005050505070508080808020202020A0A23
:100180000808040404040101010101010101030341
:10019000030303030303040707070C0C0C0C0C0CEC
:1001A0000C0C0202020206060606060606060B0BE9
:1001B0000B0B0B0B0B0B00002200250028002B0063
:1001C0002E003100340002010000050108010B017E
:1001D00000002100240027002A002D0030003300F9
:1001E00001010000040107010A01A90F3510C11027
:1001F0004D1111241FBECFEFD1E2DEBFCDBF00E015
:100200000CBF12E0A0E0B2E0E4ECF3E200E00BBFD0
:1002100002C007900D92A836B107D9F725E0A8E6ED
:10022000B2E001C01D92A637B207E1F710E0C9EFB6
:10023000D0E000E006C021970109802FFE010E9456
:10024000C911C53FD10780E00807A9F70E94C4097A
:100250000C94E011D5CECF93DF93882349F0EB01C6
:1002600081500E945A0C99838883DF91CF91089521
:10027000FB0111821082F9CF0F931F938B019C0118
:1002800083E036952795179507958A95D1F70F58EE
:100290001D4F462F477021E030E0F90102C0EE0FFC
:1002A000FF1F4A95E2F7AF01F80120812423CB011B
:1002B0000196211102C090E080E01F910F910895F6
:1002C0000F931F938B019C0183E03695279517951B
:1002D00007958A95D1F7677081E090E001C0880F9B
:1002E0006A95EAF7F801EF58FD4F2081452B31F46C
:1002F0008095822380831F910F910895822BFACFDE
:10030000CF92DF92EF92FF92CF93DF936B017C014C
:1003100060E086E3C816D104E104F10490F486E3BA
:100320008C0D0E94B70DE6012196AE01C701B60102
:10033000C7DFCE01DF91CF91FF90EF90DF90CF909C
:1003400008958C2DEECF882341F08150682F70E006
:1003500090E080E050E040E0B3CF0895CF92DF928C
:10036000EF92FF92CF93882351F16A017B01CFEF87
:10037000C80F20E030E0A901CB01B6010E94600A5D
:1003800018168CF0C701B60190580E94690A9B01AB
:10039000AC016C2F70E090E080E0CF91FF90EF9087
:1003A000DF90CF90B2C0C701B6010E94640A8C2FC3
:1003B000CF91FF90EF90DF90CF900C947D0CCF9178
:1003C000FF90EF90DF90CF9008950F931F938B01D4
:1003D0009C0183E036952795179507958A95D1F767
:1003E00008591D4F462F477021E030E0F90102C047
:1003F000EE0FFF1F4A95E2F7AF01F8012081242399
:10040000CB010196211102C090E080E01F910F9175
:1004100008950F931F938B019C0183E036952795D8
:10042000179507958A95D1F7677081E090E001C034
:10043000880F6A95EAF7F801E859FD4F2081452BAE
:1004400031F48095822380831F910F910895822B30
:10045000FACF2F923F924F925F926F927F928F923C
:100460009F92AF92BF92CF92DF92EF92FF920F9343
:100470001F93CF93DF93D62EC72E782E692E490176
:100480005A01280161E08D2D0E94B70DCD2DDC2D84
:100490008E010F5F1F4FA8016D2D7C2D872D962D8E
:1004A000B8DF20E030E0A901C201B7010E94470B8C
:1004B000181664F4C201B7010E94690A2B01C50134
:1004C000B4010E94690AA201CE0123D0C801DF91C4
:1004D000CF911F910F91FF90EF90DF90CF90BF9041
:1004E000AF909F908F907F906F905F904F903F90D4
:1004F0002F900895882341F08150682F70E090E09C
:1005000080E050E040E085CF0895862FB9010C943B
:100510007D0C9C01FC01EC51FF4FE491E150E23174
:10052000E0F4F0E08827E856FD4F8F4F0C94C91196
:10053000AA02B102B402CB02E002AD02F50201034D
:1005400005031C03310346035D037203AD028703F9
:100550009E03B30384B5806884BD60E0822F0C9451
:10056000F30D84B58062F8CF809180008C7F82602B
:100570008093800080918100807E8061682B6093F1
:1005800081005093870040938600809180008068AE
:1005900080938000E2CF809180008C7F8260809386
:1005A000800080918100807E8061682B6093810053
:1005B0005093870040938600809180008062E8CF4E
:1005C000809180008C7F8260809380008091810088
:1005D000807E8061682B60938100509387004093F8
:1005E0008600809180008860D3CF8091B0008068C1
:1005F0008093B0008091B100887F682B6093B10038
:10060000ACCF8091B0008062F3CF809190008C7F5E
:1006100082608093900080919100807E8061682B41
:1006200060939100509397004093960080919000C2
:1006300080688093900091CF809190008C7F826041
:100640008093900080919100807E8061682B609300
:1006500091005093970040939600809190008062A3
:10066000E8CF809190008C7F826080939000809191
:100670009100807E8061682B609391005093970079
:1006800040939600809190008860D3CF8091A00025
:100690008C7F82608093A0008091A100807E806129
:1006A000682B6093A1005093A7004093A60080910F
:1006B000A00080688093A00050CF8091A0008C7F24
:1006C00082608093A0008091A100807E8061682B71
:1006D0006093A1005093A7004093A6008091A000D2
:1006E0008062E8CF8091A0008C7F82608093A00020
:1006F0008091A100807E8061682B6093A10050935F
:10070000A7004093A6008091A0008860D3CF80917D
:1007100020018C7F82608093200180912101807E66
:100720008061682B6093210150932701409326013B
:10073000809120018068809320010FCF809120015B
:100740008C7F82608093200180912101807E806176
:10075000682B6093210150932701409326018091DB
:1007600020018062E8CF809120018C7F826080939D
:10077000200180912101807E8061682B609321019E
:100780005093270140932601809120018860D3CFA8
:10079000611102C00C94B70D6130E1F362E0FACF51
:1007A000662319F061E00C94F30D60E0FCCF2F920A
:1007B0003F924F925F926F927F928F929F92AF92F1
:1007C000BF92CF92DF92EF92FF920F931F93CF933E
:1007D000DF9300D000D000D01F921F92CDB7DEB7BC
:1007E000C0900802D0900902E0900A02F0900B023B
:1007F000A701960160911005709111058091120575
:10080000909113055DD6882341F0C0921005D092D7
:100810001105E0921205F092130567E370E080E0A5
:1008200090E02ADD90930F0580930E0543E050E0A1
:10083000BE016D5F7F4F0FDDC0900C02D0900D02A6
:10084000E0900E02F0900F02A7019601609104055E
:1008500070910505809106059091070531D6882392
:1008600041F0C0920405D0920505E0920605F09291
:10087000070568E370E080E090E0FEDC90930305FC
:100880008093020543E050E0BE016F5F7F4FE3DCE1
:1008900000914C0210914D02C0901002D0901102B4
:1008A000E0901202F0901302AB81BC8198010E948B
:1008B000D1113BD620E030E040E057E3ECD6A70171
:1008C00096019AD5662E972E882E792EA981BA8107
:1008D00098010E94D11129D620E030E040E057E392
:1008E000DAD6A701960188D5162F072FF82EE92E04
:1008F000A0900002B0900102C0900202D0900302CA
:1009000020900402309005024090060250900702A9
:1009100021E02D83262F372F482F592FC201B101F7
:10092000B6D618160CF01D8281E04D8148274D8304
:10093000262D392D482D572DC601B501A8D61816DC
:100940000CF467C28D812091510230E0882309F4B4
:1009500062C28091500290E0880F991F5D815F8391
:1009600030E020E0AC01420F531F59874887262D05
:10097000392D482D572DC601B50189D618160CF012
:100980001DC2212F302F4F2D5E2DC201B1017FD608
:1009900018160CF013C220904E0258E0259E10014C
:1009A000112488859985280E391E9D812F819217E3
:1009B00009F407C280914F0244E0849FC0011124D2
:1009C000280E391E73E0369427947A95E1F7522D5C
:1009D00052955F705A8722942694E7E02E22822D4A
:1009E00081708B87312CA101569547955E834D838D
:1009F000A0901402B0901502C0901602D090170279
:100A0000212F302F4F2D5E2DB501C60159D587FD01
:100A1000DBC1509018024090190250911A025F8376
:100A200080911B028887212F302F4F2D5E2D652D41
:100A3000742D8F8198852BD618161CF48201FF80A7
:100A4000E884262D392D482D572DB501C60138D5FE
:100A500087FD15C0A0901802B0901902C0901A022C
:100A6000D0901B02262D392D482D572DB501C601DA
:100A70000ED6181624F0A62CB92CC82CD72C65E05D
:100A800070E080E090E0A1DC4C019093330580930E
:100A9000320540901C0250901D0260901E02709022
:100AA0001F029501A601C301B2010AD587FD11C03D
:100AB0004090200250902102609022027090230208
:100AC0009501A601C301B201E2D5181614F0250163
:100AD0003601E89477F820E030E04FE753E4C301B3
:100AE000B201EED4181634F4412C512C6FE7662E67
:100AF00063E4762EB301A201C40130DC66E070E04D
:100B000080E090E062DC4C0190932B0580932A05F5
:100B10004090240250902502609026027090270297
:100B2000212F302F4F2D5E2DC301B201C9D487FD77
:100B300015C0409028025090290260902A027090BF
:100B40002B02212F302F4F2D5E2DC301B2019FD5D7
:100B5000181624F0412E502E6F2C7E2CE89477F836
:100B600020E030E04FE753E4C301B201A9D41816E6
:100B700034F4412C512C5FE7652E53E4752EB301FC
:100B8000A201C401EBDB64E070E080E090E01DDCDA
:100B90004C01909323058093220540902C025090A5
:100BA0002D0260902E0270902F029501A601B201D5
:100BB000C30186D487FD11C04090300250903102AD
:100BC00060903202709033029501A601B201C30118
:100BD0005ED5181614F02501360120E030E04FE70D
:100BE00053E4B201C3016CD418160CF4F2C020E037
:100BF00030E0A901B201C3014AD587FF04C0412CEE
:100C0000512C612C712CA201B301C401A7DB67E058
:100C100070E080E090E0D9DB6C0190931B0580933D
:100C20001A058090340290903502A0903602B09060
:100C30003702212F302F4F2D5E2DB401C50140D436
:100C400087FD15C08090380290903902A0903A023A
:100C5000B0903B02212F302F4F2D5E2DB401C501E6
:100C600016D5181624F0812E902EAF2CBE2C20E025
:100C700030E04FE753E4B401C50122D418160CF458
:100C8000AFC020E030E0A901B401C50100D587FF65
:100C900004C0812C912CA12CB12CA401B501C6015A
:100CA0005DDBC0906405D0906505E0906605F0902E
:100CB0006705C701B6013BD42B013C0120914402DA
:100CC000309145024091460250914702F9D387FF87
:100CD0008EC0F7FC8CC080903C0290903D02A090AA
:100CE0003E02B0903F0220E030E040E85FE36091D8
:100CF00040027091410280914202909143027BD365
:100D00009B01AC01C301B201C2D487FD74C0109233
:100D10006405109265051092660510926705369479
:100D200027943694279411E0232841F020E030E006
:100D3000A901C501B401C4D3811110E0F12E2A85A7
:100D400000E020FD012F602F8AE02ADD602F8DE07A
:100D500027DD4B85411101C010E0612F89E020DDC6
:100D6000612F8CE01DDD0D811E81017011275D81D9
:100D700050FF05C091E0F11001C090E0092F602FF5
:100D800088E00EDD602F8BE00BDD2B960FB6F8941C
:100D9000DEBF0FBECDBFDF91CF911F910F91FF90AE
:100DA000EF90DF90CF90BF90AF909F908F907F900B
:100DB0006F905F904F903F902F900895312C212C91
:100DC000F0CD90E080E0FCCD1A2D0B2DFC2CED2C0D
:100DD00038CE412C512C3FE7632E43E4742E13CFC1
:100DE000812C912C9FE7A92E23E4B22E56CF812C83
:100DF000912C540178CF9FEFC91AD90AE90AF90A50
:100E0000C0926405D0926505E0926605F092670590
:100E100086CF30E020E01F8290E080E0A3CD8F926B
:100E20009F92AF92BF92DF92EF92FF920F931F9328
:100E3000CF93DF9310927B0210927A02CCEFD4E032
:100E400088E7FE0111928A95E9F7DD24D394D092C8
:100E5000730500E012E0F80180859185A285B385D5
:100E60008C8B9D8BAE8BBF8B812C912C54018394EA
:100E70008D869E86AF86B88A67E370E080E090E05A
:100E80003FDA9B8B8A8BD98A1882D0927205F8013F
:100E900084859585A685B78588879987AA87BB8726
:100EA00089829A82AB82BC8268E370E080E090E045
:100EB00027DA9F838E83DD8218AAD092710589AAD2
:100EC0009AAAABAABCAAE12CF12C8701A801970130
:100ED00065E070E080E090E0BCDA9FAB8EABDDAA0D
:100EE00018A6D092700589A69AA6ABA6BCA6A801A2
:100EF000970166E070E080E090E0ABDA9FA78EA7F4
:100F0000DDA618A2D0926F0589A29AA2ABA2BCA2BC
:100F1000A801970164E070E080E090E09ADA9FA376
:100F20008EA3DDA2188ED0926E05898E9A8EAB8E1E
:100F3000BC8EA801970167E070E080E090E089DA5C
:100F40009F8F8E8FDD8E1092640510926505109232
:100F500066051092670510925C05D0926D0580922F
:100F60005D0590925E05A0925F05B092600561E01C
:100F70008AE00EDCD092610510925405D0926C0587
:100F80008092550590925605A0925705B09258054B
:100F900061E08DE0FDDBD092590510924C05D092B6
:100FA0006B0580924D0590924E05A0924F05B09230
:100FB000500561E089E0ECDBD092510510924405C8
:100FC000D0926A058092450590924605A092470509
:100FD000B092480561E08CE0DBDBD09249051092CD
:100FE0003C05D092690580923D0590923E05A09205
:100FF0003F05B092400561E088E0CADBD092410530
:1010000018AED092680589AE9AAEABAEBCAE61E0C8
:101010008BE0BEDBDDAEDF91CF911F910F91FF9092
:10102000EF90DF90BF90AF909F908F900895809148
:10103000080581111DC081E0809308058091090594
:1010400090910A05A0910B05B0910C050197A1059F
:10105000B10571F480910D05882351F067E370E0CC
:1010600080E090E009D990930F0580930E056BD92D
:101070008091FC0481111DC081E08093FC0480916B
:10108000FD049091FE04A091FF04B091000501972A
:10109000A105B10571F480910105882351F068E341
:1010A00070E080E090E0E8D890930305809302051B
:1010B0004AD980912C0581112AC081E080932C05AA
:1010C00080912D0590912E05A0912F05B0913005AE
:1010D0000197A105B105D9F4809131058823B9F0B4
:1010E00065E070E080E090E070D9909333058093E4
:1010F000320540E050E0BA0131D965E070E080E0AF
:1011000090E063D99093330580933205F3D98091B1
:10111000240581112AC081E0809324058091250552
:1011200090912605A0912705B09128050197A1056A
:10113000B105D9F4809129058823B9F066E070E003
:1011400080E090E042D990932B0580932A0540E0FF
:1011500050E0BA0103D966E070E080E090E035D954
:1011600090932B0580932A05C5D980911C05811188
:101170002AC081E080931C0580911D0590911E0579
:10118000A0911F05B09120050197A105B105D9F4E3
:10119000809121058823B9F064E070E080E090E060
:1011A00014D9909323058093220540E050E0BA01C2
:1011B000D5D864E070E080E090E007D990932305F3
:1011C0008093220597D98091140581112AC081E06E
:1011D000809314058091150590911605A09117052F
:1011E000B09118050197A105B105D9F480911905B1
:1011F0008823B9F067E070E080E090E0E6D8909353
:101200001B0580931A0540E050E0BA01A7D867E0BB
:1012100070E080E090E0D9D890931B0580931A0588
:1012200069D980915C05811103C081E080935C05E0
:1012300080915405811103C081E080935405809111
:101240004C05811103C081E080934C0580914405D9
:10125000811103C081E08093440580913C05811198
:1012600003C081E080933C0580913405811103C067
:1012700081E080933405089526E030E040E855E2AF
:1012800060E070E090E080E000C08130910569F09E
:101290001CF4892B39F008958230910549F00397A9
:1012A00051F0089588E892E095C585E293E0FCCF7F
:1012B00082EC93E0F9CF8FE594E0F6CF1F920F9286
:1012C0000FB60F9211240BB60F922F933F934F93AB
:1012D0005F936F937F938F939F93AF93BF93EF939E
:1012E000FF938FE89DEF909325018093240134D0E4
:1012F000FF91EF91BF91AF919F918F917F916F91EE
:101300005F914F913F912F910F900BBE0F900FBEA9
:101310000F901F9018958FE89DEF90932501809373
:101320002401A3E7B0E08C918E7F8C93E0E2F1E0A2
:1013300080818C7F8083E1E2F1E08081877E808301
:1013400080818460808380818C7F80838C918160A8
:101350008C93089581E0089580917C0291E0980F2C
:1013600090937C02882349F021E030E030937E02A4
:1013700020937D0280937C020895789418DAF89483
:1013800080917C028150F6CFCF93DF931092750548
:10139000109274052DD270DFC0915302D091540287
:1013A000198218823CDDF894B6DF81E0288139810A
:1013B000232B09F080E080937405789478948091D1
:1013C0007405811107C033DEF89490E080E0DF916E
:1013D000CF91089581E028813981232B09F480E0A1
:1013E000809375059091750581E0911180E080935F
:1013F0007405B0DFE4CF5058BB27AA270ED00DC12B
:10140000FED030F003D120F031F49F3F11F41EF4F0
:10141000F3C00EF4E095E7FBE9C0E92F0FD180F3AC
:10142000BA17620773078407950718F071F49EF5E1
:1014300027C10EF4E0950B2EBA2FA02D0B01B90198
:1014400090010C01CA01A0011124FF27591B99F03A
:10145000593F50F4503E68F11A16F040A22F232F46
:10146000342F4427585FF3CF469537952795A79596
:10147000F0405395C9F77EF41F16BA0B620B730B3D
:10148000840BBAF09150A1F0FF0FBB1F661F771FAE
:10149000881FC2F70EC0BA0F621F731F841F48F463
:1014A000879577956795B795F7959E3F08F0B3CFE9
:1014B0009395880F08F09927EE0F979587950895D3
:1014C00071D008F481E0089504D06894B111D9C0B6
:1014D0000895BCD088F09F5790F0B92F9927B75145
:1014E000A0F0D1F0660F771F881F991F1AF0BA95E8
:1014F000C9F712C0B13081F0C3D0B1E00895C0C0C7
:10150000672F782F8827B85F39F0B93FCCF38695DD
:1015100077956795B395D9F73EF49095809570953A
:1015200061957F4F8F4F9F4F0895E89409C097FBB7
:101530003EF490958095709561957F4F8F4F9F4FAA
:101540009923A9F0F92F96E9BB279395F6958795EE
:1015500077956795B795F111F8CFFAF4BB0F11F4B1
:1015600060FF1BC06F5F7F4F8F4F9F4F16C0882358
:1015700011F096E911C0772321F09EE8872F762F8E
:1015800005C0662371F096E8862F70E060E02AF0CF
:101590009A95660F771F881FDAF7880F96958795BB
:1015A00097F90895990F0008550FAA0BE0E8FEEF90
:1015B00016161706E807F907C0F012161306E40717
:1015C000F50798F0621B730B840B950B39F40A2610
:1015D00061F0232B242B252B21F408950A2609F4EE
:1015E000A140A6958FEF811D811D089597F99F67F2
:1015F00080E870E060E008959FEF80EC089500249B
:101600000A941616170618060906089500240A9467
:1016100012161306140605060895092E0394000CED
:1016200011F4882352F0BB0F40F4BF2B11F460FF7C
:1016300004C06F5F7F4F8F4F9F4F089557FD9058A5
:10164000440F551F59F05F3F71F04795880F97FB86
:10165000991F61F09F3F79F0879508951216130640
:101660001406551FF2CF4695F1DF08C0161617066F
:101670001806991FF1CF86957105610508940895A4
:10168000E894BB2766277727CB0197F908958ADF6F
:1016900008F48FEF08950BD0C0CFB1DF28F0B6DF8C
:1016A00018F0952309F0A2CFA7CF1124EACFC6DF07
:1016B000A0F3959FD1F3950F50E0551F629FF00165
:1016C000729FBB27F00DB11D639FAA27F00DB11DBE
:1016D000AA1F649F6627B00DA11D661F829F222747
:1016E000B00DA11D621F739FB00DA11D621F839FCE
:1016F000A00D611D221F749F3327A00D611D231FA4
:10170000849F600D211D822F762F6A2F11249F57F1
:1017100050408AF0E1F088234AF0EE0FFF1FBB1F14
:10172000661F771F881F91505040A9F79E3F5105B3
:1017300070F05CCFA6CF5F3FECF3983EDCF386956C
:1017400077956795B795F795E7959F5FC1F7FE2B5E
:10175000880F911D9695879597F908951F920F927E
:101760000FB60F9211242F933F938F939F93AF93B4
:10177000BF938091800290918102A0918202B091EA
:10178000830230917F0223E0230F2D3758F5019615
:10179000A11DB11D20937F0280938002909381024E
:1017A000A0938202B093830280918402909185027B
:1017B000A0918602B09187020196A11DB11D809370
:1017C000840290938502A0938602B0938702BF9112
:1017D000AF919F918F913F912F910F900FBE0F90DE
:1017E0001F90189526E8230F0296A11DB11DD2CF98
:1017F000789484B5826084BD84B5816084BD85B5EC
:10180000826085BD85B5816085BDEEE6F0E08081B2
:1018100081608083E1E8F0E01082808182608083D3
:10182000808181608083E0E8F0E080818160808356
:10183000E1EBF0E0808184608083E0EBF0E0808188
:1018400081608083E1E9F0E0808182608083808133
:1018500081608083E0E9F0E0808181608083E1EA5B
:10186000F0E0808182608083808181608083E0EA13
:10187000F0E0808181608083E1E2F1E0808182603C
:101880008083808181608083E0E2F1E080818160FB
:101890008083EAE7F0E080818460808380818260D9
:1018A00080838081816080838081806880831092C2
:1018B000C1000895863308F0865320917B00982F4D
:1018C0009870277F922B90937B002091520290E496
:1018D000299F900111248770822B80937C00809136
:1018E0007A00806480937A0080917A0086FDFCCF34
:1018F000809178009091790008951F93CF93DF93A2
:10190000182FEB0161E033D1209731F460E0812F93
:10191000DF91CF911F9167C1CF3FD10511F461E0F5
:10192000F6CFE12FF0E0EC51FF4FE491E150E231CE
:1019300008F0B2C0F0E08827E056F34F8F4F29C57A
:10194000B20CBA0CBF0CC90CD30C4C0DDD0CE50C61
:10195000ED0CF70C010D0B0D1A0D240D4C0D2E0D79
:10196000380D420D84B5806884BDC7BDDF91CF912D
:101970001F91089584B5806284BDC8BDF7CF809162
:101980008000806880938000D0938900C093880095
:10199000EDCF80918000806280938000D0938B0097
:1019A000C0938A00E3CF809180008860809380009C
:1019B000D0938D00C0938C00D9CF8091B000806807
:1019C0008093B000C093B300D1CF8091B00080620B
:1019D0008093B000C093B400C9CF8091900080681C
:1019E00080939000D0939900C0939800BFCF8091CE
:1019F0009000806280939000D0939B00C0939A00E7
:101A0000B5CF80919000886080939000D0939D0026
:101A1000C0939C00ABCF8091A00080688093A00011
:101A20008091A0008F7B8093A000D093A900C093E9
:101A3000A8009CCF8091A00080628093A000D093EA
:101A4000AB00C093AA0092CF8091A00088608093E1
:101A5000A000D093AD00C093AC0088CF809120014E
:101A6000806880932001D0932901C09328017ECF04
:101A700080912001806280932001D0932B01C0933C
:101A80002A0174CF80912001886080932001D09337
:101A90002D01C0932C016ACFC038D1050CF03FCF87
:101AA00035CF8150823108F059C0E82FF0E0882707
:101AB000E45AF24F8F4F6DC47C0D800D6E0D740D86
:101AC000780DAE0D830D890D8D0D930D970D9B0D2A
:101AD000A10DA50DAE0DA90DAF0DB30D8091800028
:101AE0008F77809380000895809180008F7DF9CF5B
:101AF00080918000877FF5CF84B58F7784BD08956E
:101B000084B58F7DFBCF8091B0008F778093B0003C
:101B100008958091B0008F7DF9CF809190008F77EC
:101B2000809390000895809190008F7DF9CF8091EF
:101B30009000877FF5CF8091A0008F778093A000E1
:101B400008958091A0008F7DF9CF8091A000877FBC
:101B5000F5CF809120018F778093200108958091A7
:101B600020018F7DF9CF80912001877FF5CFCF9322
:101B7000DF9390E0FC01E65DFE4F249180599E4F7B
:101B8000FC0184918823C9F090E0880F991FFC0123
:101B9000E053FE4FA591B491FC01EA54FE4FC5916C
:101BA000D49161110DC09FB7F8948C912095822338
:101BB0008C938881282328839FBFDF91CF9108953C
:101BC000623051F49FB7F8943C91822F8095832323
:101BD0008C93E8812E2BEFCF8FB7F894EC912E2BBE
:101BE0002C938FBFEACF1F93CF93DF93282F30E042
:101BF000F901EC51FF4F8491F901E65DFE4FD4915C
:101C0000F901E059FE4FC491CC23A1F0162F8111A8
:101C100048DFEC2FF0E0EE0FFF1FEA54FE4FA591D6
:101C2000B4918FB7F894EC91111108C0D095DE23D0
:101C3000DC938FBFDF91CF911F910895DE2BF8CFFA
:101C4000FC01918D228D892F90E0805C9F4F821B3B
:101C500091098F7399270895FC01918D828D9817B2
:101C600031F0828DE80FF11D858D90E008958FEFA2
:101C70009FEF0895FC01918D828D981761F0A28DE0
:101C8000AE0FBF2FB11D5D968C91928D9F5F9F739C
:101C9000928F90E008958FEF9FEF0895FC01538D90
:101CA000448D252F30E0842F90E0821B930B541736
:101CB00010F0CF96089501970895FC01A48DA80F08
:101CC000B92FB11DA35ABF4F2C91848D90E001967E
:101CD0008F739927848FA689B7892C93A089B1899E
:101CE0008C91837080648C93938D848D981306C03F
:101CF0000288F389E02D80818F7D80830895CF93C2
:101D0000DF93EC01888D8823B1F0AA89BB89E8892B
:101D1000F9898C9185FD03C0808186FD0CC00FB6CA
:101D200007FCF7CF8C9185FFF2CF808185FFEDCF47
:101D3000CE01C3DFEACFDF91CF910895EF92FF92FA
:101D40000F931F93CF93DF93EC0181E0888F9B8DDE
:101D50008C8D98131AC0E889F989808185FF15C098
:101D60009FB7F894EE89FF896083E889F9898081BB
:101D70008370806480839FBF81E090E0DF91CF918A
:101D80001F910F91FF90EF900895F62E0B8D10E0AC
:101D90000F5F1F4F0F731127E02E8C8D8E110BC01C
:101DA0000FB607FCFACFE889F989808185FFF5CF66
:101DB000CE0183DFF2CFEB8DEC0FFD2FF11DE35A47
:101DC000FF4FF0829FB7F8940B8FEA89FB898081DF
:101DD0008062D0CFCF92DF92EF92FF921F93CF938A
:101DE000DF93EC016A017B01122FE889F98982E017
:101DF0008083C11481EED806E104F10499F060E01B
:101E000079E08DE390E0A7019601A1D2215031093C
:101E1000410951095695479537952795211580E138
:101E2000380790F0E889F989108260E874E88EE15B
:101E300090E0A70196018BD2215031094109510947
:101E40005695479537952795EC85FD853083EE852A
:101E5000FF852083188EEC89FD891083EA89FB8930
:101E6000808180618083EA89FB89808188608083AA
:101E7000EA89FB89808180688083EA89FB89808187
:101E80008F7D8083DF91CF911F91FF90EF90DF9046
:101E9000CF9008951F920F920FB60F9211240BB698
:101EA0000F922F938F939F93EF93FF93E09198025C
:101EB000F09199028081E0919E02F0919F0282FD53
:101EC0001DC090818091A1028F5F8F732091A2022B
:101ED000821741F0E091A102F0E0E857FD4F958FA5
:101EE0008093A102FF91EF919F918F912F910F907D
:101EF0000BBE0F900FBE0F901F9018958081F2CFF0
:101F00001F920F920FB60F9211240BB60F922F93C0
:101F10003F934F935F936F937F938F939F93AF9371
:101F2000BF93EF93FF9388E892E0C7DEFF91EF91B4
:101F3000BF91AF919F918F917F916F915F914F91E1
:101F40003F912F910F900BBE0F900FBE0F901F90DF
:101F50001895E8E8F2E01382128288EE93E0A0E0A0
:101F6000B0E084839583A683B78389E592E091836B
:101F7000808385EC90E09587848784EC90E0978758
:101F8000868780EC90E0918B808B81EC90E0938B46
:101F9000828B82EC90E0958B848B86EC90E0978B23
:101FA000868B118E128E138E148E08951F920F92AF
:101FB0000FB60F9211240BB60F922F938F939F930E
:101FC000EF93FF93E0913503F09136038081E09128
:101FD0003B03F0913C0382FD1DC0908180913E0344
:101FE0008F5F8F7320913F03821741F0E0913E0392
:101FF000F0E0EB5DFC4F958F80933E03FF91EF91F6
:102000009F918F912F910F900BBE0F900FBE0F904D
:102010001F9018958081F2CF1F920F920FB60F92EA
:1020200011240BB60F922F933F934F935F936F93AF
:102030007F938F939F93AF93BF93EF93FF9385E22B
:1020400093E03BDEFF91EF91BF91AF919F918F9114
:102050007F916F915F914F913F912F910F900BBEA8
:102060000F900FBE0F901F901895E5E2F3E01382DA
:10207000128288EE93E0A0E0B0E084839583A6838B
:10208000B78389E592E0918380838DEC90E095871A
:1020900084878CEC90E09787868788EC90E0918B22
:1020A000808B89EC90E0938B828B8AEC90E0958B0F
:1020B000848B8EEC90E0978B868B118E128E138E14
:1020C000148E08951F920F920FB60F9211240BB623
:1020D0000F922F938F939F93EF93FF93E091D203EF
:1020E000F091D3038081E091D803F091D90382FD70
:1020F0001DC090818091DB038F5F8F732091DC0383
:10210000821741F0E091DB03F0E0EE53FC4F958F36
:102110008093DB03FF91EF919F918F912F910F900F
:102120000BBE0F900FBE0F901F9018958081F2CFBD
:102130001F920F920FB60F9211240BB60F922F938E
:102140003F934F935F936F937F938F939F93AF933F
:10215000BF93EF93FF9382EC93E0AFDDFF91EF919C
:10216000BF91AF919F918F917F916F915F914F91AF
:102170003F912F910F900BBE0F900FBE0F901F90AD
:102180001895E2ECF3E01382128288EE93E0A0E06F
:10219000B0E084839583A683B78389E592E0918339
:1021A000808385ED90E09587848784ED90E0978724
:1021B000868780ED90E0918B808B81ED90E0938B12
:1021C000828B82ED90E0958B848B86ED90E0978BEF
:1021D000868B118E128E138E148E08951F920F927D
:1021E0000FB60F9211240BB60F922F938F939F93DC
:1021F000EF93FF93E0916F04F09170048081E09180
:102200007504F091760482FD1DC090818091780460
:102210008F5F8F7320917904821741F0E0917804E9
:10222000F0E0E15AFB4F958F80937804FF91EF9196
:102230009F918F912F910F900BBE0F900FBE0F901B
:102240001F9018958081F2CF1F920F920FB60F92B8
:1022500011240BB60F922F933F934F935F936F937D
:102260007F938F939F93AF93BF93EF93FF938FE5EC
:1022700094E023DDFF91EF91BF91AF919F918F91FA
:102280007F916F915F914F913F912F910F900BBE76
:102290000F900FBE0F901F901895EFE5F4E013829A
:1022A000128288EE93E0A0E0B0E084839583A68359
:1022B000B78389E592E09183808385E391E09587F8
:1022C000848784E391E09787868780E391E0918B10
:1022D000808B81E391E0938B828B82E391E0958BFD
:1022E000848B86E391E0978B868B118E128E138EF2
:1022F000148E0895AF92BF92CF92DF92EF92FF9229
:102300000F931F93CF93DF936C017B018B01040F1D
:10231000151FEB015E01AE18BF08C017D10759F0B9
:102320006991D601ED91FC910190F081E02DC601FB
:102330001995892B79F7C501DF91CF911F910F91E5
:10234000FF90EF90DF90CF90BF90AF900895A1E203
:102350001A2EAA1BBB1BFD010DC0AA1FBB1FEE1F1F
:10236000FF1FA217B307E407F50720F0A21BB30B6A
:10237000E40BF50B661F771F881F991F1A9469F7E6
:1023800060957095809590959B01AC01BD01CF0142
:102390000895EE0FFF1F881F8BBF0790F691E02D69
:1023A0001994A29FB001B39FC001A39F700D811D1E
:1023B0001124911DB29F700D811D1124911D08954E
:0423C000F894FFCFBF
:1023C4000000A0420000A042000080BF000080BFC7
:1023D4000000C03F00003443000034C3000000008C
:1023E40000007FC30000000000007FC300007F43A3
:1023F4000000000000007F43000000000000803F58
:10240400000048420000C841000000000096C0805F
:102414008080017A02000000009E0E7A114E0E7F29
:082424000E200E3A0E2C0E00F2
:00000001FF
