:10000000F8C0000027C1000025C1000023C1000086
:1000100021C100001FC100001DC100001BC1000064
:1000200019C1000017C1000015C1000013C1000074
:1000300011C100000FC100000DC100000BC1000084
:1000400009C1000007C1000005C1000003C1000094
:1000500001C10000FFC00000FDC000000C94890B2E
:10006000F9C000000C94250F0C945B0FF3C0000046
:10007000F1C00000EFC00000EDC00000EBC00000C8
:10008000E9C00000E7C00000E5C00000E3C00000D8
:100090000C94B10F0C94E70FDDC00000DBC0000032
:1000A000D9C00000D7C00000D5C00000D3C00000F8
:1000B000D1C00000CFC00000CDC00000CBC0000008
:1000C000C9C00000C7C000000C9439090C943D1051
:1000D0000C947310BFC000000C94C9100C94FF1056
:1000E000B9C0000000000A0B02090C0D0E0807033E
:1000F00004010000000000000000000000000000FB
:1001000000000000000000000000000000000000EF
:1001100012111000000000000000000000000000AC
:100120000000000000000000000001021020200874
:100130000810204010204080020102010804020142
:1001400001020408102040808040201008040201B1
:10015000800402018040201008040201080402010A
:100160000102040810204080010204081020408091
:1001700005050505070508080808020202020A0A23
:100180000808040404040101010101010101030341
:10019000030303030303040707070C0C0C0C0C0CEC
:1001A0000C0C0202020206060606060606060B0BE9
:1001B0000B0B0B0B0B0B00002200250028002B0063
:1001C0002E003100340002010000050108010B017E
:1001D00000002100240027002A002D0030003300F9
:1001E00001010000040107010A01840F10109C1096
:1001F000281111241FBECFEFD1E2DEBFCDBF00E03A
:100200000CBF12E0A0E0B2E0EAE7F3E200E00BBFCF
:1002100002C007900D92A436B107D9F725E0A4E6F5
:10022000B2E001C01D92AA38B207E1F710E0C9EFB1
:10023000D0E000E006C021970109802FFE010E9456
:10024000A411C53FD10780E00807A9F70E949F09C4
:100250000C94BB11D5CECF93DF93882349F0EB01EB
:1002600081500E94350C99838883DF91CF91089546
:10027000FB0111821082F9CF0F931F938B019C0118
:1002800083E036952795179507958A95D1F70359F9
:100290001D4F462F477021E030E0F90102C0EE0FFC
:1002A000FF1F4A95E2F7AF01F80120812423CB011B
:1002B0000196211102C090E080E01F910F910895F6
:1002C0000F931F938B019C0183E03695279517951B
:1002D00007958A95D1F7677081E090E001C0880F9B
:1002E0006A95EAF7F801E359FD4F2081452B31F477
:1002F0008095822380831F910F910895822BFACFDE
:10030000CF92DF92EF92FF92CF93DF936B017C014C
:1003100060E086E3C816D104E104F10490F486E3BA
:100320008C0D0E94920DE6012196AE01C701B60127
:10033000C7DFCE01DF91CF91FF90EF90DF90CF909C
:1003400008958C2DEECF882341F08150682F70E006
:1003500090E080E050E040E0B3CF0895CF92DF928C
:10036000EF92FF92CF93882351F16A017B01CFEF87
:10037000C80F20E030E0A901CB01B6010E943B0A82
:1003800018168CF0C701B60190580E94440A9B01D0
:10039000AC016C2F70E090E080E0CF91FF90EF9087
:1003A000DF90CF90B0C0C701B6010E943F0A8C2FEA
:1003B000CF91FF90EF90DF90CF900C94580CCF919D
:1003C000FF90EF90DF90CF9008950F931F938B01D4
:1003D0009C0183E036952795179507958A95D1F767
:1003E0000C591D4F462F477021E030E0F90102C043
:1003F000EE0FFF1F4A95E2F7AF01F8012081242399
:10040000CB010196211102C090E080E01F910F9175
:1004100008950F931F938B019C0183E036952795D8
:10042000179507958A95D1F7677081E090E001C034
:10043000880F6A95EAF7F801EC59FD4F2081452BAA
:1004400031F48095822380831F910F910895822B30
:10045000FACF2F923F924F925F926F927F928F923C
:100460009F92AF92BF92CF92DF92EF92FF920F9343
:100470001F93CF93DF93D62EC72E782E692E490176
:100480005A01280161E08D2D0E94920DCD2DDC2DA9
:100490008E010F5F1F4FA8016D2D7C2D872D962D8E
:1004A000B8DF20E030E0A901C201B7010E94220BB1
:1004B000181654F4C201B701E7D72B01C501B401E6
:1004C000E3D7A201CE0123D0C801DF91CF911F91C4
:1004D0000F91FF90EF90DF90CF90BF90AF909F90E3
:1004E0008F907F906F905F904F903F902F900895E6
:1004F000882341F08150682F70E090E080E050E068
:1005000040E087CF0895862FB9010C94580C9C01C8
:10051000FC01EC51FF4FE491E150E231E0F4F0E0F6
:100520008827EA56FD4F8F4F0C94A411A802AF0202
:10053000B202C902DE02AB02F302FF0203031A0396
:100540002F0344035B037003AB0285039C03B103D9
:1005500084B5806884BD60E0822F0C94CE0D84B594
:100560008062F8CF809180008C7F826080938000D1
:1005700080918100807E8061682B60938100509320
:10058000870040938600809180008068809380007F
:10059000E2CF809180008C7F826080938000809188
:1005A0008100807E8061682B60938100509387007A
:1005B00040938600809180008062E8CF8091800027
:1005C0008C7F82608093800080918100807E80613A
:1005D000682B609381005093870040938600809140
:1005E00080008860D3CF8091B00080688093B00095
:1005F0008091B100887F682B6093B100ACCF80916F
:10060000B0008062F3CF809190008C7F82608093F5
:10061000900080919100807E8061682B60939100B2
:10062000509397004093960080919000806880934B
:10063000900091CF809190008C7F82608093900099
:1006400080919100807E8061682B6093910050932F
:10065000970040939600809190008062E8CF80914F
:1006600090008C7F82608093900080919100807ECA
:100670008061682B6093910050939700409396009F
:10068000809190008860D3CF8091A0008C7F8260A1
:100690008093A0008091A100807E8061682B609390
:1006A000A1005093A7004093A6008091A00080680D
:1006B0008093A00050CF8091A0008C7F82608093B7
:1006C000A0008091A100807E8061682B6093A100D2
:1006D0005093A7004093A6008091A0008062E8CFCD
:1006E0008091A0008C7F82608093A0008091A10007
:1006F000807E8061682B6093A1005093A700409397
:10070000A6008091A0008860D3CF809120018C7FCB
:1007100082608093200180912101807E8061682B1E
:10072000609321015093270140932601809120017D
:100730008068809320010FCF809120018C7F8260A0
:100740008093200180912101807E8061682B6093DD
:10075000210150932701409326018091200180625E
:10076000E8CF809120018C7F82608093200180916E
:100770002101807E8061682B6093210150932701C5
:1007800040932601809120018860D3CF611102C07F
:100790000C94920D6130E1F362E0FACF662319F018
:1007A00061E00C94CE0D60E0FCCF2F923F924F920F
:1007B0005F926F927F928F929F92AF92BF92CF92F1
:1007C000DF92EF92FF920F931F93CF93DF9300D0AE
:1007D00000D01F921F92CDB7DEB7C0900802D09014
:1007E0000902E0900A02F0900B02A70196016091C5
:1007F0000C0570910D0580910E0590910F053BD66B
:10080000882341F0C0920C05D0920D05E0920E05B0
:10081000F0920F0568E370E080E090E02DDD9093AA
:100820000B0580930A0543E050E0BE016D5F7F4FEA
:1008300012DDC0900C02D0900D02E0900E02F090FC
:100840000F02A7019601609100057091010580914A
:100850000205909103050FD6882341F0C092000550
:10086000D0920105E0920205F092030569E370E081
:1008700080E090E001DD9093FF048093FE0443E06C
:1008800050E0BE016F5F7F4FE6DC4091480250911F
:100890004902AB81BC819A010E94AC112B013C0141
:1008A000A981BA810E94AC11C0900002D0900102CF
:1008B000E0900202F0900302809004029090050202
:1008C000A0900602B090070221E04C145D046E0473
:1008D0007F0408F420E051E0681579058A059B053E
:1008E00008F450E040E04C145D046E047F0408F00E
:1008F000452F20904D02E22DF0E0241302C0F0E0DD
:10090000E0E0312C212C442329F020904C02312CA2
:10091000220C331C2E0E3F1E4C145D046E047F040B
:1009200008F0EBC1681579058A059B0508F0E5C15B
:1009300020914A02E8E02E9F90011124220E331EDE
:1009400030E020E0541731F020914B0244E0249F26
:1009500090011124220E331E53E0369427945A95A9
:10096000E1F7E22DE295EF70EF8322942694E7E021
:100970002E22222D21702887312C91013695279522
:100980003E832D83C0902002D0902102E09022026D
:10099000F090230246015701C616D706E806F9066D
:1009A00078F08090240290902502A0902602B090CA
:1009B000270286169706A806B90610F44B015C01BB
:1009C000C414D504E604F70478F0C0902402D09053
:1009D0002502E0902602F0902702C414D504E60414
:1009E000F70410F47301620165E070E080E090E0CC
:1009F000ECDC8C0190932F0580932E0560912802EA
:100A00007091290280912A0290912B026C157D052C
:100A10008E059F0578F060912C0270912D028091D7
:100A20002E0290912F026C157D058E059F0510F406
:100A3000C701B60155D520E030E040E057E306D6C7
:100A40002B013C0120E030E04FE753E414D51816A9
:100A500034F4412C512C4FE7642E43E4742EB3013F
:100A6000A201C8017BDC66E070E080E090E0ADDCD4
:100A70008C01909327058093260560913002709138
:100A800031028091320290913302681579058A050E
:100A90009B0578F0609134027091350280913602A6
:100AA00090913702681579058A059B0510F4C501F8
:100AB000B40116D520E030E040E057E3C7D52B0164
:100AC0003C0120E030E04FE753E4D5D4181634F46D
:100AD000412C512C3FE7632E33E4732EB301A20166
:100AE000C8013CDC64E070E080E090E06EDC8C01EA
:100AF00090931F0580931E05609138027091390212
:100B000080913A0290913B026C157D058E059F0500
:100B100078F060913C0270913D0280913E0290918C
:100B20003F026C157D058E059F0510F4C701B601C7
:100B3000D7D420E030E040E057E388D56B017C015A
:100B400020E030E04FE753E496D4181634F4C12C7B
:100B5000D12C2FE7E22E23E4F22EB701A601C80123
:100B6000FDDB67E070E080E090E02FDC8C0190938B
:100B700017058093160560914002709141028091A3
:100B8000420290914302681579058A059B0578F029
:100B90006091440270914502809146029091470213
:100BA000681579058A059B0510F4C501B40198D430
:100BB00020E030E040E057E349D56B017C0120E0C4
:100BC00030E04FE753E457D4181634F4C12CD12C3D
:100BD0009FE7E92E93E4F92EB701A601C801BEDB19
:100BE000C0906005D0906105E0906205F0906305CB
:100BF000C701B60177D42B013C0120911802309136
:100C0000190240911A0250911B0235D487FF78C017
:100C1000F7FC76C08090100290901102A090120212
:100C2000B090130220E030E040E85FE360911402EE
:100C3000709115028091160290911702B7D39B0113
:100C4000AC01C301B201FED487FD5EC01092600505
:100C500010926105109262051092630536942794F4
:100C60003694279411E0232841F020E030E0A901D8
:100C7000C501B40100D4811110E0F12E4F8100E0D4
:100C800040FD012F602F8AE089DD602F8DE086DD39
:100C90008885811101C010E0612F89E07FDD612F1F
:100CA0008CE07CDD0D811E8101701127ED81E0FF5C
:100CB00005C091E0F11001C090E0092F602F88E09D
:100CC0006DDD602F8BE06ADD28960FB6F894DEBFED
:100CD0000FBECDBFDF91CF911F910F91FF90EF908D
:100CE000DF90CF90BF90AF909F908F907F906F904C
:100CF0005F904F903F902F90089530E020E01ECEFF
:100D0000812C912C54018ECF3FEFC31AD30AE30AF2
:100D1000F30AC0926005D0926105E0926205F092FC
:100D200063059CCF8F929F92AF92BF92DF92EF921A
:100D3000FF920F931F93CF93DF9384E090E040D214
:100D40001092770210927602C8EFD4E088E7FE0195
:100D500011928A95E9F7DD24D394D0926F0500E0D3
:100D600012E0F80180859185A285B3858C8B9D8BDF
:100D7000AE8BBF8B812C912C540183948D869E86E3
:100D8000AF86B88A68E370E080E090E0B9DA9B8BC8
:100D90008A8BD98A1882D0926E05F8018485958550
:100DA000A685B78588879987AA87BB8789829A8213
:100DB000AB82BC8269E370E080E090E0A1DA9F83BF
:100DC0008E83DD8218AAD0926D0589AA9AAAABAA51
:100DD000BCAAE12CF12C8701A801970165E070E025
:100DE00080E090E036DB9FAB8EABDDAA18A6D092F8
:100DF0006C0589A69AA6ABA6BCA6A801970166E0D9
:100E000070E080E090E025DB9FA78EA7DDA618A20A
:100E1000D0926B0589A29AA2ABA2BCA2A8019701AD
:100E200064E070E080E090E014DB9FA38EA3DDA27D
:100E3000188ED0926A05898E9A8EAB8EBC8EA801D0
:100E4000970167E070E080E090E003DB9F8F8E8F7A
:100E5000DD8E10926005109261051092620510926D
:100E6000630510925805D0926905809259059092B9
:100E70005A05A0925B05B0925C0561E08AE086DCD1
:100E8000D0925D0510925005D09268058092510570
:100E900090925205A0925305B092540561E08DE006
:100EA00075DCD092550510924805D0926705809266
:100EB000490590924A05A0924B05B0924C0561E01D
:100EC00089E064DCD0924D0510924005D092660511
:100ED0008092410590924205A0924305B09244054C
:100EE00061E08CE053DCD092450510923805D09239
:100EF00065058092390590923A05A0923B05B09223
:100F00003C0561E088E042DCD0923D0518AED0920D
:100F1000640589AE9AAEABAEBCAE61E08BE036DC68
:100F2000DDAEDF91CF911F910F91FF90EF90DF9099
:100F3000BF90AF909F908F9008958091040581118C
:100F40001DC081E080930405809105059091060500
:100F5000A0910705B09108050197A105B10571F4AD
:100F600080910905882351F068E370E080E090E00B
:100F700083D990930B0580930A05E5D98091F804F5
:100F800081111DC081E08093F8048091F904909153
:100F9000FA04A091FB04B091FC040197A105B105EE
:100FA00071F48091FD04882351F069E370E080E0E2
:100FB00090E062D99093FF048093FE04C4D980919D
:100FC000280581112AC081E0809328058091290598
:100FD00090912A05A0912B05B0912C050197A105B0
:100FE000B105D9F480912D058823B9F065E070E052
:100FF00080E090E0EAD990932F0580932E0540E0A1
:1010000050E0BA01ABD965E070E080E090E0DDD956
:1010100090932F0580932E056BDA80912005811126
:101020002AC081E0809320058091210590912205BE
:10103000A0912305B09124050197A105B105D9F42C
:10104000809125058823B9F066E070E080E090E0AB
:10105000BCD9909327058093260540E050E0BA0163
:101060007DD966E070E080E090E0AFD990932705ED
:10107000809326053DDA8091180581112AC081E010
:10108000809318058091190590911A05A0911B0570
:10109000B0911C050197A105B105D9F480911D05FA
:1010A0008823B9F064E070E080E090E08ED99093FE
:1010B0001F0580931E0540E050E0BA014FD964E05F
:1010C00070E080E090E081D990931F0580931E0529
:1010D0000FDA8091100581112AC081E080931005FC
:1010E0008091110590911205A0911305B0911405FE
:1010F0000197A105B105D9F4809115058823B9F0B0
:1011000067E070E080E090E060D9909317058093ED
:10111000160540E050E0BA0121D967E070E080E0B8
:1011200090E053D99093170580931605E1D98091EB
:101130005805811103C081E08093580580915005C6
:10114000811103C081E08093500580914805811191
:1011500003C081E08093480580914005811103C060
:1011600081E08093400580913805811103C081E0C2
:101170008093380580913005811103C081E0809310
:101180003005089560E070E080E89FE7089560E032
:1011900070E080E89FE7089560E070E080E89FEFEE
:1011A000089560E070E080E89FEF089560E070E0EF
:1011B00080EC9FEF089560E070E080EC9FEF089571
:1011C000F5DF60937C0570937D0580937E05909399
:1011D0007F05F1DF60937005709371058093720550
:1011E00090937305CFDF60937805709379058093B2
:1011F0007A0590937B05CBDF60937405709375053A
:101200008093760590937705C7DF60938005709390
:1012100081058093820590938305C3DF60938405E5
:10122000709385058093860590938705089526E041
:1012300030E040E855E260E070E090E080E000C01F
:101240008130910569F01CF4892B39F008958230C2
:10125000910549F0039751F0089584E892E095C50F
:1012600081E293E0FCCF8EEB93E0F9CF8BE594E045
:10127000F6CF1F920F920FB60F9211240BB60F925A
:101280002F933F934F935F936F937F938F939F938E
:10129000AF93BF93EF93FF938FE89DEF909325015A
:1012A0008093240134D0FF91EF91BF91AF919F9132
:1012B0008F917F916F915F914F913F912F910F90FF
:1012C0000BBE0F900FBE0F901F9018958FE89DEFEB
:1012D0009093250180932401A3E7B0E08C918E7F49
:1012E0008C93E0E2F1E080818C7F8083E1E2F1E0A9
:1012F0008081877E808380818460808380818C7FF1
:1013000080838C9181608C93089581E00895809111
:10131000780291E0980F90937802882349F021E0B9
:1013200030E030937A022093790280937802089516
:1013300078943BDAF894809178028150F6CFCF937D
:10134000DF9310928905109288052DD270DFC0912D
:101350004F02D091500219821882E4DCF894B6DF73
:1013600081E028813981232B09F080E08093880572
:101370007894789480918805811107C0DEDDF89417
:1013800090E080E0DF91CF91089581E0288139815C
:10139000232B09F480E0809389059091890581E0F1
:1013A000911180E080938805B0DFE4CF5058BB27CF
:1013B000AA270ED00DC1FED030F003D120F031F4B9
:1013C0009F3F11F41EF4F3C00EF4E095E7FBE9C073
:1013D000E92F0FD180F3BA176207730784079507C7
:1013E00018F071F49EF527C10EF4E0950B2EBA2F7C
:1013F000A02D0B01B90190010C01CA01A00111241B
:10140000FF27591B99F0593F50F4503E68F11A16C6
:10141000F040A22F232F342F4427585FF3CF469557
:1014200037952795A795F0405395C9F77EF41F1679
:10143000BA0B620B730B840BBAF09150A1F0FF0F43
:10144000BB1F661F771F881FC2F70EC0BA0F621F2F
:10145000731F841F48F4879577956795B795F7951F
:101460009E3F08F0B3CF9395880F08F09927EE0FB1
:1014700097958795089571D008F481E0089504D078
:101480006894B111D9C00895BCD088F09F5790F0EE
:10149000B92F9927B751A0F0D1F0660F771F881F99
:1014A000991F1AF0BA95C9F712C0B13081F0C3D0B4
:1014B000B1E00895C0C0672F782F8827B85F39F052
:1014C000B93FCCF3869577956795B395D9F73EF4F8
:1014D00090958095709561957F4F8F4F9F4F0895A0
:1014E000E89409C097FB3EF49095809570956195BE
:1014F0007F4F8F4F9F4F9923A9F0F92F96E9BB2774
:101500009395F695879577956795B795F111F8CFEF
:10151000FAF4BB0F11F460FF1BC06F5F7F4F8F4F5A
:101520009F4F16C0882311F096E911C0772321F050
:101530009EE8872F762F05C0662371F096E8862FE8
:1015400070E060E02AF09A95660F771F881FDAF73F
:10155000880F9695879597F90895990F0008550F6C
:10156000AA0BE0E8FEEF16161706E807F907C0F029
:1015700012161306E407F50798F0621B730B840B31
:10158000950B39F40A2661F0232B242B252B21F40B
:1015900008950A2609F4A140A6958FEF811D811DAB
:1015A000089597F99F6780E870E060E008959FEFE5
:1015B00080EC089500240A941616170618060906EA
:1015C000089500240A9412161306140605060895B9
:1015D000092E0394000C11F4882352F0BB0F40F441
:1015E000BF2B11F460FF04C06F5F7F4F8F4F9F4F81
:1015F000089557FD9058440F551F59F05F3F71F003
:101600004795880F97FB991F61F09F3F79F0879569
:101610000895121613061406551FF2CF4695F1DFF2
:1016200008C0161617061806991FF1CF8695710582
:10163000610508940895E894BB2766277727CB01B6
:1016400097F908958ADF08F48FEF08950BD0C0CF83
:10165000B1DF28F0B6DF18F0952309F0A2CFA7CFAD
:101660001124EACFC6DFA0F3959FD1F3950F50E088
:10167000551F629FF001729FBB27F00DB11D639F44
:10168000AA27F00DB11DAA1F649F6627B00DA11DEA
:10169000661F829F2227B00DA11D621F739FB00D90
:1016A000A11D621F839FA00D611D221F749F332700
:1016B000A00D611D231F849F600D211D822F762F99
:1016C0006A2F11249F5750408AF0E1F088234AF096
:1016D000EE0FFF1FBB1F661F771F881F91505040E2
:1016E000A9F79E3F510570F05CCFA6CF5F3FECF3AA
:1016F000983EDCF3869577956795B795F795E795CE
:101700009F5FC1F7FE2B880F911D9695879597F9DE
:1017100008951F920F920FB60F9211242F933F93AB
:101720008F939F93AF93BF9380917C0290917D02A2
:10173000A0917E02B0917F0230917B0223E0230FC3
:101740002D3758F50196A11DB11D20937B02809382
:101750007C0290937D02A0937E02B0937F028091E1
:10176000800290918102A0918202B0918302019641
:10177000A11DB11D8093800290938102A0938202EB
:10178000B0938302BF91AF919F918F913F912F9121
:101790000F900FBE0F901F90189526E8230F02960A
:1017A000A11DB11DD2CF789484B5826084BD84B56B
:1017B000816084BD85B5826085BD85B5816085BD4C
:1017C000EEE6F0E0808181608083E1E8F0E0108265
:1017D000808182608083808181608083E0E8F0E0A6
:1017E000808181608083E1EBF0E080818460808390
:1017F000E0EBF0E0808181608083E1E9F0E08081CE
:1018000082608083808181608083E0E9F0E0808174
:1018100081608083E1EAF0E0808182608083808162
:1018200081608083E0EAF0E0808181608083E1E292
:10183000F1E0808182608083808181608083E0E24A
:10184000F1E0808181608083EAE7F0E0808184605C
:1018500080838081826080838081816080838081B9
:10186000806880831092C1000895863308F0865303
:1018700020917B00982F9870277F922B90937B006C
:1018800020914E0290E4299F900111248770822BB1
:1018900080937C0080917A00806480937A008091AC
:1018A0007A0086FDFCCF80917800909179000895B0
:1018B0001F93CF93DF93182FEB0161E033D1209773
:1018C00031F460E0812FDF91CF911F9167C1CF3F4D
:1018D000D10511F461E0F6CFE12FF0E0EC51FF4FBC
:1018E000E491E150E23108F0B2C0F0E08827E55819
:1018F000F34F8F4F29C58D0C950C9A0CA40CAE0C90
:10190000270DB80CC00CC80CD20CDC0CE60CF50C86
:10191000FF0C270D090D130D1D0D84B5806884BDC6
:10192000C7BDDF91CF911F91089584B5806284BDBA
:10193000C8BDF7CF80918000806880938000D093ED
:101940008900C0938800EDCF8091800080628093F1
:101950008000D0938B00C0938A00E3CF80918000F9
:10196000886080938000D0938D00C0938C00D9CF85
:101970008091B00080688093B000C093B300D1CF55
:101980008091B00080628093B000C093B400C9CF52
:1019900080919000806880939000D0939900C093CC
:1019A0009800BFCF80919000806280939000D09388
:1019B0009B00C0939A00B5CF80919000886080937F
:1019C0009000D0939D00C0939C00ABCF8091A0006D
:1019D00080688093A0008091A0008F7B8093A000FE
:1019E000D093A900C093A8009CCF8091A0008062F2
:1019F0008093A000D093AB00C093AA0092CF8091B7
:101A0000A00088608093A000D093AD00C093AC008C
:101A100088CF80912001806880932001D093290194
:101A2000C09328017ECF80912001806280932001A5
:101A3000D0932B01C0932A0174CF8091200188603C
:101A400080932001D0932D01C0932C016ACFC03820
:101A5000D1050CF03FCF35CF8150823108F059C00D
:101A6000E82FF0E08827E95CF24F8F4F6DC4570DE7
:101A70005B0D490D4F0D530D890D5E0D640D680D05
:101A80006E0D720D760D7C0D800D890D840D8A0D05
:101A90008E0D809180008F778093800008958091D3
:101AA00080008F7DF9CF80918000877FF5CF84B54E
:101AB0008F7784BD089584B58F7DFBCF8091B00072
:101AC0008F778093B00008958091B0008F7DF9CF1B
:101AD000809190008F77809390000895809190007E
:101AE0008F7DF9CF80919000877FF5CF8091A00006
:101AF0008F778093A00008958091A0008F7DF9CF0B
:101B00008091A000877FF5CF809120018F7780930F
:101B100020010895809120018F7DF9CF80912001CF
:101B2000877FF5CFCF93DF9390E0FC01E65DFE4F1A
:101B3000249180599E4FFC0184918823C9F090E044
:101B4000880F991FFC01E053FE4FA591B491FC0151
:101B5000EA54FE4FC591D49161110DC09FB7F8941E
:101B60008C91209582238C938881282328839FBF82
:101B7000DF91CF910895623051F49FB7F8943C9172
:101B8000822F809583238C93E8812E2BEFCF8FB704
:101B9000F894EC912E2B2C938FBFEACF1F93CF9309
:101BA000DF93282F30E0F901EC51FF4F8491F901C8
:101BB000E65DFE4FD491F901E059FE4FC491CC236C
:101BC000A1F0162F811148DFEC2FF0E0EE0FFF1F80
:101BD000EA54FE4FA591B4918FB7F894EC9111118E
:101BE00008C0D095DE23DC938FBFDF91CF911F918A
:101BF0000895DE2BF8CFFC01918D228D892F90E086
:101C0000805C9F4F821B91098F7399270895FC0177
:101C1000918D828D981731F0828DE80FF11D858DA1
:101C200090E008958FEF9FEF0895FC01918D828DD4
:101C3000981761F0A28DAE0FBF2FB11D5D968C91EC
:101C4000928D9F5F9F73928F90E008958FEF9FEF2B
:101C50000895FC01538D448D252F30E0842F90E0B2
:101C6000821B930B541710F0CF9608950197089597
:101C7000FC01A48DA80FB92FB11DA35ABF4F2C9101
:101C8000848D90E001968F739927848FA689B789F8
:101C90002C93A089B1898C91837080648C93938DEF
:101CA000848D981306C00288F389E02D80818F7D92
:101CB00080830895CF93DF93EC01888D8823B1F062
:101CC000AA89BB89E889F9898C9185FD03C0808147
:101CD00086FD0CC00FB607FCF7CF8C9185FFF2CFC5
:101CE000808185FFEDCFCE01C3DFEACFDF91CF91B9
:101CF0000895EF92FF920F931F93CF93DF93EC0120
:101D000081E0888F9B8D8C8D98131AC0E889F989A2
:101D1000808185FF15C09FB7F894EE89FF896083A5
:101D2000E889F98980818370806480839FBF81E026
:101D300090E0DF91CF911F910F91FF90EF90089568
:101D4000F62E0B8D10E00F5F1F4F0F731127E02E43
:101D50008C8D8E110BC00FB607FCFACFE889F9897C
:101D6000808185FFF5CFCE0183DFF2CFEB8DEC0FC5
:101D7000FD2FF11DE35AFF4FF0829FB7F8940B8FB0
:101D8000EA89FB8980818062D0CFCF92DF92EF9287
:101D9000FF921F93CF93DF93EC016A017B01122F17
:101DA000E889F98982E08083C11481EED806E104D4
:101DB000F10499F060E079E08DE390E0A7019601ED
:101DC000A1D22150310941095109569547953795BE
:101DD0002795211580E1380790F0E889F98910826C
:101DE00060E874E88EE190E0A70196018BD2215063
:101DF0003109410951095695479537952795EC8545
:101E0000FD853083EE85FF852083188EEC89FD8962
:101E10001083EA89FB89808180618083EA89FB895C
:101E2000808188608083EA89FB89808180688083E3
:101E3000EA89FB8980818F7D8083DF91CF911F911B
:101E4000FF90EF90DF90CF9008951F920F920FB602
:101E50000F9211240BB60F922F938F939F93EF93B2
:101E6000FF93E0919402F09195028081E0919A02B3
:101E7000F0919B0282FD1DC0908180919D028F5F39
:101E80008F7320919E02821741F0E0919D02F0E055
:101E9000EC57FD4F958F80939D02FF91EF919F919D
:101EA0008F912F910F900BBE0F900FBE0F901F9030
:101EB00018958081F2CF1F920F920FB60F921124C6
:101EC0000BB60F922F933F934F935F936F937F9334
:101ED0008F939F93AF93BF93EF93FF9384E892E028
:101EE000C7DEFF91EF91BF91AF919F918F917F914D
:101EF0006F915F914F913F912F910F900BBE0F907B
:101F00000FBE0F901F901895E4E8F2E01382128242
:101F100088EE93E0A0E0B0E084839583A683B78346
:101F200085E592E09183808385EC90E095878487B6
:101F300084EC90E09787868780EC90E0918B808B93
:101F400081EC90E0938B828B82EC90E0958B848B7C
:101F500086EC90E0978B868B118E128E138E148EEA
:101F600008951F920F920FB60F9211240BB60F9285
:101F70002F938F939F93EF93FF93E0913103F09111
:101F800032038081E0913703F091380382FD1DC058
:101F9000908180913A038F5F8F7320913B0382176A
:101FA00041F0E0913A03F0E0EF5DFC4F958F8093B4
:101FB0003A03FF91EF919F918F912F910F900BBE5C
:101FC0000F900FBE0F901F9018958081F2CF1F9237
:101FD0000F920FB60F9211240BB60F922F933F93CF
:101FE0004F935F936F937F938F939F93AF93BF9321
:101FF000EF93FF9381E293E03BDEFF91EF91BF917E
:10200000AF919F918F917F916F915F914F913F9190
:102010002F910F900BBE0F900FBE0F901F90189531
:10202000E1E2F3E01382128288EE93E0A0E0B0E0F8
:1020300084839583A683B78385E592E0918380832B
:102040008DEC90E0958784878CEC90E0978786876D
:1020500088EC90E0918B808B89EC90E0938B828B65
:102060008AEC90E0958B848B8EEC90E0978B868B3E
:10207000118E128E138E148E08951F920F920FB62A
:102080000F9211240BB60F922F938F939F93EF9380
:10209000FF93E091CE03F091CF038081E091D403D0
:1020A000F091D50382FD1DC090818091D7038F5F91
:1020B0008F732091D803821741F0E091D703F0E0AD
:1020C000E254FC4F958F8093D703FF91EF919F913E
:1020D0008F912F910F900BBE0F900FBE0F901F90FE
:1020E00018958081F2CF1F920F920FB60F92112494
:1020F0000BB60F922F933F934F935F936F937F9302
:102100008F939F93AF93BF93EF93FF938EEB93E0E7
:10211000AFDDFF91EF91BF91AF919F918F917F9133
:102120006F915F914F913F912F910F900BBE0F9048
:102130000FBE0F901F901895EEEBF3E01382128202
:1021400088EE93E0A0E0B0E084839583A683B78314
:1021500085E592E09183808385ED90E09587848783
:1021600084ED90E09787868780ED90E0918B808B5F
:1021700081ED90E0938B828B82ED90E0958B848B48
:1021800086ED90E0978B868B118E128E138E148EB7
:1021900008951F920F920FB60F9211240BB60F9253
:1021A0002F938F939F93EF93FF93E0916B04F091A4
:1021B0006C048081E0917104F091720482FD1DC075
:1021C0009081809174048F5F8F73209175048217C2
:1021D00041F0E0917404F0E0E55AFB4F958F809355
:1021E0007404FF91EF919F918F912F910F900BBEEF
:1021F0000F900FBE0F901F9018958081F2CF1F9205
:102200000F920FB60F9211240BB60F922F933F939C
:102210004F935F936F937F938F939F93AF93BF93EE
:10222000EF93FF938BE594E023DDFF91EF91BF9156
:10223000AF919F918F917F916F915F914F913F915E
:102240002F910F900BBE0F900FBE0F901F901895FF
:10225000EBE5F4E01382128288EE93E0A0E0B0E0B8
:1022600084839583A683B78385E592E091838083F9
:1022700085E391E09587848784E391E0978786875B
:1022800080E391E0918B808B81E391E0938B828B53
:1022900082E391E0958B848B86E391E0978B868B2C
:1022A000118E128E138E148E0895AF92BF92CF921C
:1022B000DF92EF92FF920F931F93CF93DF936C0106
:1022C0007B018B01040F151FEB015E01AE18BF08E7
:1022D000C017D10759F06991D601ED91FC91019099
:1022E000F081E02DC6011995892B79F7C501DF91A1
:1022F000CF911F910F91FF90EF90DF90CF90BF9003
:10230000AF900895A1E21A2EAA1BBB1BFD010DC0C0
:10231000AA1FBB1FEE1FFF1FA217B307E407F50795
:1023200020F0A21BB30BE40BF50B661F771F881F71
:10233000991F1A9469F760957095809590959B0107
:10234000AC01BD01CF010895EE0FFF1F881F8BBFA9
:102350000790F691E02D1994A29FB001B39FC001A0
:10236000A39F700D811D1124911DB29F700D811DC1
:0A2370001124911D0895F894FFCF89
:10237A000000A0000000A000000080BF000080BF95
:10238A000000803F000048420000C84100000000F1
:10239A0000006801000000000000000000000000CA
:1023AA0000000000000000000000FE010000000024
:1023BA000000FE01000000000096C08080800176C7
:1023CA000200000000790E5511290E5A0EFB0D1558
:0423DA000E070E00DC
:00000001FF
