:10000000F8C0000027C1000025C1000023C1000086
:1000100021C100001FC100001DC100001BC1000064
:1000200019C1000017C1000015C1000013C1000074
:1000300011C100000FC100000DC100000BC1000084
:1000400009C1000007C1000005C1000003C1000094
:1000500001C10000FFC00000FDC000000C94192782
:10006000F9C000000C94192A0C944F2AF3C0000028
:10007000F1C00000EFC00000EDC00000EBC00000C8
:10008000E9C00000E7C00000E5C00000E3C00000D8
:100090000C94A52A0C94DB2ADDC00000DBC0000014
:1000A000D9C00000D7C00000D5C00000D3C00000F8
:1000B000D1C00000CFC00000CDC00000CBC0000008
:1000C000C9C00000C7C000000C94C8230C94312B99
:1000D0000C94672BBFC000000C94BD2B0C94F32B29
:1000E000B9C0000000000A0B02090C0D0E0807033E
:1000F00004010000000000000000000000000000FB
:1001000000000000000000000000000000000000EF
:1001100012111000000000000000000000000000AC
:100120000000000000000000000001021020200874
:100130000810204010204080020102010804020142
:1001400001020408102040808040201008040201B1
:10015000800402018040201008040201080402010A
:100160000102040810204080010204081020408091
:1001700005050505070508080808020202020A0A23
:100180000808040404040101010101010101030341
:10019000030303030303040707070C0C0C0C0C0CEC
:1001A0000C0C0202020206060606060606060B0BE9
:1001B0000B0B0B0B0B0B00002200250028002B0063
:1001C0002E003100340002010000050108010B017E
:1001D00000002100240027002A002D0030003300F9
:1001E00001010000040107010A01782A042B902B69
:1001F0001C2C11241FBECFEFD1E2DEBFCDBF00E02B
:100200000CBF12E0A0E0B2E0EEEDF9E500E00BBFBC
:1002100002C007900D92A43EB107D9F728E0A4EEE2
:10022000B2E001C01D92A339B207E1F710E0C9EFB7
:10023000D0E000E006C021970109802FFE010E9456
:10024000BC2CC53FD10780E00807A9F70E94E32432
:100250000C94ED2CD5CE611102C00C94862861302F
:10026000E1F362E0FACF662319F061E00C94C22852
:1002700060E0FCCF90E080E008950F931F9300971B
:1002800009F487C06115710509F483C00091280243
:100290001091290220912A0230912B020E3F1F4F0C
:1002A0002F4F3F4F09F066C04FEF5FEFBA01409309
:1002B00028025093290260932A0270932B024091E6
:1002C00028025091290260912A0270912B02DC01D0
:1002D0001296ED91FC9180819181A281B3818093EE
:1002E0005A0390935B03A0935C03B0935D038481F6
:1002F0009581A681B7818093560390935703A0936D
:100300005803B093590380859185A285B385809366
:10031000520390935303A0935403B09355038485E1
:100320009585A685B78580934E0390934F03A09340
:100330005003B093510310924A0310924B03109252
:100340004C0310924D030DD686ED97E09093E50295
:100350008093E4029093E7028093E602F1D4009741
:1003600031F421E030E030935F0320935E031F916E
:100370000F910895009128021091290220912A02DC
:1003800030912B02DB010D931D932D933C9313971A
:1003900096CF8FEF9FEFEBCF8F929F92AF92BF924E
:1003A000CF92DF92EF92FF921F93CF93DF934B0197
:1003B0005C011091610382E090E090935F03809371
:1003C0005E0381149104A104B10441F4809161039E
:1003D000811104C080916003C1E08111C0E0C12C93
:1003E000D12C760180916103811106C08091600358
:1003F000811102C0CC23D9F083E090E090935F0399
:1004000080935E03CC2379F1CCE9DFEF111102C0B8
:100410000E943A0BCE01DF91CF911F91FF90EF9098
:10042000DF90CF90BF90AF909F908F9008956AE03B
:1004300070E080E090E00E94882780E1C80E87E2AB
:10044000D81EE11CF11C8FEF88169806A806B80686
:1004500031F0C1E08C149D04AE04BF0408F0C0E08C
:1004600080E0A2D4BFCFD0E0C0E0D0CFCF92DF9267
:10047000EF92FF920F931F93CF93DF938F3F9105DE
:1004800011F008F050C020915E0330915F032330DB
:10049000310539F020915E0330915F032130310541
:1004A00031F424E030E030935F0320935E036A016F
:1004B0007B01EC0182309105A0F011E0AE01C70193
:1004C000B6013DD4AB01BC01CE011123F9F0DF919F
:1004D000CF911F910F91FF90EF90DF90CF900C94F0
:1004E000630D8C01000F111F0C511D4FD8018D9110
:1004F0009C91892B11F30E946D0D0297F1F6D801A2
:10050000ED91FC91CE011995182FD8CF0E94850D41
:1005100090E080E0DF91CF911F910F91FF90EF90DD
:10052000DF90CF9008958FEF9FEFF4CF80E03CC431
:10053000CF93DF9386E090E090935F0380935E0318
:100540008CD4EC01E4EEF2E084E0DF011D928A95A8
:10055000E9F70E94D20A10925F0310925E03CE0167
:10056000DF91CF91089580916003089580914903B0
:100570000895609328027093290280932A02909331
:100580002B0290E080E008954F925F926F927F92ED
:100590008F929F92AF92BF92CF92DF92EF92FF9293
:1005A0000F931F93CF93DF9300D000D0CDB7DEB76A
:1005B0008090100290901102A0901202B09013024D
:1005C000209108023091090240910A0250910B02D9
:1005D000C501B4010E94B6266B017C01C0924A0895
:1005E000D0924B08E0924C08F0924D0820910C02FA
:1005F00030910D0240910E0250910F02C501B401DD
:100600000E94B6264B015C0180924E0890924F08E2
:10061000A0925008B092510880910002909101027E
:10062000A0910202B091030289839A83AB83BC83B9
:1006300040900402509005026090060270900702FC
:10064000A3019201C501B4010E94D025881F88270B
:10065000881F11E0182729813A814B815C81C701ED
:10066000B6010E94D02587FD73C190912702892F82
:1006700090E0112309F46EC1A09126022A2F30E0E8
:10068000220F331F3E832D83012F90E080E0AD8148
:10069000BE81A80FB91FBE83AD8329813A814B81EA
:1006A0005C81C701B6010E94D02587FF36C1A30136
:1006B0009201C501B4010E94D02587FF2EC180910F
:1006C0002402B8E08B9FC00111242D813E81280FA8
:1006D000391F3A83298390E080E0101731F0809130
:1006E000250234E0839FC0011124A981BA81A80F9B
:1006F000B91F83E0B695A7958A95E1F7BA83A983D8
:10070000A093560819811295117010935208B9815F
:10071000B295B695B7708B2F8170809353082B2FAD
:1007200030E08B2F869581708093540836952795FD
:10073000369527953A83298389818D83209355089F
:10074000C0908708D0908808E0908908F0908A08C7
:10075000C701B6010E9402262B013C0120911C0218
:1007600030911D0240911E0250911F020E94D0251F
:1007700087FFD6C0F7FCD4C0809014029090150279
:10078000A0901602B090170220E030E040E85FE34E
:10079000609118027091190280911A0290911B02C7
:1007A0000E946B259B01AC01C301B2010E94B226DD
:1007B00087FDBAC0109287081092880810928908A5
:1007C00010928A08AD81AA2309F4BCC0B1E0B983B4
:1007D00020E030E0A901C501B4010E94D0258111BB
:1007E000198209811111B1C01D826D818DE03BDD3F
:1007F0006D818AE038DD80915308811101C0198232
:1008000069818CE030DD698189E02DDD80915408BB
:10081000882321F081E08983011101C01982698157
:1008200088E021DD69818BE01EDDC0901C03D09043
:100830001D03E0901E03F0901F039FEFC91AD90A11
:10084000E90AF90AC0921C03D0921D03E0921E032C
:10085000F0921F03C114D104E104F10499F48091D2
:10086000200390912103A0912203B09123030196CC
:10087000A11DB11D8093200390932103A093220317
:10088000B09323038090240390902503A090260327
:10089000B09027036091200370912103809122037F
:1008A000909123030E940026A50194010E94B62680
:1008B00020E030E040E85FE40E94B6262B013C01D6
:1008C000C701B6010E940026A50194010E94B62628
:1008D0009B01AC01C301B2010E946C256093180317
:1008E0007093190380931A0390931B0326960FB6F7
:1008F000F894DEBF0FBECDBFDF91CF911F910F9156
:10090000FF90EF90DF90CF90BF90AF909F908F902F
:100910007F906F905F904F90089590E080E0D5CEEB
:10092000812C912C540130CF9FEFC91AD90AE90AC2
:10093000F90AC0928708D0928808E0928908F0925C
:100940008A0840CF21E029834CCF39813D834DCFA8
:1009500090E080E000E01E821D8299CECF92DF926F
:10096000EF92FF921F93CF93DF93E2E0F3E08BE2ED
:10097000DF011D928A95E9F780E090E0A0E8BFEBE7
:1009800086A397A3A0A7B1A780E090E0A0E8BEE36C
:1009900082A393A3A4A3B5A38AEA92E7AEE2B6E941
:1009A00084839583A683B78384E39CE2A6E0BBE5BA
:1009B00080879187A287B3878DEB9EEBA2E8B8EC86
:1009C00084879587A687B78780E293ECA5E6B5E58F
:1009D000808B918BA28BB38BA6EFB2E0B383A28303
:1009E000E8EEF2E01196FC93EE9381E592E09183BC
:1009F000808393838283958384839783868391877F
:100A00008087938782879587848786E193E0159610
:100A10009C938E93149786E093E013969C938E9309
:100A2000129788E193E017969C938E931697EAE4C9
:100A3000F8E08DE0DF011D928A95E9F7C7E5D8E07F
:100A40008AE3FE0111928A95E9F711E019AFC12CF2
:100A5000D12C7601C394C9A6DAA6EBA6FCA661E068
:100A60008DE0F9DB1DA718A218AFC9A2DAA2EBA28C
:100A7000FCA261E08AE0EFDB1DA3188E1FABC98EDC
:100A8000DA8EEB8EFC8E61E08CE0E5DB1D8F188A40
:100A90001EABC98ADA8AEB8AFC8A61E089E0DBDB7B
:100AA0001D8B18861DABC986DA86EB86FC8661E055
:100AB00088E0D1DB1D8718821CABC982DA82EB8209
:100AC000FC8261E08BE0C7DB1D83DF91CF911F913A
:100AD000FF90EF90DF90CF90089580917F08811173
:100AE00003C081E080937F0880917708811103C063
:100AF00081E08093770880916F08811103C081E0C5
:100B000080936F0880916708811103C081E0809312
:100B1000670880915F08811103C081E080935F08BE
:100B200080915708811103C081E080935708089590
:100B30004F925F926F927F928F929F92AF92BF92ED
:100B4000CF92DF92EF92FF920F931F93F894409011
:100B5000390350903A0360903B0370903C03C0907F
:100B60002D03D0902E03E0902F03F0903003452BFF
:100B700009F0A6C09B01AC012419350946095709A3
:100B800029013A0100913503109136032091370372
:100B90003091380348015901840C951CA61CB71CE0
:100BA00080169106A206B306A0F4009131031091BD
:100BB000320320913303309134030F5F1F4F2F4FC7
:100BC0003F4F00933103109332032093330330934C
:100BD00034038092350390923603A0923703B0928B
:100BE0003803009131031091320320913303309187
:100BF000340380923D0390923E03A0923F03B09253
:100C00004003009341031093420320934303309326
:100C100044036093390370933A0380933B039093AA
:100C20003C03A301920160E970ED83E090E00E9433
:100C3000772C6C0D7D1D8E1D9F1D60932D03709371
:100C40002E0380932F03909330030091280210917C
:100C5000290220912A0230912B020F3F1F4F2F4F64
:100C60003F4FF1F0009128021091290220912A02B1
:100C700030912B020E3F1F4F2F4F3F4F89F0C090F6
:100C80002802D0902902E0902A02F0902B0221E065
:100C90008C149D04AE04BF0408F420E020934903A3
:100CA00078941F910F91FF90EF90DF90CF90BF90BD
:100CB000AF909F908F907F906F905F904F9008952E
:100CC0004B015C0184189508A608B708A30192019E
:100CD000261B370B480B590B6415750586059705C0
:100CE000E0F082169306A406B50640F420E030E05A
:100CF000A90181149104A104B104A1F460E970ED8B
:100D000083E090E00E94772CA7019601261B370B09
:100D1000480B590BCA01B901C3CF82169306A4062A
:100D2000B50660F7A501940160E970ED83E090E0FD
:100D30000E94772C6C0D7D1D8E1D9F1DB1CFF8CEAE
:100D4000CF93DF9300D01F92CDB7DEB71C821B82FA
:100D50001A8219821092450310924603109247039B
:100D600010924803BE016F5F7F4FCE0103960E9431
:100D7000992369817A818B819C810E94891C0097CB
:100D800061F4BE016F5F7F4FCE0103960E94A523E1
:100D900069817A818B819C812ED50F900F900F9065
:100DA0000F90DF91CF910895FF920F931F93CF93F0
:100DB000DF93082F60E070E0CB010E948827FF24BA
:100DC000F3940E94721BEC01892B89F010E0CE3F56
:100DD0008FEFD80769F0002361F160E070E0CB018C
:100DE0000E94882781E090E0892B59F322C011E00E
:100DF00025D5EC01892B21F0CE3F8FEFD80759F78D
:100E000011111EC011E0229609F410E00E94221B6D
:100E1000EC01892B21F0CE3F8FEFD807E1F61111BD
:100E200011C011E0CE3F8FEFD80709F410E0011197
:100E30000BC0CE01DF91CF911F910F91FF900895CC
:100E400011E0E4CF11E0F3CF60E070E0CB010E944D
:100E500088271F25812F90E0C7CFCF93DF93809104
:100E60004903882321F060E070E0CB014CD635D6F1
:100E7000D0E0C0E0892B71F06AE070E080E090E0A3
:100E80000E94882781E090DF28D62196C03D27E088
:100E9000D20781F727D60E94DD1C109261031092C1
:100EA000600310925A0310925B0310925C0310923D
:100EB0005D0310925603109257031092580310923C
:100EC000590310925203109253031092540310923C
:100ED000550310924E0310924F031092500310923C
:100EE000510310924A0310924B0310924C0310923C
:100EF0004D034EEF5FEF6FEF7FEF4093280250936B
:100F0000290260932A0270932B0210924903EDE3A9
:100F1000F3E028E0DF011D922A95E9F710923903EA
:100F200010923A0310923B0310923C031092350347
:100F30001092360310923703109238031092310347
:100F400010923203109233031092340310922D0347
:100F500010922E0310922F0310923003DF91CF9145
:100F6000089510926D0310926E0310926F03109209
:100F7000700310926C0380917503909176039093A7
:100F80006B0380936A0310926903109268031092B6
:100F90006403109265031092660310926703109227
:100FA00072031092710390E080E00895CF92DF9277
:100FB000EF92FF920F931F93CF938C01892B09F02F
:100FC00055C0209175033091760380916A0390910A
:100FD0006B03409175035091760350936B034093DC
:100FE0006A032817390781F0109269031092680389
:100FF00010926403109265031092660310926703C7
:101000001092720310927103809175039091760390
:10101000019761F58091710390917203892B21F4FE
:1010200080912C02811112C0809171039091720302
:101030000197E1F48091640390916503A0916603A8
:10104000B09167030197A105B10581F41092640383
:1010500010926503109266031092670310922C029F
:1010600082E090E090937203809371038091750306
:1010700090917603019709F01CC180918B039091A8
:101080008C038017910709F014C180918703909118
:101090008803A0918903B0918A03009709F409C1DC
:1010A0002091860321110DC0409187035091880340
:1010B0006091890370918A03452B462B472B09F4D5
:1010C000F8C020917103309172032230310509F08C
:1010D000F0C0209168032111ECC0FC01C080D180D8
:1010E000E280F38080916C03882309F4D3C080915F
:1010F000780390917903892B09F4FDC0209178033E
:101100003091790381E02230310509F080E02091AF
:10111000780330917903C1E02130310549F0209105
:10112000780330917903C1E02230310509F0C0E045
:10113000882309F456C020918203309183034091A3
:10114000840350918503C701B6010E94B22687FD32
:1011500014C0209182033091830340918403509105
:10116000850360916D0370916E0380916F03909180
:1011700070030E94D02587FD22C020918203309108
:1011800083034091840350918503C701B6010E94F7
:10119000B226181634F520918203309183034091D2
:1011A00084035091850360916D0370916E0380916B
:1011B0006F03909170030E94D025811112C080911D
:1011C0007A0390917B03A0917C03B0917D03892BDE
:1011D0008A2B8B2B19F481E08093690381E0809343
:1011E0006803CC2309F456C0209182033091830315
:1011F0004091840350918503C701B6010E94D02518
:1012000087FF14C0209182033091830340918403AF
:101210005091850360916D0370916E0380916F030F
:10122000909170030E94B22687FF22C02091820312
:10123000309183034091840350918503C701B60127
:101240000E94D025811126C0209182033091830312
:10125000409184035091850360916D0370916E03FA
:1012600080916F03909170030E94B226181694F437
:1012700080917A0390917B03A0917C03B0917D03D0
:10128000892B8A2B8B2B19F481E08093690381E0F1
:101290008093680381E090916803911180E08093CE
:1012A0006C03C0926D03D0926E03E0926F03F092D4
:1012B0007003012B09F067C1809171039091720353
:1012C000892BD9F4109277031092680380912C0235
:1012D000882379F082E090E0909372038093710309
:1012E00010922C02209175033091760381E0232B1C
:1012F000E9F080E01BC081E00ACF10922C028091BF
:101300007703882349F010926903109272031092B8
:10131000710310927703EDCF80917503909176035E
:10132000892BE1F08091680310926803209171038A
:10133000309172032230310509F45EC088F4211522
:10134000310509F448C02130310509F4F3C0109289
:101350006903109268031092770338C081E0E6CFEA
:101360002330310509F4B1C02430310581F74091B3
:1013700064035091650360916603709167034115A2
:1013800051056105710561F041505109610971090B
:1013900040936403509365036093660370936703FF
:1013A00040916403509165036091660370916703F7
:1013B000452B462B472BD9F42091730330917403AE
:1013C0002130310509F046C0109269031092720372
:1013D000109271030CC080912C02882341F082E0AE
:1013E00090E0909372038093710310922C021092FC
:1013F000620380916903CEC08823C9F380917A0388
:1014000090917B03A0917C03B0917D03181619067F
:101410001A061B060CF07DC080917503909176032F
:10142000019709F076C080917A0390917B03A09197
:101430007C03B0917D038093640390936503A09334
:101440006603B093670383E090E090937203809308
:101450007103CDCF40917E0350917F036091800353
:1014600070918103452B462B472BA9F010926903FD
:1014700080917E0390917F03A0918003B0918103BE
:101480008093640390936503A0936603B09367030E
:1014900081E090E0DACF882399F080912D0290913D
:1014A0002E02A0912F02B09130028093640390939A
:1014B0006503A0936603B093670384E090E0C5CF13
:1014C0001092690382E090E0C0CF80916403909114
:1014D0006503A0916603B09167030097A105B1056C
:1014E00059F00197A109B1098093640390936503B2
:1014F000A0936603B09367038091640390916503A2
:10150000A0916603B0916703892B8A2B8B2B09F07E
:101510006ECF80912D0290912E02A0912F02B0915A
:101520003002892B8A2B8B2B09F44ECF81E08093DC
:101530006903B3CF409164035091650360916603E2
:1015400070916703411551056105710561F04150C6
:1015500051096109710940936403509365036093D5
:101560006603709367034091640350916503609133
:10157000660370916703452B462B472B09F037CF45
:101580008111C7CF9FCF80916203882309F431CFA7
:1015900080916303CF911F910F91FF90EF90DF90A7
:1015A000CF90089510926D0310926E0310926F0306
:1015B0001092700310926C031092720310927103D8
:1015C00010926B0310926A0310928C0310928B039B
:1015D00010926903109268031092640310926503DD
:1015E00010926603109267031092630310926203D5
:1015F00010928703109288031092890310928A0335
:101600001092860310928203109283031092840337
:101610001092850388EE93E0A0E0B0E080932D0265
:1016200090932E02A0932F02B093300210927E036B
:1016300010927F03109280031092810310927A031C
:1016400010927B0310927C0310927D031092790319
:101650001092780381E080932C021092770310920D
:10166000760310927503109274031092730390E046
:1016700080E008958091750390917603892B19F588
:1016800080912C02882351F080917703811106C04C
:1016900081E0809363038093620308952091770330
:1016A00030912C0281E090E0332311F090E080E053
:1016B00030E082239323892B21F01092630381E091
:1016C000EACF10926203089582E090E0FA019183DC
:1016D00080838FEF9FEF0895CF93DF93EA01009708
:1016E00011F00E94FD1D1982188290E080E0DF91C8
:1016F000CF910895DB01009719F48FEF8C93089533
:101700002EEF2C93FC013F96EF30F10508F034C02A
:101710008827E257F44F8F4F0C94BC2CBA0BB80BB0
:10172000B60BB40BB20BAE0BB00BAC0BAA0BA80BE9
:10173000A50BA10B9D0BA30BBC0B80E311968C9307
:10174000089589E2FBCF82E2F9CF11961C920895A9
:1017500083E2F4CF81E2F2CF81E1F0CF87E2EECFF6
:101760008AE2ECCF80E1EACF84E2E8CF88E2E6CFFC
:1017700086E2E4CF81E3E2CF80E2E0CF809199037B
:1017800090919A03089590939A03809399030895F2
:1017900080919803089590919803892B80939803E2
:1017A0000895982F909580919803892380939803AA
:1017B00008958091970308958091950390919603E1
:1017C00008956115710559F0FB0130E020E070E0EB
:1017D00060E02417350719F06115710511F0CB0190
:1017E0000895A081B181A817B90709F4BF012F5F3F
:1017F0003F4F3696EECF80919B0381111CC060D283
:1018000066D290938E0380938D030E94FB150E94F5
:101810000D1690939203809391030E948A1A0E945E
:10182000911A9093900380938F0381E080939B03A0
:1018300090E080E0089584EF9FEF08958F929F924B
:10184000AF92BF92CF92DF92EF92FF920F931F93CE
:10185000CF93DF9300D000D000D01F92CDB7DEB77A
:101860001A86198618861F821E821D821C821B8280
:101870001A82198280919B0307EF1FEF882309F4D6
:101880009CC08E010D5F1F4F9E012B5F3F4FAE012D
:10189000495F5F4FBE01675F7F4F90E080E00E942D
:1018A0000E1C8C01009721F00596029708F0DBC012
:1018B00029853A852115310509F402C1ED80FE80A4
:1018C0004B815C81B701640F751F8F8198858617E6
:1018D000970708F4F5C0E20EF31ED7019C91903CE7
:1018E00009F07FC04230510508F47BC011968C91FD
:1018F0004091990350919A03452B09F49CC0913F64
:1019000008F071C02CE1290F2D3008F48BC02DE2B6
:10191000290F203108F489C0903C21F48150823095
:1019200008F483C088E3890F8B3008F481C09AE7FC
:10193000C92E9BE0D92EE4E6FBE06D817E81AE01ED
:101940004F5F5F4F89859A8519955C01C114D10459
:10195000A1F189809A808114910479F18B819C8115
:101960008815990508F487C010E000E04B815C8180
:1019700070E060E0C7010E94E62C01151105E9F452
:1019800049815A8169857A858D819E81680F791F89
:10199000C501F6011995E980FA800D811E812F811C
:1019A000388549855A856FEF7FEF81E090E00E948E
:1019B000A91B8C01892B09F056C0C8012A960FB6C5
:1019C000F894DEBF0FBECDBFDF91CF911F910F9175
:1019D000FF90EF90DF90CF90BF90AF909F908F904F
:1019E000089580E085CF30E020E0220F331FF90119
:1019F000E357FC4F0190F081E02D309709F497CF29
:101A0000892F90E01995009709F491CFDC01129687
:101A1000ED91FC9113971496CD90DC90309709F0DE
:101A20008CCF1FC021E030E0E0CF22E030E0DDCFFE
:101A300023E030E0DACFD12CC12CECE6FBE09F3F75
:101A400009F07BCFE0918D03F0918E03309721F464
:101A5000C90104EF1FEF0CC08FEF90E019950097BC
:101A6000A9F604EF1FEF89859A85009709F4A5CFA1
:101A70000E94FD1DA2CF0E94D81C8C0189859A85E9
:101A80000E94FD1D70E060E0C4010E94711C9887F7
:101A90008F830E94A61B9E838D836F81788561153D
:101AA000710559F0C8010E94891F9A87898706EF3E
:101AB0001FEF892B09F058CF59CF08EF1FEF56CFF2
:101AC00008EF1FEFD0CF20919B03222319F020E0D5
:101AD0000C94121687EF9FEF0895809199039091CF
:101AE0009A0308950E94961A0E94F019F5D0EDE825
:101AF000F3E088E0DF011D928A95E9F710929B03DD
:101B000090E080E008950C944E1821E040E050E011
:101B1000BA010C94121686E090E0FA01918380835A
:101B200090E080E0089547E050E064E572E049CE3F
:101B3000DF92EF92FF920F931F93CF93DF938A016F
:101B4000EC01C60FD71FE0909F03F090A003D9804F
:101B50000E94C01CD816190678F082E090E0F801C7
:101B6000918380838EEF9FEFDF91CF911F910F9133
:101B7000FF90EF90DF900895EF2841F482E090E02D
:101B8000F8019183808384EF9FEFEECF898180936A
:101B90009E0390E00196F8019183808390E080E0BD
:101BA000E3CFCF93DF93EA010E94FF18882321F04F
:101BB0000E94CD1C0E94001982E090E099838883E6
:101BC0008BEF9FEFDF91CF910895CF93DF93EB01E0
:101BD00086E0FB0111928A95E9F78FEF8883D8DDC3
:101BE0008983E7DD8A83E8DD9D838C83DF91CF9154
:101BF0000895CF93DF93EA010E940219811109C071
:101C000082E090E09983888385EF9FEFDF91CF9109
:101C1000089590E080E0B7DD81E090E099838883CB
:101C200090E080E0F3CF0F931F93CF93DF93EA010F
:101C30008C01060F171F0E94021981110BC082E050
:101C400090E09983888385EF9FEFDF91CF911F917B
:101C50000F910895F8018181823038F082E090E0A0
:101C6000998388838EEF9FEFF0CF81E090E08BDD4A
:101C700088E090E09983888390E080E0E6CFCF937E
:101C8000DF930097D1F4EB01FB01329686E0DF0190
:101C90001D928A95E9F78FEF888385E089831A8200
:101CA0000E94C01C8B830E94BF1C9D838C8381E09B
:101CB0008E838F83DF91CF910895DF91CF911ACDDD
:101CC00083E99DE090939D0380939C030895809108
:101CD0009C0390919D03089510929D0310929C0384
:101CE000089580919F039091A0030895411105C02C
:101CF000611571058105910561F060939F037093F3
:101D0000A0038093A1039093A2034093A30381E0D7
:101D1000089580E00895FF920F931F93CF93DF9370
:101D20008A01EC01C60FD71FF9800E94C01CF8166B
:101D3000190668F082E090E0F801918380838EEFCD
:101D40009FEFDF91CF911F910F91FF9008956C81CC
:101D50007D818E819F814B81C9DF811108C082E026
:101D600090E0F8019183808384EF9FEFEACF89812F
:101D700080939E0390E00196F8019183808390E028
:101D800080E0DFCFCF93DF93EA01FC01E60FF71F7E
:101D900064817581868197814381A8DF811109C0A3
:101DA00082E090E09983888384EF9FEFDF91CF9169
:101DB000089581E090E09983888390E080E0F6CFF9
:101DC000EFE9F3E04081518162817381480F511D39
:101DD000611D711D40835183628373830895CF9386
:101DE000C0919E034C2F50E060919F037091A0031F
:101DF00001960E94DD2C8C2FE3DF10929E03CF9181
:101E00000895009799F480919F039091A0032FEF7C
:101E1000FB012083892B59F020919E0330E02F5F36
:101E20003F4F2417350719F4CB01D9CF63CC089560
:101E3000009799F480919F039091A0032FEFFB01ED
:101E40002083892B59F020919E0330E02F5F3F4F74
:101E50002417350719F4CB01C2CF4CCC089523E1E8
:101E6000AC01249FC001259F900D1124E091A8038F
:101E7000F091A903E80FF91F238134812250310921
:101E800081E02230310508F080E008950F931F9320
:101E9000CF93DF930091AA031091AB03D0E0C0E091
:101EA00080E00C171D0749F491E0811190E0892F23
:101EB000DF91CF911F910F9108958111F5CFCE0140
:101EC000CEDF2196EECFA091A803B091A903109781
:101ED00029F12091AA033091AB0382179307F0F404
:101EE00053E1589F9001599F300D1124A20FB31F49
:101EF000ED91FC911197309789F012968C916817AB
:101F000068F48DE0689FE00DF11D112480819181BE
:101F1000892B21F081E09281491708F080E0089533
:101F20009C0143E1429FC001439F900D1124E09129
:101F3000A803F091A903E80FF91F8385823091F47B
:101F400081E090E0658176814091310250913202CA
:101F50006417750711F490E080E0892B19F081E097
:101F6000232B09F080E00895FC01A081B1818DE070
:101F7000689FA00DB11D112413964D915C9185852C
:101F80009685489F9001499F300D589F300D112430
:101F9000C9010196611103C0478144FD049608956B
:101FA000EF92FF920F931F93CF93DF93EA01FC010F
:101FB000E60FF71F02811381E480F5804F2D6E2D0F
:101FC000C80181DF81110DC082E090E09983888390
:101FD0008EEF9FEFDF91CF911F910F91FF90EF90C8
:101FE0000895C8013CDF882339F082E090E09983AE
:101FF000888388EF9FEFEECF10933802009337026B
:10200000E0923902F0923A0281E090E0998388836D
:1020100090E080E0DFCFCF92DF92EF92FF920F93BC
:102020001F93CF93DF937A01EC01C60FD71FC090A7
:102030003702D09038020091390210913A02412FB4
:10204000602FC60140DF811110C082E090E0F701EF
:10205000918380838AEF9FEFDF91CF911F910F9142
:10206000FF90EF90DF90CF900895C601F8DE8823AF
:1020700041F082E090E0F7019183808388EF9FEF49
:10208000EBCF4C815D816E817F819A8189818F3F09
:1020900041F082E090E0F701918380838EEF9FEF23
:1020A000DBCFE3E1EC9D9001ED9D300D1124E0913B
:1020B000A803F091A903E20FF31F0190F081E02D36
:1020C0002DE0029FE00DF11D11240190F081E02D23
:1020D00027E0129FE00DF11D1124808391838B81F5
:1020E000828343835483658376831F5F10933A0210
:1020F00081E090E0F7019183808390E080E0ACCFB5
:10210000EF92FF920F931F93CF93DF937A018C018D
:10211000060F171FC091A803D091A903209781F043
:1021200021E030E0F801828193814091AA0350912F
:10213000AB038417950710F030E020E0232B71F4F7
:1021400082E090E0F701918380838EEF9FEFDF9133
:10215000CF911F910F91FF90EF90089543E1489F19
:102160009001499F300D1124C20FD31F78DE8823C0
:1021700041F082E090E0F7019183808388EF9FEF48
:10218000E6CFF8012481358120383105C8F68781F2
:102190008111D6CF4181842F90E08F7E009741F04E
:1021A00082E090E0F7019183808386EF9FEFCFCFAD
:1021B0004F833E832D83268128871986223010F491
:1021C00021E0288721E030E0F70131832083BFCF71
:1021D00088E090E0FA019183808390E080E00895A8
:1021E000FB018FEF808381E181838FEF9FEF9383EA
:1021F000828380E890E09583848316821782089515
:10220000FB018FEF808391E09183828393838483AA
:1022100084E3858381E090E0978386830895DF924D
:10222000EF92FF920F931F93CF93DF93EA01FC018C
:10223000E60FF71F8181813071F082E090E0998391
:1022400088838FEF9FEFDF91CF911F910F91FF90C8
:10225000EF90DF90089582819381D4802581E6807C
:10226000F7800091A8031091A9030115110539F415
:1022700082E090E0998388838CEF9FEFE4CF4091D8
:10228000AA035091AB038417950738F082E090E0E1
:10229000998388838EEF9FEFD6CF892B39F082E028
:1022A00090E09983888386EF9FEFCDCF8D2D8D7F32
:1022B000B1F72130A1F781E0D11006C091E0E91615
:1022C000F10431F080E004C0E2E0EE16F104D0F356
:1022D000882329F390E080E0C2DD882339F082E092
:1022E00090E09983888388EF9FEFADCFF801D38684
:1022F00081E08487F686E586108A178681E090E083
:102300009983888390E080E09ECF4CE050E06EE7B8
:1023100072E057CA8F929F92BF92CF92DF92EF9254
:10232000FF920F931F93CF93DF93EA01FC01E60F17
:10233000F71F828193810481B580E091A803F09119
:10234000A903309791F482E090E0998388838CEF21
:102350009FEFDF91CF911F910F91FF90EF90DF9052
:10236000CF90BF909F908F9008952091AA033091B5
:10237000AB038217930738F082E090E0998388835B
:102380008EEF9FEFE6CF23E1289F6001299FD00CBD
:102390001124EC0DFD1DE080F180E114F10499F2AF
:1023A0008281081748F78DE0089F80011124E00E14
:1023B000F11EF70180819181892B29F6BB20E1F282
:1023C000F7E0BF9E40011124C4010E94C41DF70123
:1023D00091838083E091A803F091A903EC0DFD1D8A
:1023E0000190F081E02DE00FF11F80819181009735
:1023F00039F482E090E0998388838DEF9FEFA9CF35
:10240000A40170E060E00E94E62C8091A803909106
:10241000A903C80ED91EF60180819181080F191FEA
:10242000F801B28281E090E09983888390E080E0B7
:1024300090CFAF92BF92CF92DF92FF920F931F93F4
:10244000CF93DF93EA01FC01E60FF71F82819381AE
:10245000F4800091A8031091A9030115110581F4DE
:1024600082E090E0998388838CEF9FEFDF91CF919A
:102470001F910F91FF90DF90CF90BF90AF90089584
:102480002091AA033091AB038217930738F082E0C2
:1024900090E0998388838EEF9FEFE8CF2FEF2F0D89
:1024A0002C3FA8F723E1289F6001299FD00C11241D
:1024B0000C0D1D1DF80180819181892B89F6FDE0AD
:1024C000FF9E50011124C5010E94C41DF801918393
:1024D0008083E091A803F091A903EC0DFD1D80819C
:1024E0009181009739F482E090E0998388838DEFA1
:1024F0009FEFBCCFA50170E060E00E94E62CE09168
:10250000A803F091A903EC0DFD1DF28281E090E09B
:102510009983888390E080E0A9CFCF92DF92EF92F9
:10252000FF920F931F93CF93DF93860F971FFC01AA
:10253000028113818091A8039091A903892B81F0D6
:1025400082E090E0FA01918380838CEF9FEFDF912E
:10255000CF911F910F91FF90EF90DF90CF90089552
:10256000C801B0E0A0E00197A109B1098F3F9F4FDA
:10257000A105B10540F082E090E0FA0191838083EB
:102580008EEF9FEFE4CF7A0183E1809F6001819F0E
:10259000D00C1124C6010E94C41DEC01009741F427
:1025A00082E090E0F701918380838DEF9FEFCFCFA2
:1025B000A60170E060E00E94E62CD093A903C093CE
:1025C000A8031093AB030093AA0390E080E02FEFE1
:1025D0003FEF41E061E070E08017910741F481E056
:1025E00090E0F7019183808390E080E0B0CF3A8B58
:1025F000298B1B864C877E876D87188A1F860196DC
:102600006396EACFEF92FF921F93CF93DF93EC0193
:1026100010E0F12CE12C6A811617B0F083E0689F7E
:10262000B0011124AE014F5E5F4FC7010E94291E09
:10263000009721F02FEF3FEF3A8B298BDF91CF915D
:102640001F91FF90EF900895612FCE018DDC61E026
:1026500070E00E94711CE816F90608F47C011F5F07
:10266000DACFF8942091A6033091A70381E02115D9
:10267000310509F080E0232B09F0789408952F921A
:102680003F924F925F926F927F928F929F92AF9202
:10269000BF92CF92DF92EF92FF920F931F93CF934F
:1026A000DF933C01660E771EF301828193814C011A
:1026B000B12CA12CC091A803D091A903209769F057
:1026C00021E030E06091AA037091AB038617970771
:1026D00010F030E020E0232BD1F482E090E0FA010A
:1026E000918380838EEF9FEFDF91CF911F910F91A8
:1026F000FF90EF90DF90CF90BF90AF909F908F9022
:102700007F906F905F904F903F902F9008958092B0
:102710003B0290923C02A0923D02B0923E0263E1E5
:10272000689F9001699F300D1124C20FD31FF301E0
:102730008181833040F082E090E0FA0191838083D0
:1027400086EF9FEFD1CF2A012B813C81232BF1F41F
:10275000288139819F8191FF2EC0232B09F46FC0FE
:102760002091AD039A81422F490F5527551FBA0179
:1027700041E050E06138710514F050E040E0452B35
:1027800009F45DC02A87920F9093AD038150823087
:1027900008F481C066DF882309F4D8C0F301818181
:1027A000813009F48DC008F47BC0823009F4C6C0C2
:1027B00090E080E0ADC0232B09F441C02091AC0330
:1027C0009A81E22FE90FFF27FF1F41E050E0ED3F24
:1027D000F10514F050E040E0452B89F12A87920F73
:1027E0009093AC03D3CFA081B181A20FB31F1196F8
:1027F0006C91060F111D0196295F3F4F84179507B5
:1028000094F38D859E85089F1001099F300C189FB9
:10281000300C1124C114D104D1F48F8184FF17C06E
:102820000E94BF1CF5E02F0E311C21E0821593059C
:1028300008F420E0A701435F5F4F21110EC082E042
:1028400090E0F2019183808387EF9FEF4DCF0E944C
:10285000BF1C2FEF221A320AE8CF88819981E80E37
:10286000F91EF70114830383FFEFCF1ADF0A7A0101
:102870008A818C151D0409F00CF48CCFE881F98154
:10288000EE0DFF1D428150E030E020E010E000E05E
:1028900090E080E0B3CFF12CE12CD12CC12CE8CF1B
:1028A00081E090E09C838B83F1DA882309F480CF68
:1028B00081E090E00E94C30B80E40E94D10B78CFAE
:1028C00089899A89019661F083E090E09C838B83EB
:1028D00082E090E00E94C30B80E40E94CB0B68CFA3
:1028E0008D819E81209131023091320282179307AF
:1028F000D1F46091350270913602AE014F5E5F4FA8
:1029000080913302909134020E94481F0097E1F2B7
:10291000789422E030E0F20131832083892B99F012
:102920008DEF9FEFE1CE89288A288B2869F6892BC5
:1029300059F6CE0167DE188A1F86E8CF82E090E064
:102940009C838B8335CF90E080E0CECE82E090E018
:10295000F2019183808385EF9FEFC6CE8F929F9285
:10296000AF92BF92CF92DF92EF92FF920F931F939D
:10297000CF93DF93EA018C01060F171FF8018181C5
:10298000833098F082E090E09983888386EF9FEF10
:10299000DF91CF911F910F91FF90EF90DF90CF903B
:1029A000BF90AF909F908F9008958091A8039091D1
:1029B000A903892B61F081E090E02091AA03309176
:1029C000AB03232B11F490E080E0892B39F482E0F3
:1029D00090E0998388838EEF9FEFDACF42DE8823E1
:1029E00009F4DFC0F8018181813009F495C0E8F075
:1029F000823099F42091AA033091AB03E091A803AF
:102A0000F091A90390E080E041E050E028173907F9
:102A100009F0BDC03BDA811117C0789481E090E0E5
:102A20009983888390E080E0B3CF2091AA0330910E
:102A3000AB03E091A803F091A90390E080E041E0AE
:102A400050E02817390741F481E090E00E94C30B61
:102A500080E40E94D10BE1CF63817481672B11F078
:102A60005483438301967396ECCFE091A803F091D1
:102A7000A903E00FF11F2381348122303105D9F4FD
:102A8000218932892F3F3F4FB1F425813681409112
:102A90003102509132022417350761F5AF014F5EC4
:102AA0005F4F6091350270913602809133029091B0
:102AB00034020E94481FEFEFCE1ADE0AEE0AFE0A29
:102AC0000D5E1F4F4091AA035091AB0370E060E090
:102AD000C416D506E606F7063CF5009731F2789461
:102AE000892B09F49BCF82E090E0998388838DEF56
:102AF0009FEF4ECFC114D104E104F104E1F6232B82
:102B0000D1F6CF017FDDE091A803F091A903E00F9A
:102B1000F11F108A1786CFCF10E000E090E080E030
:102B2000C12CD12C7601CECF0097C9F610E000E081
:102B3000812C912C540183E0E82EF12C1AC0E091F5
:102B4000A803F091A903E00FF11F838194810297FC
:102B500049F4F482E38282E090E00E94C30B80E4B7
:102B60000E94CB0BFFEF8F1A9F0AAF0ABF0A0D5EC0
:102B70001F4F8091AA039091AB03B0E0A0E08816AC
:102B80009906AA06BB06DCF290E080E0A8CF63813C
:102B900074816230710511F45483438301967396F6
:102BA00035CF82E090E09983888385EF9FEFF0CE68
:102BB0000097B9F48FEFFB01808320913B023091A5
:102BC0003C0243E1429FC001439F900D1124E091DC
:102BD000A803F091A903E80FF91F8285FB01818307
:102BE00008950C947A0B88E090E0FA019183808339
:102BF00090E080E008951092A7031092A603E8EAFF
:102C0000F3E086E0DF011D928A95E9F785E891E11E
:102C10009093A5038093A40308958091A4039091B9
:102C2000A50308952F923F924F925F926F927F92E9
:102C30008F929F92AF92BF92CF92DF92EF92FF92CC
:102C40000F931F93CF93DF93CDB7DEB72F970FB6B8
:102C5000F894DEBF0FBECDBFF894E091A603F091CB
:102C6000A7033196F093A703E093A60378944090CE
:102C7000A8035090A9034114510409F40CC2E09137
:102C8000AA03F091AB03EF2B09F405C22D87498706
:102C90005A876B877C8798878F831201B12CA12C70
:102CA00010E000E08091AA039091AB03A816B9064A
:102CB00018F40115110529F1F8948091A60390915B
:102CC000A70301979093A7038093A6037894C80164
:102CD0002F960FB6F894DEBF0FBECDBFDF91CF9118
:102CE0001F910F91FF90EF90DF90CF90BF90AF902A
:102CF0009F908F907F906F905F904F903F902F901C
:102D000008957101E418F508D10117968C91179771
:102D100081FD54C013968D919C911497039709F0EF
:102D20004DC015968D919C91EF81F8858E179F0768
:102D300009F044C0B50190E080E07FD48A832091FF
:102D4000A8033091A9033D832C833D85332309F4E7
:102D50004CC04C815D81452B09F49AC18091AA0336
:102D60009091AB03A816B90608F092C1C501D8D856
:102D70008823E9F06C817D816E0D7F1D7D836C83DE
:102D8000DB011F968D919C91892B89F0D12CC12C50
:102D9000F12CE12CAC81BD8112968C9112978E158D
:102DA0001F0409F094F450961C921E921F972A81DA
:102DB000222321F0B50190E080E041D43FEFA31A37
:102DC000B30A43E1240E311C6DCFAC81BD81ED917E
:102DD000FC91EC0DFD1D858196810FD7BFEFEB1A9D
:102DE000FB0AEDE0CE0ED11CD5CFEC81FD813097F2
:102DF00009F44EC18091AA039091AB03A816B906BD
:102E000008F046C1EE0DFF1DFF87EE87C50188D88B
:102E10008B83882339F1AE85BF851F968D919C9158
:102E20005097019621E01D964D915C91841795076E
:102E300009F020E02E831982712C10E000E0AE85AD
:102E4000BF8512968C91781608F45DC0EE85FF85DB
:102E5000878590890196658576850E94862C908B62
:102E60008787A5CFB1E0BE83E6CF992493946BC04A
:102E70008BD6F6019683858382C0D601ED90FC90B7
:102E8000B7E06B9EE00CF11C1124F70163817481A3
:102E900080818F3F61F121E030E002C0220F331FBB
:102EA0008A95E2F7C901092E000CAA0BBB0BFB01A6
:102EB000408151816281738184239523A623B723A6
:102EC00021E0892B8A2B8B2B09F420E0D4012C9351
:102ED000D70111968C91F60123853485820F932FAB
:102EE000911D880E991E1486138663949BC04181A0
:102EF00050E0C4010E94DD2CEBCF998206EF1FEF5A
:102F0000C5C01982C3C0F981F111A0CFEDE07E9E4A
:102F100070011124AE85BF85CD90DC90CE0CDF1CF6
:102F200015D49D838C83BB81BB2309F49ECF81E0A4
:102F3000EE85FF8527853089232B09F080E0982EC8
:102F4000882309F458C0672D8E859F850DD8D6013A
:102F500018969C938E93179761E070E0C2D4EE852B
:102F6000FF85218932892F3F320709F481CFBC01C7
:102F7000C901CFD7D60116969C938E931597D6018B
:102F800015968D919C911697009709F4B6CFEC8118
:102F9000FD818E0F9F1F1A969C938E931997AE8575
:102FA000BF85ED91FC911197EE0EFF1EF701218573
:102FB0003285148613861A968C91870DD9018D93CC
:102FC000711016C0EE85FF85878184FF11C0498589
:102FD0005A856B857C85F9014183528363837483B1
:102FE000F701838594850496A80FB91F148613866C
:102FF000F701B287A187D60115968D919C911697FE
:10300000892B09F443C0EE85FF85258136818091A7
:103010003102909132022817390779F019968D9074
:103020009C90612CD60112968C911297681608F428
:1030300024CF1A969C928E921997BE81BB2309F4D5
:1030400060CF61E070E0F601878190854AD4D601B7
:103050001796ED90FC90189715964D915C91E1E0D4
:10306000F0E0BA81BB2311F0F0E0E0E00C811D81BB
:103070009C01B501882799278E1B9F0B6AD38C0171
:10308000892B21F0F60185819681B7D57394D7CE2F
:103090000FEF1FEF8CCE10E000E00ECE2F923F928C
:1030A0004F925F926F927F928F929F92AF92BF9258
:1030B000CF92DF92EF92FF920F931F93CF93DF9304
:1030C0008091A8039091A90310E000E0892BA9F05A
:1030D000C8DA0AEF1FEF882381F02090AA0330900E
:1030E000AB03C091A803D091A903D12CC12C10E04F
:1030F00000E02C143D04A9F47894C801DF91CF912D
:103100001F910F91FF90EF90DF90CF90BF90AF9005
:103110009F908F907F906F905F904F903F902F90F7
:103120000895C6010E94900F882309F18B819C812C
:103130000397E9F48F859889892BC9F0B60190E04F
:1031400080E07BD221E030E0882311F030E020E005
:1031500044245524421A530AB12CA12C912C812CC1
:103160008A818815190409F038F4188A1F864FEFF0
:10317000C41AD40A6396BDCFE881F981EA0DFB1D1C
:1031800085819681892BA1F161E070E0878190852E
:10319000A8D33C01DBD28C01E881F981EA0DFB1D4B
:1031A0008185928525813681200F311FAC01421B1C
:1031B000530B9A0147815085421B530B70E060E02E
:1031C0000E94E62CE881F981EA0DFB1DE780F0847E
:1031D000458156819301B601C201BBD28C01892B76
:1031E00039F0E881F981EA0DFB1D8581968105D5CD
:1031F0005FEF851A950A8DE0A80EB11CB1CF31CAD8
:10320000789408952F923F924F925F926F927F929F
:103210009F92AF92BF92CF92DF92EF92FF920F9365
:103220001F93CF93DF9300D000D0CDB7DEB70091CE
:10323000A8031091A903992493940115110509F489
:103240003EC0A090AA03B090AB030BDA982E88235F
:10325000B1F11092A9031092A8031092AB0310923F
:10326000AA031092AC031092AD038FEF9FEFDC0125
:1032700080933B0290933C02A0933D02B0933E02A8
:1032800078947FD31E830D83C12CD12C7601C50188
:10329000B0E0A0E089839A83AB83BC8322242A9484
:1032A000322C89819A81AB81BC81C816D906EA0685
:1032B000FB06F4F0C801A1D480E40E94D10B892D53
:1032C00026960FB6F894DEBF0FBECDBFDF91CF912B
:1032D0001F910F91FF90EF90DF90CF90BF90AF9034
:1032E0009F907F906F905F904F903F902F900895A8
:1032F000AD81BE8115968D919C91169720913102DA
:103300003091320282179307D1F451968D919C919E
:10331000EED5ED81FE8180819181B12CA12C412CD3
:10332000512C3201892B89F5BFEFCB1ADB0AEB0A4E
:10333000FB0AED81FE817396FE83ED83B2CFC1144B
:10334000D104E104F10429F7892B19F7ED81FE81FD
:10335000818992898F3F980709F029D5AD81BE8177
:1033600052963C922E925197D4CF8A0D9B1DDC0130
:103370008D919C91009709F040D4BFEF4B1A5B0AE6
:103380006B0A7B0AEDE0AE0EB11CAD81BE818D9162
:103390009C91119712964C9150E070E060E04416B9
:1033A0005506660677060CF328D4BECFCF93DF937D
:1033B000EA0128DF811109C082E090E099838883C7
:1033C00085EF9FEFDF91CF91089581E090E00E941B
:1033D000C30B81E090E09983888390E080E0F2CF96
:1033E00011DF1092A5031092A403089542E050E06B
:1033F00066EC72E00C94E10BFF920F931F93CF9356
:10340000DF938A01EC01C60FD71FF980B9D2089764
:10341000F816190671F068F082E090E0F8019183E7
:1034200080838EEF9FEFDF91CF911F910F91FF90DF
:1034300008956C817D818E819F814B810E94760EE3
:10344000811108C082E090E0F8019183808384EFCD
:103450009FEFE9CFF9800E94710E4F2D50E0BE0121
:10346000685F7F4F0E94DD2C89810E94E00E81E021
:1034700090E0F8019183808390E080E0D4CFDF92E8
:10348000EF92FF920F931F93CF93DF938A01EC018A
:10349000C60FD71F0E94710E7C01D98071D2DD202A
:1034A00059F0029721E030E0D816190619F010F013
:1034B00030E020E0232B79F482E090E0F801918362
:1034C00080838EEF9FEFDF91CF911F910F91FF903F
:1034D000EF90DF900895EF2841F482E090E0F8014A
:1034E0009183808384EF9FEFEECFF9800E94710E6D
:1034F0004F2D50E0BE016E5F7F4F0E94DD2C898111
:103500000E94E00E81E090E0F8019183808390E0DA
:1035100080E0D9CF86EF99E19093AF038093AE031B
:1035200008958091AE039091AF0308950895FC0132
:1035300011821082938382830895DB011D921C9275
:10354000DC011296ED91FC911397718360831396C1
:103550007C936E9312970895FC0180819181DB0129
:103560008D939C93A081B181109741F08D919C9196
:1035700091838083892B11F4F383E2830895FC0106
:1035800080819181DB018D939C93892B11F473834E
:103590006283718360830895FC011182108293839A
:1035A00082830895CF93DF931F921F92CDB7DEB72A
:1035B0001A821982F894BE016F5F7F4F85EB93E00A
:1035C000CBDF89819A81009709F017D389819A818D
:1035D000892B89F7BE016F5F7F4F89EB93E0BCDFDA
:1035E00089819A81009709F008D389819A81892B72
:1035F00089F778940F900F90DF91CF910895CF9332
:10360000DF931F921F92CDB7DEB71A821982F8940A
:10361000BE016F5F7F4F81EB93E09EDF89819A81CE
:10362000009709F0EAD289819A81892B89F77894E9
:103630000F900F90DF91CF91089581E0089590E071
:1036400080E00895EF92FF920F931F93CF93DF9343
:103650001F921F92CDB7DEB71A8219828091B003F4
:1036600007EF1FEF8823A1F1F894BE016F5F7F4F32
:1036700089EB93E071DF789489819A81EE24E39459
:10368000F12C892B51F4F894BE016F5F7F4F85EBCD
:1036900093E062DF7894F12CE12C89819A810EEF1E
:1036A0001FEF0097A9F0FC014281538164E070E0B4
:1036B00074D68C01892B61F0F89469817A81C701F5
:1036C000880F991F880F991F8B549C4F58DF78944F
:1036D000C8010F900F90DF91CF911F910F91FF9034
:1036E000EF9008950F931F93CF93DF9300D01F9215
:1036F000CDB7DEB71C821B821A8219828091B0037B
:1037000007EF1FEF8823C1F0AE014D5F5F4F64E00C
:1037100070E0CE010196B4D68C01892B69F4E98161
:10372000FA818B819C8193838283F89469817A8169
:1037300081EB93E002DF7894C8010F900F900F9017
:103740000F90DF91CF911F910F910895B9D70496F3
:1037500008958F929F92AF92BF92CF92DF92EF9295
:10376000FF920F931F93CF93DF931F921F92CDB7BA
:10377000DEB71A821982BC016F5F7F4F633071051B
:1037800098F0AA24AA94BA2CC5010F900F90DF914B
:10379000CF911F910F91FF90EF90DF90CF90BF904E
:1037A000AF909F908F9008954115510551F34801B6
:1037B00059018A016C01CADF8815990511F7E114D6
:1037C000F104F9F28E0D9F1DA816B906D0F2809172
:1037D000B0038823F1F0F894B501645071099701A2
:1037E000AE014F5F5F4FC8010496DFD65C01892BA5
:1037F00071F489819A81F80193838283C601880FCD
:10380000991F880F991FB8018B549C4F96DE7894AE
:10381000BBCF87EFA82EBB24BA94B6CFAF92BF928E
:10382000CF92DF92EF92FF920F931F93CF93DF938C
:103830001F921F92CDB7DEB71A821982892B09F029
:1038400047C06115710509F443C04115510509F4DC
:103850003FC02115310509F43BC001151105C1F127
:103860008091B0038823B9F179016A015B01F89472
:10387000BE016F5F7F4F81EB93E06EDE78948981AC
:103880009A81009759F1DC0112966D917C91A80103
:103890000496A4D68C01E981FA81D501ED93FC93BD
:1038A000828193810496F601918380834FDFD70153
:1038B0008D939C93C8010F900F90DF91CF911F9132
:1038C0000F91FF90EF90DF90CF90BF90AF90089551
:1038D0000FEF1FEFEFCF07EF1FEFECCF0EEF1FEF54
:1038E000E9CFCF93DF93EC01672B71F4F2D68C17FD
:1038F0009D0760F0E5D62496C80FD91FE4D68C0F3B
:103900009D1FDF91CF910895E1D6F1CF90E080E047
:10391000F8CF0F931F93CF93DF932091B003211122
:103920002BC08B01EC0185EB93E001DE89EB93E08A
:10393000FEDD81EB93E0FBDD97D00097C1F4C9D6A3
:1039400070E060E0CEDF4FE352E062E070E081D1F2
:10395000009769F480913F0290914002CCD6B80163
:10396000CE0101D5009719F421E02093B003DF9137
:10397000CF911F910F91089584EF9FEFF8CFA6C6C6
:10398000A8C6CF93DF93A8D6EC01892B11F40ADEE9
:1039900036DECE01DF91CF910895CF93DF939CD691
:1039A000EC01892B09F4FEDDCE01DF91CF91089562
:1039B00080913F02909140020895CF93DF938091D0
:1039C000B003D0E0C0E08823D1F09AD6EC01892B77
:1039D000B1F4E8DD14DE80913F0290914002E7D11E
:1039E000E8D2EC01892B59F485EB93E0D5DD89EB26
:1039F00093E0D2DD81EB93E0CFDD1092B003CE01F6
:103A0000DF91CF910895EF92FF920F931F93CF9381
:103A1000DF93EC017A018B010F5F1F4F0E9DA00118
:103A20000F9D500D1E9D500D112470E060E00E940E
:103A3000E62C90E080E0F0E0E0E02FEFE816F906F9
:103A400039F4DF91CF911F910F91FF90EF9008957E
:103A50001A8219822883309711F0D283C18301968C
:103A6000FE01C00FD11FEACFCF92DF92EF92FF92FB
:103A70000F931F93CF93DF9308EF14E00C7F43E085
:103A800050E061E472E087E492E01AD481E4E82E29
:103A900082E0F82E97E4C92E92E0D92ECFE8D5E047
:103AA000D7014D915D917D01F601619171916F0199
:103AB000198308835D834C835B834A837F836E8392
:103AC0009B012F5F3F4F249FC001259F900D349F86
:103AD000900D1124998788870115110511F0C801EF
:103AE00092DF88859985080F191F2A96F7E4EF164B
:103AF000F2E0FF06A9F6EFEBF3E086E391E0DF01E9
:103B00009C011D9221503040E1F71092BE031092AB
:103B1000BD031092AE051092AD051092B205109241
:103B2000B1051092B0051092AF051092B405109235
:103B3000B3051092B6051092B5051092B805109213
:103B4000B7051092BC051092BB051092BA051092F1
:103B5000B9051092BE051092BD051092C0051092D5
:103B6000BF0510928C0510928B0510928E05109255
:103B70008D0590E080E0DF91CF911F910F91FF9034
:103B8000EF90DF90CF9008950097F1F0F894A7E4BC
:103B9000B2E0EFE8F5E030E020E04D915D914817AC
:103BA0005907A8F0428153814115510581F08AE0FF
:103BB000829FF001839FF00D1124E157FA4F80811D
:103BC0009181009759F4789490E080E008952F5FF8
:103BD0003F4F3A962330310501F7F5CFDC011196BE
:103BE0006D917C917183608341505109538342836D
:103BF000FC012193CF0178940895009749F1DC01ED
:103C00008E91853041F4E0918D05F0918E053097CD
:103C1000F9F0CD0119948530D8F4282F30E0F894CC
:103C20008FEF8C938AE0829FF001839FF00D112427
:103C3000E157FA4F8081918112969C938E93119750
:103C4000B183A08382819381019693838283789448
:103C50000895CF92DF92EF92FF920F931F93CF932D
:103C6000DF939C0182EC93E08C7F4115510509F4B0
:103C70009BC02115310509F497C06115710509F440
:103C800093C07A01AB01B9016D5F7F4F6C7F9B01DF
:103C90002F5F3F4F249F8001259F100D349F100DF3
:103CA0001124F8942091AD053091AE05232B59F4E1
:103CB0002091B5053091B6052115310569F1201720
:103CC000310708F058C02091B7053091B805232B73
:103CD00091F42091B5053091B605820F931F209184
:103CE000BF053091C0052115310509F441C02017E9
:103CF000310708F056C07894CFEFDFEF86EF9FEFE3
:103D0000F701D183C083DF91CF911F910F91FF9075
:103D1000EF90DF90CF900895C3E0D0E0C090BD0356
:103D2000D090BE0323E331E02C193D092017310761
:103D300010F32AE02C9FF0012D9FF00D1124E15784
:103D4000FA4F9183808355834483538342837783DF
:103D5000668311870087009709F055DE0C0D1D1D45
:103D60001093BE030093BD03789490E080E0C8CF29
:103D7000C4E0D0E0D3CFC3E0D0E02AE02C9FF00134
:103D80002D9FF00D1124E157FA4F918380835583C5
:103D900044835383428377836683009729F333DE1A
:103DA000E3CFC4E0D0E0E9CF8FEF9FEFACCF9C0131
:103DB0000397029708F069C0F89484E09AE0482FCE
:103DC00050E0241735070CF44DC091E08AE0829F43
:103DD000F001839FF00D1124E157FA4F11821082F8
:103DE0001582148213821282178216829923B1F1EE
:103DF0008091AD059091AE05892BA9F42091B50570
:103E00003091B6052115310571F08091BD03909177
:103E1000BE03821B930B9093BE038093BD0310924D
:103E2000B6051092B5058091B7059091B805892B1C
:103E3000A9F42091BF053091C0052115310571F01D
:103E40008091BD039091BE03821B930B9093BE03A0
:103E50008093BD031092C0051092BF05789490E046
:103E600080E00895949FF001959FF00D1124E15793
:103E7000FA4F40815181452B31F440855185452BC6
:103E800011F481509CCF90E0A1CF8FEF9FEF089568
:103E90004115510549F1009739F16115710521F17D
:103EA000F89420918B0530918C05232BB9F4209147
:103EB0008D0530918E05232B89F490938C0580938A
:103EC0008B0570938E0560938D05789425E030E026
:103ED00090E080E0FA0131832083089578942FEFF9
:103EE0003FEF86EF9FEFF6CF8FEF9FEF0895059797
:103EF00069F4F89410928C0510928B0510928E053F
:103F000010928D05789490E080E008958FEF9FEFF8
:103F100008956115710519F4F0E0E0E011C08530F5
:103F2000910581F4E0918B05F0918C053097A1F318
:103F3000CB0101961995009779F3FC0185E08193F7
:103F4000CF0108959C01235031092230310520F71B
:103F50002AE0289FD001299FB00D1124A157BA4F04
:103F60002D913C911197232BB9F216962D913C91EE
:103F700017972617370780F2F89412962D913C91E7
:103F800013972115310529F0ED91FC911197309788
:103F900011F47894C1CF4181528111965C934E9374
:103FA0002150310913963C932E9312978193789464
:103FB000C7CFE5EFF4E086E9DF011D928A95E9F7C6
:103FC000EFEBF3E086E391E0DF019C011D922150CD
:103FD0003040E1F71092BE031092BD03EFE8F5E028
:103FE00082E3DF011D928A95E9F7EBE8F5E084E0D2
:103FF000DF011D928A95E9F790E080E00895CF9364
:10400000DF93C0914D02D0914E02CF3FDC0759F4AF
:1040100020D490934E0280934D0297FF09C0D09315
:104020004E02C0934D0284EF9FEFDF91CF91089530
:1040300090E080E0FACF8230910528F48093C105AA
:1040400090E080E008958FEF9FEF08954F925F9288
:104050006F927F92AF92BF92CF92DF92EF92FF92D8
:104060000F931F93CF93DF931F921F92CDB7DEB7AD
:104070001A821982009709F478C06115710509F454
:1040800074C020914D0230914E0207EF1FEF2F3F79
:104090003F4F09F444C06B015C01412C512C3201AB
:1040A000F12CE12C10E000E09E012F5F3F4FA601B4
:1040B0004E195F09B5016E0D7F1D80914D029091E3
:1040C0004E0226D4892B09F04AC089819A81009733
:1040D00041F4E114F10429F42091C105222309F4EB
:1040E00041C0E80EF91EEC14FD04C8F480E848163F
:1040F00084E858068EE16806710418F560E070E007
:10410000CB0106D72AE0420E511C611C711C0A3FEC
:104110004FEF140721F0043F8FEF1807A1F4C801F7
:104120000F900F90DF91CF911F910F91FF90EF9023
:10413000DF90CF90BF90AF907F906F905F904F9047
:10414000089501EF1FEF81E090E0013F2FEF12078C
:1041500011F090E080E0892B09F4A6CFE0CF04EFC6
:104160001FEFDDCF0AEF1FEFDACF0FEF1FEFD7CF33
:104170004F925F926F927F92AF92BF92CF92DF92F7
:10418000EF92FF920F931F93CF93DF931F921F9293
:10419000CDB7DEB71A821982009709F478C061158D
:1041A000710509F474C020914D0230914E0207EF61
:1041B0001FEF2F3F3F4F09F444C06B015C01412CBE
:1041C000512C3201F12CE12C10E000E09E012F5F18
:1041D0003F4FA6014E195F09B5016E0D7F1D8091FD
:1041E0004D0290914E024AD3892B09F04AC0898131
:1041F0009A81009741F4E114F10429F42091C1055A
:10420000222309F441C0E80EF91EEC14FD04C8F4A1
:1042100080E4481682E458068FE06806710418F5B9
:1042200060E070E0CB0174D62AE0420E511C611CA4
:10423000711C0E3F4FEF140721F0043F8FEF18075A
:10424000A1F4C8010F900F90DF91CF911F910F91B2
:10425000FF90EF90DF90CF90BF90AF907F906F90E6
:104260005F904F90089502EF1FEF81E090E0023FD2
:104270002FEF120711F090E080E0892B09F4A6CF10
:10428000E0CF04EF1FEFDDCF0EEF1FEFDACF0FEF20
:104290001FEFD7CF80914D0290914E028F3F98072C
:1042A00049F0CFD2892B49F48FEF9FEF90934E02C4
:1042B00080934D0290E080E0089584EF9FEF089591
:1042C000CF92DF92EF92FF920F931F93CF93DF93E2
:1042D00021E04115510509F020E04150510921111B
:1042E0002CC0DC01FB01D12CC12C21E022C03FEF0E
:1042F000C31AD30A7D010D911D91E701EA80FB806D
:10430000E016F106A8F420813181E280F380F18289
:10431000E08233832283ED90FC9011979D0122501F
:104320003109E901F982E88211961C930E9320E08D
:104330003296C416D506D8F2D2CFDF91CF911F9115
:104340000F91FF90EF90DF90CF900895FC01680FE0
:10435000791F90E080E0E617F70709F408952191AE
:10436000820F911DF8CF2091C205211113C047DEA5
:10437000009791F41092C8051092C7051092C605D7
:104380001092C5051092C4051092C30521E0209338
:10439000C205089584EF9FEF0895AF92BF92CF9228
:1043A000DF92EF92FF920F931F93CF93DF930097CB
:1043B00009F460C04630510508F45CC02091C20584
:1043C000C7EFDFEF222309F449C08C01060F171F46
:1043D000F801C080D180C114D10409F44EC0960107
:1043E0002A5F3F4F4217530708F447C07C01809172
:1043F000C7059091C80593838283B6016C5F7F4F98
:104400005801A60EB71EC801A1DFF5019183808374
:1044100064E070E0C8011ADEEC01892BF9F481E058
:1044200090E009DEB601C801049610DEEC01892B8C
:1044300091F462E070E0C50109DEEC01892B59F4CA
:10444000C701DBDB8091C7059091C8050196909369
:10445000C8058093C70590E080E0EDDDCE01DF91D7
:10446000CF911F910F91FF90EF90DF90CF90BF9071
:10447000AF900895CFEFDFEFF1CFC9EFDFEFEECFD1
:104480006F927F928F929F92AF92BF92CF92DF9264
:10449000EF92FF920F931F93CF93DF9300D01F9261
:1044A000CDB7DEB7009709F47AC04115510509F47C
:1044B00076C02091C20507EF1FEF222309F44DC0FB
:1044C0003A017B015C0164E070E0CE01019650DEB0
:1044D0008C01892B09F041C009811A810115110550
:1044E00009F45AC0480186E0880E911CB701680D96
:1044F000791D80914F02909150020BDD6C01009765
:1045000009F450C0A70170E060E00E94E62C8981A8
:104510009A81AB81BC81EC0CFD1CF70181939193D6
:10452000A193B1937F0181E090E085DDB801C701DF
:104530001FDE892B31F562E070E0C701800F911F0B
:1045400017DE8C01892BE9F490E080E074DDF50141
:10455000D182C082F30191828082C8010F900F90B6
:104560000F900F90DF91CF911F910F91FF90EF90DF
:10457000DF90CF90BF90AF909F908F907F906F9083
:10458000089590E080E057DDF50111821082F3017B
:1045900011821082C60131DB09EF1FEFDECF0FEF72
:1045A0001FEFDBCF06EF1FEFD8CF0097A1F041152B
:1045B000510589F02115310571F0F90136966E1714
:1045C0007F0748F0DC012D933C93DA01ED93FC93D7
:1045D00090E080E008958FEF9FEF0895AF92BF9233
:1045E000CF92DF92EF92FF920F931F93CF93DF93BF
:1045F000009709F45FC04115510509F45BC06530AF
:10460000710508F457C02091C205C7EFDFEF2223E0
:1046100091F1DC01CD90DC9011971296ED91FC9117
:1046200096012A5F3F4FC9EFDFEF2617370719F5CD
:10463000C091C305D091C405209749F521E030E031
:104640003093C4052093C3057A018C01F093C6050D
:10465000E093C5055601B4E0AB0EB11CB50176DEA2
:104660000A0D1B1DF801208131818217930729F55E
:10467000D701CD92DC92CE01DF91CF911F910F91A6
:10468000FF90EF90DF90CF90BF90AF900895209172
:10469000C5053091C6052F5F3F4FCCEFDFEFE21726
:1046A000F30790F2CBEFDFEF2E173F0768F2D0E071
:1046B000C0E0CACFCFEFDFEFDECFC3EFDFEFDBCF5E
:1046C00084E090E0089582E090E008958CEF9FEF01
:1046D000089580E290E008951092C8051092C705F1
:1046E0001092C6051092C5051092C4051092C3051C
:1046F00090E080E008959093500280934F020895D7
:104700008091C205882391F0C5DD009789F410924D
:10471000C8051092C7051092C6051092C5051092E3
:10472000C4051092C3051092C205089590E080E080
:104730000895009749F06115710531F0FC0111826F
:104740001082FB01118210820895F3CF26E030E041
:1047500040E855E260E070E090E080E000C0813029
:10476000910569F01CF4892B39F008958230910588
:1047700049F0039751F0089586ED95E0FAC583E777
:1047800096E0FCCF80E197E0F9CF8DEA97E0F6CF95
:104790001F920F920FB60F9211240BB60F922F9308
:1047A0003F934F935F936F937F938F939F93AF93B9
:1047B000BF93EF93FF9387EF92EC90932501809343
:1047C0002401B9D0FF91EF91BF91AF919F918F914B
:1047D0007F916F915F914F913F912F910F900BBE01
:1047E0000F900FBE0F901F90189587EF92EC90934B
:1047F000250180932401A3E7B0E08C918E7F8C93F8
:10480000E0E2F1E080818C7F8083E1E2F1E0808171
:10481000877E808380818460808380818C7F808399
:104820008C9181608C930895E3E7F0E08081908122
:104830009E7F90838170089581E008951092C9054C
:10484000089568EE73E080E090E062D390E080E04D
:10485000089526E030E040E052EC61E070E090E046
:1048600080E07DDF86ED95E0BAD4892B21F086EDDE
:1048700095E0CFD4F7CF90E080E00895CF92DF921B
:10488000EF92FF920F931F93CF93DF936B017A0107
:10489000E9011982188286ED95E0A1D4892B69F18E
:1048A0008601CC24C39482E0D82E8091C905811161
:1048B00010C086ED95E0ADD40297B9F7C092C90556
:1048C000F801D1928F01888199810196998388831B
:1048D000ECCF888199818E159F0578F486ED95E05F
:1048E00098D48F3F9807A9F3F80181938F018881AD
:1048F0009981019699838883ECCF90E080E0DF91E5
:10490000CF911F910F91FF90EF90DF90CF9008957E
:104910000F931F93CF93DF93EA01890186ED95E012
:10492000B8D7F801D183C08390E080E0DF91CF91C8
:104930001F910F910895CF92DF92EF92FF92CF9344
:10494000DF938091CA0591E0980F9093CA05882360
:1049500079F021E030E03093CC052093CB058093B3
:10496000CA05DF91CF91FF90EF90DF90CF9008952F
:104970007894C0915202D09153026E8D7F8D88A1A0
:1049800099A13ED120E030E040E85FE4EFD16B0137
:104990007C016A8D7B8D8C8D9D8D32D19B01AC010C
:1049A000C701B60199D000D16B017C010E94C402FD
:1049B000B701A60190E080E00E943602F894809151
:1049C000CA058150CCCF0F931F93CF93DF931092E2
:1049D000920810929108D2D2B9DEC0915202D091C1
:1049E0005302198218826FEF7FEFCB010E94B90248
:1049F00070E060E090E080E00E943A01009709F0EA
:104A00003AC00E94AE04F8947894BE016A5D7F4F6C
:104A10008A819B810E943D01892B59F46FEF7FEFC2
:104A2000CB010E94CC010E94B302882311F081E0E7
:104A30008AA7F894DADE0E94B602882311F080E09B
:104A400008C00E94B3028111FACF81E09AA59111AA
:104A5000F6CF8093910878940E94BE0B8C017894D5
:104A60008091910881110CC00E946D050E949802EE
:104A7000F89490E080E0DF91CF911F910F9108951D
:104A80000E9496020E94B6028823D9F081E08093AA
:104A900092089091920881E0911180E080939108B2
:104AA000809192088111C0DE0130110529F40E9425
:104AB000BE0B892B09F4C2DE0E94BE0B8C01BCDE4A
:104AC000CFCF0E94B3028111E1CF81E09AA591116D
:104AD000DECF80E0DCCF5058BB27AA270ED008C11C
:104AE000F9D030F0FED020F031F49F3F11F41EF4E5
:104AF000EEC00EF4E095E7FBE4C0E92F0AD180F3A5
:104B0000BA17620773078407950718F071F49EF5CA
:104B100022C10EF4E0950B2EBA2FA02D0B01B90186
:104B200090010C01CA01A0011124FF27591B99F023
:104B3000593F50F4503E68F11A16F040A22F232F2F
:104B4000342F4427585FF3CF469537952795A7957F
:104B5000F0405395C9F77EF41F16BA0B620B730B26
:104B6000840BBAF09150A1F0FF0FBB1F661F771F97
:104B7000881FC2F70EC0BA0F621F731F841F48F44C
:104B8000879577956795B795F7959E3F08F0B3CFD2
:104B90009395880F08F09927EE0F979587950895BC
:104BA0006CD008F481E00895BCD088F09F5790F055
:104BB000B92F9927B751A0F0D1F0660F771F881F42
:104BC000991F1AF0BA95C9F712C0B13081F0C3D05D
:104BD000B1E00895C0C0672F782F8827B85F39F0FB
:104BE000B93FCCF3869577956795B395D9F73EF4A1
:104BF00090958095709561957F4F8F4F9F4F089549
:104C0000E89409C097FB3EF4909580957095619566
:104C10007F4F8F4F9F4F9923A9F0F92F96E9BB271C
:104C20009395F695879577956795B795F111F8CF98
:104C3000FAF4BB0F11F460FF1BC06F5F7F4F8F4F03
:104C40009F4F16C0882311F096E911C0772321F0F9
:104C50009EE8872F762F05C0662371F096E8862F91
:104C600070E060E02AF09A95660F771F881FDAF7E8
:104C7000880F9695879597F90895990F0008550F15
:104C8000AA0BE0E8FEEF16161706E807F907C0F0D2
:104C900012161306E407F50798F0621B730B840BDA
:104CA000950B39F40A2661F0232B242B252B21F4B4
:104CB00008950A2609F4A140A6958FEF811D811D54
:104CC000089597F99F6780E870E060E008959FEF8E
:104CD00080EC089500240A94161617061806090693
:104CE000089500240A941216130614060506089562
:104CF000092E0394000C11F4882352F0BB0F40F4EA
:104D0000BF2B11F460FF04C06F5F7F4F8F4F9F4F29
:104D1000089557FD9058440F551F59F05F3F71F0AB
:104D20004795880F97FB991F61F09F3F79F0879512
:104D30000895121613061406551FF2CF4695F1DF9B
:104D400008C0161617061806991FF1CF869571052B
:104D5000610508940895E894BB2766277727CB015F
:104D600097F908958ADF08F48FEF08950BD0C0CF2C
:104D7000B1DF28F0B6DF18F0952309F0A2CFA7CF56
:104D80001124EACFC6DFA0F3959FD1F3950F50E031
:104D9000551F629FF001729FBB27F00DB11D639FED
:104DA000AA27F00DB11DAA1F649F6627B00DA11D93
:104DB000661F829F2227B00DA11D621F739FB00D39
:104DC000A11D621F839FA00D611D221F749F3327A9
:104DD000A00D611D231F849F600D211D822F762F42
:104DE0006A2F11249F5750408AF0E1F088234AF03F
:104DF000EE0FFF1FBB1F661F771F881F915050408B
:104E0000A9F79E3F510570F05CCFA6CF5F3FECF352
:104E1000983EDCF3869577956795B795F795E79576
:104E20009F5FC1F7FE2B880F911D9695879597F987
:104E300008951F920F920FB60F9211242F933F9354
:104E40008F939F93AF93BF938091CE059091CF05A1
:104E5000A091D005B091D1053091CD0523E0230F6D
:104E60002D3758F50196A11DB11D2093CD058093D6
:104E7000CE059093CF05A093D005B093D105809136
:104E8000D2059091D305A091D405B091D505019696
:104E9000A11DB11D8093D2059093D305A093D40595
:104EA000B093D505BF91AF919F918F913F912F9175
:104EB0000F900FBE0F901F90189526E8230F0296B3
:104EC000A11DB11DD2CF3FB7F8948091D20590912A
:104ED000D305A091D405B091D50526B5A89B05C0F2
:104EE0002F3F19F00196A11DB11D3FBFBA2FA92F69
:104EF000982F8827BC01CD01620F711D811D911D66
:104F000042E0660F771F881F991F4A95D1F70895D1
:104F10008F929F92AF92BF92CF92DF92EF92FF92C9
:104F20006B017C01D0DF4B015C01C114D104E104B1
:104F3000F104D9F0DBD4C7DF681979098A099B0924
:104F4000683E73408105910580F321E0C21AD108C3
:104F5000E108F10888EE880E83E0981EA11CB11CC0
:104F6000C114D104E104F10431F7FF90EF90DF9018
:104F7000CF90BF90AF909F908F900895789484B514
:104F8000826084BD84B5816084BD85B5826085BD45
:104F900085B5816085BDEEE6F0E08081816080832B
:104FA000E1E8F0E01082808182608083808181600E
:104FB0008083E0E8F0E0808181608083E1EBF0E0D5
:104FC000808184608083E0EBF0E080818160808379
:104FD000E1E9F0E08081826080838081816080836C
:104FE000E0E9F0E0808181608083E1EAF0E08081A7
:104FF00082608083808181608083E0EAF0E080814C
:1050000081608083E1E2F1E0808182608083808141
:1050100081608083E0E2F1E0808181608083EAE763
:10502000F0E08081846080838081826080838081E1
:10503000816080838081806880831092C1000895A0
:105040008150823108F059C0E82FF0E08827E55DF3
:10505000F74D8F4F91C44B284F283D2843284728B0
:105060007D28522858285C28622866286A287028DB
:1050700074287D2878287E288228809180008F7768
:10508000809380000895809180008F7DF9CF80917A
:105090008000877FF5CF84B58F7784BD089584B570
:1050A0008F7DFBCF8091B0008F778093B000089503
:1050B0008091B0008F7DF9CF809190008F778093A1
:1050C00090000895809190008F7DF9CF809190009D
:1050D000877FF5CF8091A0008F778093A0000895FF
:1050E0008091A0008F7DF9CF8091A000877FF5CFC0
:1050F000809120018F778093200108958091200175
:105100008F7DF9CF80912001877FF5CFCF93DF93FB
:1051100090E0FC01E65DFE4F249180599E4FFC011A
:1051200084918823C9F090E0880F991FFC01E05317
:10513000FE4FA591B491FC01EA54FE4FC591D49164
:1051400061110DC09FB7F8948C91209582238C93A8
:105150008881282328839FBFDF91CF9108956230F3
:1051600051F49FB7F8943C91822F809583238C93C0
:10517000E8812E2BEFCF8FB7F894EC912E2B2C9348
:105180008FBFEACF1F93CF93DF93282F30E0F90131
:10519000EC51FF4F8491F901E65DFE4FD491F90186
:1051A000E059FE4FC491CC23A1F0162F811148DFA6
:1051B000EC2FF0E0EE0FFF1FEA54FE4FA591B491E3
:1051C0008FB7F894EC91111108C0D095DE23DC93D1
:1051D0008FBFDF91CF911F910895DE2BF8CFFC0197
:1051E000918D228D892F90E0805C9F4F821B9109C9
:1051F0008F7399270895FC01918D828D981731F056
:10520000828DE80FF11D858D90E008958FEF9FEF5F
:105210000895FC01918D828D981761F0A28DAE0FDB
:10522000BF2FB11D5D968C91928D9F5F9F73928F62
:1052300090E008958FEF9FEF0895FC01538D448D0A
:10524000252F30E0842F90E0821B930B541710F031
:10525000CF96089501970895FC01A48DA80FB92F4A
:10526000B11DA35ABF4F2C91848D90E001968F738E
:105270009927848FA689B7892C93A089B1898C91AD
:10528000837080648C93938D848D981306C00288FC
:10529000F389E02D80818F7D80830895CF93DF9304
:1052A000EC01888D8823B1F0AA89BB89E889F98946
:1052B0008C9185FD03C0808186FD0CC00FB607FC74
:1052C000F7CF8C9185FFF2CF808185FFEDCFCE01A6
:1052D000C3DFEACFDF91CF910895EF92FF920F9352
:1052E0001F93CF93DF93EC0181E0888F9B8D8C8D92
:1052F00098131AC0E889F989808185FF15C09FB786
:10530000F894EE89FF896083E889F9898081837048
:10531000806480839FBF81E090E0DF91CF911F91F7
:105320000F91FF90EF900895F62E0B8D10E00F5F18
:105330001F4F0F731127E02E8C8D8E110BC00FB6EF
:1053400007FCFACFE889F989808185FFF5CFCE0186
:1053500083DFF2CFEB8DEC0FFD2FF11DE35AFF4FF2
:10536000F0829FB7F8940B8FEA89FB898081806275
:10537000D0CFCF92DF92EF92FF921F93CF93DF9324
:10538000EC016A017B01122FE889F98982E08083B0
:10539000C11481EED806E104F10499F060E079E0EF
:1053A0008DE390E0A7019601C5D221503109410952
:1053B00051095695479537952795211580E138076E
:1053C00090F0E889F989108260E874E88EE190E055
:1053D000A7019601AFD221503109410951095695D3
:1053E000479537952795EC85FD853083EE85FF85BC
:1053F0002083188EEC89FD891083EA89FB898081DE
:1054000080618083EA89FB89808188608083EA8962
:10541000FB89808180688083EA89FB8980818F7D18
:105420008083DF91CF911F91FF90EF90DF90CF901D
:1054300008951F920F920FB60F9211240BB60F9280
:105440002F938F939F93EF93FF93E091E605F09155
:10545000E7058081E091EC05F091ED0582FD1DC02E
:1054600090818091EF058F5F8F732091F0058217F7
:1054700041F0E091EF05F0E0EA52FA4F958F80930A
:10548000EF05FF91EF919F918F912F910F900BBEA0
:105490000F900FBE0F901F9018958081F2CF1F9232
:1054A0000F920FB60F9211240BB60F922F933F93CA
:1054B0004F935F936F937F938F939F93AF93BF931C
:1054C000EF93FF9386ED95E0C7DEFF91EF91BF91DB
:1054D000AF919F918F917F916F915F914F913F918C
:1054E0002F910F900BBE0F900FBE0F901F9018952D
:1054F000E6EDF5E01382128288EE93E0A0E0B0E0E2
:1055000084839583A683B78386ED92E0918380831D
:1055100085EC90E09587848784EC90E09787868778
:1055200080EC90E0918B808B81EC90E0938B828B70
:1055300082EC90E0958B848B86EC90E0978B868B49
:10554000118E128E138E148E08951F920F920FB625
:105550000F9211240BB60F922F938F939F93EF937B
:10556000FF93E0918306F09184068081E0918906A3
:10557000F0918A0682FD1DC0908180918C068F5F1C
:105580008F7320918D06821741F0E0918C06F0E038
:10559000ED58F94F958F80938C06FF91EF919F9175
:1055A0008F912F910F900BBE0F900FBE0F901F90F9
:1055B00018958081F2CF1F920F920FB60F9211248F
:1055C0000BB60F922F933F934F935F936F937F93FD
:1055D0008F939F93AF93BF93EF93FF9383E796E0EF
:1055E0003BDEFF91EF91BF91AF919F918F917F91A2
:1055F0006F915F914F913F912F910F900BBE0F9044
:105600000FBE0F901F901895E3E7F6E01382128209
:1056100088EE93E0A0E0B0E084839583A683B7830F
:1056200086ED92E0918380838DEC90E0958784876E
:105630008CEC90E09787868788EC90E0918B808B4C
:1056400089EC90E0938B828B8AEC90E0958B848B35
:105650008EEC90E0978B868B118E128E138E148EAB
:1056600008951F920F920FB60F9211240BB60F924E
:105670002F938F939F93EF93FF93E0912007F091E7
:1056800021078081E0912607F091270782FD1DC048
:105690009081809129078F5F8F7320912A0782174D
:1056A00041F0E0912907F0E0E05FF84F958F80939B
:1056B0002907FF91EF919F918F912F910F900BBE32
:1056C0000F900FBE0F901F9018958081F2CF1F9200
:1056D0000F920FB60F9211240BB60F922F933F9398
:1056E0004F935F936F937F938F939F93AF93BF93EA
:1056F000EF93FF9380E197E0AFDDFF91EF91BF91D2
:10570000AF919F918F917F916F915F914F913F9159
:105710002F910F900BBE0F900FBE0F901F901895FA
:10572000E0E1F7E01382128288EE93E0A0E0B0E0BF
:1057300084839583A683B78386ED92E091838083EB
:1057400085ED90E09587848784ED90E09787868744
:1057500080ED90E0918B808B81ED90E0938B828B3C
:1057600082ED90E0958B848B86ED90E0978B868B15
:10577000118E128E138E148E08951F920F920FB6F3
:105780000F9211240BB60F922F938F939F93EF9349
:10579000FF93E091BD07F091BE078081E091C307C0
:1057A000F091C40782FD1DC090818091C6078F5F74
:1057B0008F732091C707821741F0E091C607F0E090
:1057C000E355F84F958F8093C607FF91EF919F9116
:1057D0008F912F910F900BBE0F900FBE0F901F90C7
:1057E00018958081F2CF1F920F920FB60F9211245D
:1057F0000BB60F922F933F934F935F936F937F93CB
:105800008F939F93AF93BF93EF93FF938DEA97E0AE
:1058100023DDFF91EF91BF91AF919F918F917F9188
:105820006F915F914F913F912F910F900BBE0F9011
:105830000FBE0F901F901895EDEAF7E013821282C9
:1058400088EE93E0A0E0B0E084839583A683B783DD
:1058500086ED92E09183808385E391E0958784874C
:1058600084E391E09787868780E391E0918B808B3A
:1058700081E391E0938B828B82E391E0958B848B23
:1058800086E391E0978B868B118E128E138E148E89
:105890000895AF92BF92CF92DF92EF92FF920F9353
:1058A0001F93CF93DF936C017B018B01040F151FB6
:1058B000EB015E01AE18BF08C017D10759F069911E
:1058C000D601ED91FC910190F081E02DC601199572
:1058D000892B79F7C501DF91CF911F910F91FF902F
:1058E000EF90DF90CF90BF90AF9008950895DB01C7
:1058F0008F939F9349D0BF91AF91A29F800D911D2F
:10590000A39F900DB29F900D11240895AA1BBB1B5D
:1059100051E107C0AA1FBB1FA617B70710F0A61BAF
:10592000B70B881F991F5A95A9F780959095BC01D0
:10593000CD010895A1E21A2EAA1BBB1BFD010DC0CB
:10594000AA1FBB1FEE1FFF1FA217B307E407F5072F
:1059500020F0A21BB30BE40BF50B661F771F881F0B
:10596000991F1A9469F760957095809590959B01A1
:10597000AC01BD01CF010895EE0FFF1F881F8BBF43
:105980000790F691E02D199409D0A59F900DB49F32
:10599000900DA49F800D911D11240895A29FB00128
:1059A000B39FC001A39F700D811D1124911DB29F53
:1059B000700D811D1124911D0895FB01DC0102C0B1
:1059C00001900D9241505040D8F70895DC0101C07C
:0E59D0006D9341505040E0F70895F894FFCFDA
:1059DE0000001643000016434ACF08446844B24301
:1059EE000000963E0000803F000000400000803F17
:1059FE0000000000C0808080FEFFFFFF01E8030072
:105A0E0000FFFF00000000FFFFFFFFFFFFFFFFFF93
:105A1E00FF010001000100200038003800FFFFFFE9
:105A2E00FF010203FF00130E3F0EFE00F90D7A0B6D
:105A3E00FD008B0DE50DFC00D10D7A0BF600C20EAC
:105A4E007A0BF500980D010FF4008B0E180FDE0087
:105A5E003F13D815DD00AE147A0BDA00E810F01003
:105A6E00D900F3150011E200D00F7A0BE1000B10F4
:105A7E007A0BE00080107A0BD600D6197A0BD5007F
:105A8E008D127A0BD40019127A0BD3008A117A0B6D
:105A9E00C0000F117A0BF0003F1A7A0BED00FC19C3
:105AAE007A0B000000006D29492C1D294E29EF2884
:045ABE000929FB288F
:00000001FF
