:10000000F8C0000027C1000025C1000023C1000086
:1000100021C100001FC100001DC100001BC1000064
:1000200019C1000017C1000015C1000013C1000074
:1000300011C100000FC100000DC100000BC1000084
:1000400009C1000007C1000005C1000003C1000094
:1000500001C10000FFC00000FDC000000C94DC29BD
:10006000F9C000000C94B02D0C94E62DF3C00000F4
:10007000F1C00000EFC00000EDC00000EBC00000C8
:10008000E9C00000E7C00000E5C00000E3C00000D8
:100090000C943C2E0C94722EDDC00000DBC00000DE
:1000A000D9C00000D7C00000D5C00000D3C00000F8
:1000B000D1C00000CFC00000CDC00000CBC0000008
:1000C000C9C00000C7C000000C9485260C94C82E3F
:1000D0000C94FE2EBFC000000C94542F0C948A2F59
:1000E000B9C0000000000A0B02090C0D0E0807033E
:1000F00004010000000000000000000000000000FB
:1001000000000000000000000000000000000000EF
:1001100012111000000000000000000000000000AC
:100120000000000000000000000001021020200874
:100130000810204010204080020102010804020142
:1001400001020408102040808040201008040201B1
:10015000800402018040201008040201080402010A
:100160000102040810204080010204081020408091
:1001700005050505070508080808020202020A0A23
:100180000808040404040101010101010101030341
:10019000030303030303040707070C0C0C0C0C0CEC
:1001A0000C0C0202020206060606060606060B0BE9
:1001B0000B0B0B0B0B0B00002200250028002B0063
:1001C0002E003100340002010000050108010B017E
:1001D00000002100240027002A002D0030003300F9
:1001E00001010000040107010A010F2E9B2E272F99
:1001F000B32F11241FBECFEFD1E2DEBFCDBF00E091
:100200000CBF12E0A0E0B2E0ECE0F1E600E00BBFD2
:1002100002C007900D92A43EB107D9F728E0A4EEE2
:10022000B2E001C01D92A738B207E1F710E0C9EFB4
:10023000D0E000E006C021970109802FFE010E9456
:100240005330C53FD10780E00807A9F70E94A127D6
:100250000C948430D5CECF92DF92EF92FF92CF9361
:10026000882351F16A017B01CFEFC80F20E030E015
:10027000A901CB01B6010E948E2818168CF0C70187
:10028000B60190580E9497289B01AC016C2F70E03A
:1002900090E080E0CF91FF90EF90DF90CF90B2C0E0
:1002A000C701B6010E9492288C2FCF91FF90EF904A
:1002B000DF90CF900C94E32ACF91FF90EF90DF90E6
:1002C000CF9008950F931F938B019C0183E0369587
:1002D0002795179507958A95D1F70C511D4F462FF5
:1002E000477021E030E0F90102C0EE0FFF1F4A9590
:1002F000E2F7AF01F80120812423CB0101962111FF
:1003000002C090E080E01F910F9108950F931F931A
:100310008B019C0183E036952795179507958A9563
:10032000D1F7677081E090E001C0880F6A95EAF725
:10033000F801EC51FD4F2081452B31F4809582234B
:1003400080831F910F910895822BFACF2F923F92B5
:100350004F925F926F927F928F929F92AF92BF92D5
:10036000CF92DF92EF92FF920F931F93CF93DF9381
:10037000D62EC72E782E692E49015A01280161E038
:100380008D2D0E941D2CCD2DDC2D8E010F5F1F4F5A
:10039000A8016D2D7C2D872D962DB8DF20E030E053
:1003A000A901C201B7010E947529181664F4C2019F
:1003B000B7010E9497282B01C501B4010E9497281C
:1003C000A201CE0123D0C801DF91CF911F910F91DF
:1003D000FF90EF90DF90CF90BF90AF909F908F9065
:1003E0007F906F905F904F903F902F90089588235B
:1003F00041F08150682F70E090E080E050E040E0F4
:1004000085CF0895862FB9010C94E32A9C01FC0145
:10041000EC51FF4FE491E150E231E0F4F0E0882745
:10042000EB5EFD4F8F4F0C94533027022E023102AA
:1004300048025D022A0272027E0282029902AE0224
:10044000C302DA02EF022A0204031B03300384B55D
:10045000806884BD60E0822F0C94592C84B5806242
:10046000F8CF809180008C7F8260809380008091A3
:100470008100807E8061682B6093810050938700AB
:100480004093860080918000806880938000E2CF56
:10049000809180008C7F82608093800080918100B9
:1004A000807E8061682B6093810050938700409329
:1004B0008600809180008062E8CF809180008C7FF0
:1004C00082608093800080918100807E8061682BB3
:1004D0006093810050938700409386008091800054
:1004E0008860D3CF8091B00080688093B000809105
:1004F000B100887F682B6093B100ACCF8091B000D1
:100500008062F3CF809190008C7F82608093900016
:1005100080919100807E8061682B60939100509360
:10052000970040939600809190008068809390009F
:1005300091CF809190008C7F826080939000809119
:100540009100807E8061682B6093910050939700AA
:1005500040939600809190008062E8CF8091900057
:100560008C7F82608093900080919100807E80617A
:10057000682B609391005093970040939600809170
:1005800090008860D3CF8091A0008C7F82608093A0
:10059000A0008091A100807E8061682B6093A10003
:1005A0005093A7004093A6008091A000806880939C
:1005B000A00050CF8091A0008C7F82608093A0002B
:1005C0008091A100807E8061682B6093A100509390
:1005D000A7004093A6008091A0008062E8CF8091A0
:1005E000A0008C7F82608093A0008091A100807E1B
:1005F0008061682B6093A1005093A7004093A600F0
:100600008091A0008860D3CF809120018C7F826090
:100610008093200180912101807E8061682B60930E
:100620002101509327014093260180912001806889
:10063000809320010FCF809120018C7F8260809376
:10064000200180912101807E8061682B60932101CF
:100650005093270140932601809120018062E8CFCA
:10066000809120018C7F8260809320018091210104
:10067000807E8061682B6093210150932701409315
:100680002601809120018860D3CF90E080E008951A
:100690000F931F93009709F487C06115710509F442
:1006A00083C0009128021091290220912A023091E2
:1006B0002B020E3F1F4F2F4F3F4F09F066C04FEFE9
:1006C0005FEFBA01409328025093290260932A02F7
:1006D00070932B02409128025091290260912A02C6
:1006E00070912B02DC011296ED91FC918081918139
:1006F000A281B3818093670390936803A0936903F9
:10070000B0936A0384819581A681B7818093630346
:1007100090936403A0936503B093660380859185ED
:10072000A285B38580935F0390936003A0936103D8
:10073000B093620384859585A685B78580935B0316
:1007400090935C03A0935D03B0935E0310925703F4
:10075000109258031092590310925A03BFD683E99E
:100760009AE09093EE028093ED029093F0028093D2
:10077000EF02A3D5009731F421E030E030936C0311
:1007800020936B031F910F910895009128021091FF
:10079000290220912A0230912B02DB010D931D9337
:1007A0002D933C93139796CF8FEF9FEFEBCF8F92C4
:1007B0009F92AF92BF92CF92DF92EF92FF921F93E0
:1007C000CF93DF934B015C0110916E0382E090E0C8
:1007D00090936C0380936B0381149104A104B10482
:1007E00041F480916E03811104C080916D03C1E0DA
:1007F0008111C0E0C12CD12C760180916E03811152
:1008000006C080916D03811102C0CC23D9F083E032
:1008100090E090936C0380936B03CC2379F1CCE947
:10082000DFEF111102C00E94F70DCE01DF91CF91D1
:100830001F91FF90EF90DF90CF90BF90AF909F906F
:100840008F9008956AE070E080E090E00E944B2A6B
:1008500080E1C80E87E2D81EE11CF11C8FEF8816DC
:100860009806A806B80631F0C1E08C149D04AE04C9
:10087000BF0408F0C0E080E054D5BFCFD0E0C0E0B6
:10088000D0CFCF92DF92EF92FF920F931F93CF932F
:10089000DF938F3F910511F008F050C020916B035A
:1008A00030916C032330310539F020916B03309186
:1008B0006C032130310531F424E030E030936C03D7
:1008C00020936B036A017B01EC0182309105A0F05B
:1008D00011E0AE01C701B601EFD4AB01BC01CE01FE
:1008E0001123F9F0DF91CF911F910F91FF90EF90BD
:1008F000DF90CF900C9420108C01000F111F03513A
:100900001D4FD8018D919C91892B11F30E942A10C3
:100910000297F1F6D801ED91FC91CE011995182FAF
:10092000D8CF0E94421090E080E0DF91CF911F91DC
:100930000F91FF90EF90DF90CF9008958FEF9FEF92
:10094000F4CF80E0EEC4CF93DF9386E090E0909305
:100950006C0380936B033ED5EC01EDEEF2E084E096
:10096000DF011D928A95E9F70E948F0D10926C03AA
:1009700010926B03CE01DF91CF91089580916D03AA
:100980000895809156030895609328027093290278
:1009900080932A0290932B0290E080E008954F927A
:1009A0005F926F927F928F929F92AF92BF92CF92FF
:1009B000DF92EF92FF92C0901002D0901102E0906F
:1009C0001202F0901302209114023091150240910E
:1009D000160250911702C701B6010E947529181618
:1009E00044F4C0900C02D0900D02E0900E02F09002
:1009F0000F02E894F7F8C0927508D0927608E0925A
:100A00007708F092780866E070E080E090E05ADCC9
:100A10005C019093680880936708C0907508D09037
:100A20007608E0907708F090780820E030E04FE713
:100A300053E4C701B6010E948E2818160CF46BC14E
:100A400020E030E0A901C701B6010E94752987FFA7
:100A500003C0C12CD12C7601B701A601C501FBDB77
:100A6000C0901002D0901102E0901202F090130298
:100A7000209118023091190240911A0250911B02E4
:100A8000C701B6010E94752918160CF04BC1C0921F
:100A90007908D0927A08E0927B08F0927C0867E0AF
:100AA00070E080E090E00EDC5C0190937008809331
:100AB0006F08C0907908D0907A08E0907B08F09099
:100AC0007C0820E030E04FE753E4C701B6010E9404
:100AD0008E2818160CF437C120E030E0A901C701B8
:100AE000B6010E94752987FF03C0C12CD12C760165
:100AF000B701A601C501AFDBC0901C02D0901D025A
:100B0000E0901E02F0901F022091200230912102FD
:100B10004091220250912302C701B6010E9475291B
:100B2000181644F4C0900402D0900502E09006022A
:100B3000F0900702E894F7F8C0927D08D0927E0802
:100B4000E0927F08F092800865E070E080E090E03D
:100B5000B9DB5C019093600880935F08C0907D08CA
:100B6000D0907E08E0907F08F090800820E030E090
:100B70004FE753E4C701B6010E948E2818160CF403
:100B8000E9C020E030E0A901C701B6010E94752943
:100B900087FF03C0C12CD12C7601B701A601C50186
:100BA0005ADBC0901C02D0901D02E0901E02F09013
:100BB0001F0220912402309125024091260250917B
:100BC0002702C701B6010E94752918160CF0C9C08A
:100BD000C0928108D0928208E0928308F092840843
:100BE00064E070E080E090E06DDB5C019093580879
:100BF00080935708C0908108D0908208E0908308C5
:100C0000F090840820E030E04FE753E4C701B601DC
:100C10000E948E2818160CF4B5C020E030E0A9011F
:100C2000C701B6010E94752987FF03C0C12CD12CD2
:100C30007601B701A601C5010EDBC0902903D09053
:100C40002A03E0902B03F0902C038FEFC81AD80AE8
:100C5000E80AF80AC0922903D0922A03E0922B03F3
:100C6000F0922C03C114D104E104F10499F48091B1
:100C70002D0390912E03A0912F03B0913003019684
:100C8000A11DB11D80932D0390932E03A0932F03DC
:100C9000B09330038090310390903203A0903303DF
:100CA000B090340360912D0370912E0380912F0337
:100CB000909130030E94C328A50194010E947929D4
:100CC00020E030E040E85FE40E9479292B013C01FC
:100CD000C701B6010E94C328A50194010E94792989
:100CE0009B01AC01C301B2010E942A286093250335
:100CF000709326038093270390932803FF90EF902F
:100D0000DF90CF90BF90AF909F908F907F906F902B
:100D10005F904F900895C12CD12C3FE7E32E33E430
:100D2000F32E9ACE8091000290910102A0910202CE
:100D3000B09103028093790890937A08A0937B087E
:100D4000B0937C08ACCEC12CD12C2FE7E22E23E44B
:100D5000F22ECECEC12CD12C9FE7E92E93E4F92EB2
:100D60001CCF8091080290910902A0910A02B091D3
:100D70000B028093810890938208A0938308B0931C
:100D800084082ECFC12CD12C8FE7E82E83E4F82ED7
:100D900050CF8F929F92AF92BF92DF92EF92FF92CD
:100DA0000F931F93CF93DF93EFE0F3E08BE2DF012C
:100DB0001D928A95E9F780E090E0A0E8BFEB86A35A
:100DC00097A3A0A7B1A78DEC9CECACE4BEE382A3F3
:100DD00093A3A4A3B5A38AED99E3A7E3BDE9848314
:100DE0009583A683B7838BE79FE6A3E0B4E980876A
:100DF0009187A287B3878AE297EBA5EFB9E484874E
:100E00009587A687B7878DE39DE6A3E2BBEA808B33
:100E1000918BA28BB38BA3E0B3E0B383A283E1EF0A
:100E2000F2E01196FC93EE9381E592E0918380834A
:100E30009383828395838483978386839187808736
:100E4000938782879587848797878687918B808B06
:100E500083E293E015969C938E93149783E193E03D
:100E600013969C938E93129785E293E017969C932A
:100E70008E931697E5E7F8E080E1DF011D928A95F1
:100E8000E9F7C1E5D8E084E2FE0111928A95E9F71D
:100E9000DD24D394DAA2812C912C54018394898A85
:100EA0009A8AAB8ABC8AE12CF12C8701A8019701B0
:100EB00066E070E080E090E049DA9F8B8E8BDD8AFF
:100EC000188EDBA2898E9A8EAB8EBC8EA8019701FC
:100ED00067E070E080E090E039DA9F8F8E8FDD8EE2
:100EE0001886D9A289869A86AB86BC86A801970106
:100EF00065E070E080E090E029DA9F878E87DD86EC
:100F00001882D8A289829A82AB82BC82A8019701FA
:100F100064E070E080E090E019DA9F838E83DD82E8
:100F2000DF91CF911F910F91FF90EF90DF90BF90D5
:100F3000AF909F908F9008958091610881112AC091
:100F400081E0809361088091620890916308A0918C
:100F50006408B09165080197A105B105D9F48091A5
:100F600066088823B9F066E070E080E090E0AAD9D6
:100F7000909368088093670840E050E0BA016BD90D
:100F800066E070E080E090E09DD9909368088093DF
:100F900067082DDA8091690881112AC081E0809369
:100FA000690880916A0890916B08A0916C08B091D3
:100FB0006D080197A105B105D9F480916E088823C9
:100FC000B9F067E070E080E090E07CD99093700821
:100FD00080936F0840E050E0BA013DD967E070E0CF
:100FE00080E090E06FD99093700880936F08FFD9EC
:100FF0008091590881112AC081E08093590880911D
:101000005A0890915B08A0915C08B0915D08019727
:10101000A105B105D9F480915E088823B9F065E097
:1010200070E080E090E04ED99093600880935F0874
:1010300040E050E0BA010FD965E070E080E090E058
:1010400041D99093600880935F08D1D9809151086D
:1010500081112AC081E080935108809152089091BB
:101060005308A0915408B09155080197A105B10506
:10107000D9F4809156088823B9F064E070E080E0EC
:1010800090E020D9909358088093570840E050E0B2
:10109000BA01E1D864E070E080E090E013D9909369
:1010A000580880935708A3C908954F925F926F9292
:1010B0007F928F929F92AF92BF92CF92DF92EF92E8
:1010C000FF920F931F93F89440904603509047036C
:1010D0006090480370904903C0903A03D0903B035E
:1010E000E0903C03F0903D03452B09F0A6C09B0126
:1010F000AC01241935094609570929013A01009123
:101100004203109143032091440330914503480169
:101110005901840C951CA61CB71C80169106A206CA
:10112000B306A0F400913E0310913F0320914003C9
:10113000309141030F5F1F4F2F4F3F4F00933E03EE
:1011400010933F0320934003309341038092420366
:1011500090924303A0924403B092450300913E0352
:1011600010913F03209140033091410380924A0344
:1011700090924B03A0924C03B0924D0300934E0308
:1011800010934F0320935003309351036093460311
:10119000709347038093480390934903A3019201FE
:1011A00060E47DE083E090E00E940E306C0D7D1DD8
:1011B0008E1D9F1D60933A0370933B0380933C0305
:1011C00090933D03009128021091290220912A0258
:1011D00030912B020F3F1F4F2F4F3F4FF1F00091E7
:1011E00028021091290220912A0230912B020E3FF1
:1011F0001F4F2F4F3F4F89F0C0902802D0902902F7
:10120000E0902A02F0902B0221E08C149D04AE04A1
:10121000BF0408F420E02093560378941F910F91A7
:10122000FF90EF90DF90CF90BF90AF909F908F9006
:101230007F906F905F904F9008954B015C018418F0
:101240009508A608B708A3019201261B370B480B87
:10125000590B6415750586059705E0F0821693060F
:10126000A406B50640F420E030E0A9018114910401
:10127000A104B104A1F460E47DE083E090E00E9469
:101280000E30A7019601261B370B480B590BCA01DC
:10129000B901C3CF82169306A406B50660F7A5016F
:1012A000940160E47DE083E090E00E940E306C0DDC
:1012B0007D1D8E1D9F1DB1CFF8CECF93DF9300D043
:1012C0001F92CDB7DEB71C821B821A821982109240
:1012D0005203109253031092540310925503BE010F
:1012E0006F5F7F4FCE0103960E94562669817A81F7
:1012F0008B819C810E94461F009761F4BE016F5F45
:101300007F4FCE0103960E94622669817A818B818C
:101310009C812ED50F900F900F900F90DF91CF9161
:101320000895FF920F931F93CF93DF93082F60E0F0
:1013300070E0CB010E944B2AFF24F3940E942F1EE1
:10134000EC01892B89F010E0CE3F8FEFD80769F0D0
:10135000002361F160E070E0CB010E944B2A81E044
:1013600090E0892B59F322C011E025D5EC01892B9F
:1013700021F0CE3F8FEFD80759F711111EC011E0B1
:10138000229609F410E00E94DF1DEC01892B21F068
:10139000CE3F8FEFD807E1F6111111C011E0CE3F1B
:1013A0008FEFD80709F410E001110BC0CE01DF91D7
:1013B000CF911F910F91FF90089511E0E4CF11E0BC
:1013C000F3CF60E070E0CB010E944B2A1F25812FF4
:1013D00090E0C7CFCF93DF9380915603882321F00D
:1013E00060E070E0CB014CD635D6D0E0C0E0892B70
:1013F00071F06AE070E080E090E00E944B2A81E0AA
:1014000090DF28D62196C03D27E0D20781F727D666
:101410000E949A1F10926E0310926D031092670340
:10142000109268031092690310926A03109263038A
:1014300010926403109265031092660310925F038A
:1014400010926003109261031092620310925B038A
:1014500010925C0310925D0310925E03109257038A
:10146000109258031092590310925A034EEF5FEFF7
:101470006FEF7FEF409328025093290260932A0276
:1014800070932B0210925603EAE4F3E028E0DF01A8
:101490001D922A95E9F71092460310924703109285
:1014A0004803109249031092420310924303109292
:1014B00044031092450310923E0310923F03109292
:1014C00040031092410310923A0310923B03109292
:1014D0003C0310923D03DF91CF91089510927A035F
:1014E00010927B0310927C0310927D03109279037B
:1014F0008091820390918303909378038093770384
:101500001092760310927503109271031092720379
:10151000109273031092740310927F0310927E0353
:1015200090E080E00895CF92DF92EF92FF920F93C8
:101530001F93CF938C01892B09F055C02091820312
:1015400030918303809177039091780340918203D7
:1015500050918303509378034093770328173907FA
:1015600081F010927603109275031092710310921D
:101570007203109273031092740310927F031092FF
:101580007E038091820390918303019761F580919E
:101590007E0390917F03892B21F480912C0281118D
:1015A00012C080917E0390917F030197E1F48091B6
:1015B000710390917203A0917303B091740301972A
:1015C000A105B10581F4109271031092720310927B
:1015D00073031092740310922C0282E090E09093B7
:1015E0007F0380937E038091820390918303019710
:1015F00009F01CC18091980390919903801791077D
:1016000009F014C18091940390919503A0919603E1
:10161000B0919703009709F409C120919303211118
:101620000DC0409194035091950360919603709181
:101630009703452B462B472B09F4F8C020917E03D6
:1016400030917F032230310509F0F0C020917503FD
:101650002111ECC0FC01C080D180E280F380809138
:101660007903882309F4D3C0809185039091860380
:10167000892B09F4FDC0209185033091860381E018
:101680002230310509F080E02091850330918603F6
:10169000C1E02130310549F0209185033091860366
:1016A000C1E02230310509F0C0E0882309F456C0BA
:1016B00020918F03309190034091910350919203B8
:1016C000C701B6010E94752987FD14C020918F03C0
:1016D00030919003409191035091920360917A036D
:1016E00070917B0380917C0390917D030E948E28F2
:1016F00087FD22C020918F03309190034091910388
:1017000050919203C701B6010E947529181634F54D
:1017100020918F0330919003409191035091920357
:1017200060917A0370917B0380917C0390917D039B
:101730000E948E28811112C08091870390918803A6
:10174000A0918903B0918A03892B8A2B8B2B19F4E2
:1017500081E08093760381E080937503CC2309F4C4
:1017600056C020918F033091900340919103509186
:101770009203C701B6010E948E2887FF14C02091F2
:101780008F033091900340919103509192036091A7
:101790007A0370917B0380917C0390917D030E947A
:1017A000752987FF22C020918F03309190034091CB
:1017B000910350919203C701B6010E948E288111B6
:1017C00026C020918F033091900340919103509156
:1017D000920360917A0370917B0380917C039091D6
:1017E0007D030E947529181694F4809187039091C7
:1017F0008803A0918903B0918A03892B8A2B8B2BB4
:1018000019F481E08093760381E08093750381E091
:1018100090917503911180E080937903C0927A03CF
:10182000D0927B03E0927C03F0927D03012B09F0C0
:1018300067C180917E0390917F03892BD9F4109228
:1018400084031092750380912C02882379F082E042
:1018500090E090937F0380937E0310922C0220915E
:1018600082033091830381E0232BE9F080E01BC0E9
:1018700081E00ACF10922C0280918403882349F0E2
:101880001092760310927F0310927E0310928403CD
:10189000EDCF8091820390918303892BE1F08091B9
:1018A00075031092750320917E0330917F032230DF
:1018B000310509F45EC088F42115310509F448C0EA
:1018C0002130310509F4F3C01092760310927503AC
:1018D0001092840338C081E0E6CF2330310509F44B
:1018E000B1C02430310581F74091710350917203EA
:1018F0006091730370917403411551056105710581
:1019000061F041505109610971094093710350938D
:101910007203609373037093740340917103509149
:1019200072036091730370917403452B462B472B10
:10193000D9F420918003309181032130310509F0E1
:1019400046C01092760310927F0310927E030CC063
:1019500080912C02882341F082E090E090937F03F5
:1019600080937E0310922C0210926F038091760375
:10197000CEC08823C9F38091870390918803A091FA
:101980008903B0918A03181619061A061B060CF073
:101990007DC08091820390918303019709F076C006
:1019A0008091870390918803A0918903B0918A0365
:1019B0008093710390937203A0937303B0937403A5
:1019C00083E090E090937F0380937E03CDCF40919E
:1019D0008B0350918C0360918D0370918E03452B86
:1019E000462B472BA9F01092760380918B039091A0
:1019F0008C03A0918D03B0918E038093710390931B
:101A00007203A0937303B093740381E090E0DACF84
:101A1000882399F080912D0290912E02A0912F029F
:101A2000B09130028093710390937203A09373037B
:101A3000B093740384E090E0C5CF1092760382E007
:101A400090E0C0CF8091710390917203A0917303D5
:101A5000B09174030097A105B10559F00197A10950
:101A6000B1098093710390937203A0937303B093B1
:101A700074038091710390917203A0917303B091EC
:101A80007403892B8A2B8B2B09F06ECF80912D024A
:101A900090912E02A0912F02B0913002892B8A2BB7
:101AA0008B2B09F44ECF81E080937603B3CF409126
:101AB0007103509172036091730370917403411527
:101AC00051056105710561F04150510961097109C4
:101AD0004093710350937203609373037093740384
:101AE000409171035091720360917303709174037C
:101AF000452B462B472B09F037CF8111C7CF9FCFFE
:101B000080916F03882309F431CF80917003CF91C6
:101B10001F910F91FF90EF90DF90CF90089510925A
:101B20007A0310927B0310927C0310927D03109233
:101B3000790310927F0310927E0310927803109223
:101B400077031092990310929803109276031092E3
:101B50007503109271031092720310927303109226
:101B600074031092700310926F03109294031092FA
:101B7000950310929603109297031092930310927C
:101B80008F0310929003109291031092920388EEAB
:101B900093E0A0E0B0E080932D0290932E02A093FA
:101BA0002F02B093300210928B0310928C0310928C
:101BB0008D0310928E031092870310928803109267
:101BC000890310928A03109286031092850381E0A4
:101BD00080932C021092840310928303109282034C
:101BE000109281031092800390E080E0089580912C
:101BF000820390918303892B19F580912C0288230D
:101C000051F080918403811106C081E080937003BC
:101C100080936F0308952091840330912C0281E01A
:101C200090E0332311F090E080E030E082239323B2
:101C3000892B21F01092700381E0EACF10926F039C
:101C4000089582E090E0FA01918380838FEF9FEF07
:101C50000895CF93DF93EA01009711F00E94BA2014
:101C60001982188290E080E0DF91CF910895DB0126
:101C7000009719F48FEF8C9308952EEF2C93FC01AD
:101C80003F96EF30F10508F034C08827E55BF14F4F
:101C90008F4F0C945330770E750E730E710E6F0EBE
:101CA0006B0E6D0E690E670E650E620E5E0E5A0E9D
:101CB000600E790E80E311968C93089589E2FBCF34
:101CC00082E2F9CF11961C92089583E2F4CF81E26B
:101CD000F2CF81E1F0CF87E2EECF8AE2ECCF80E174
:101CE000EACF84E2E8CF88E2E6CF86E2E4CF81E380
:101CF000E2CF80E2E0CF8091A6039091A703089500
:101D00009093A7038093A60308958091A503089557
:101D10009091A503892B8093A5030895982F909502
:101D20008091A50389238093A50308958091A4033E
:101D300008958091A2039091A30308956115710500
:101D400059F0FB0130E020E070E060E02417350737
:101D500019F06115710511F0CB010895A081B181D1
:101D6000A817B90709F4BF012F5F3F4F3696EECF92
:101D70008091A80381111CC060D266D290939B030E
:101D800080939A030E94B8180E94CA1890939F03E8
:101D900080939E030E94471D0E944E1D90939D03B9
:101DA00080939C0381E08093A80390E080E00895F5
:101DB00084EF9FEF08958F929F92AF92BF92CF9240
:101DC000DF92EF92FF920F931F93CF93DF9300D098
:101DD00000D000D01F92CDB7DEB71A8619861886BC
:101DE0001F821E821D821C821B821A821982809190
:101DF000A80307EF1FEF882309F49CC08E010D5F35
:101E00001F4F9E012B5F3F4FAE01495F5F4FBE01E9
:101E1000675F7F4F90E080E00E94CB1E8C010097AF
:101E200021F00596029708F0DBC029853A85211537
:101E3000310509F402C1ED80FE804B815C81B70160
:101E4000640F751F8F8198858617970708F4F5C072
:101E5000E20EF31ED7019C91903C09F07FC0423006
:101E6000510508F47BC011968C914091A6035091C6
:101E7000A703452B09F49CC0913F08F071C02CE1E9
:101E8000290F2D3008F48BC02DE2290F203108F4E2
:101E900089C0903C21F48150823008F483C088E3EB
:101EA000890F8B3008F481C097E3C92E9EE0D92EAC
:101EB000E1E2FEE06D817E81AE014F5F5F4F89857B
:101EC0009A8519955C01C114D104A1F189809A8089
:101ED0008114910479F18B819C818815990508F40E
:101EE00087C010E000E04B815C8170E060E0C701DA
:101EF0000E947D3001151105E9F449815A816985F7
:101F00007A858D819E81680F791FC501F60119952B
:101F1000E980FA800D811E812F81388549855A8597
:101F20006FEF7FEF81E090E00E94661E8C01892BAD
:101F300009F056C0C8012A960FB6F894DEBF0FBE4E
:101F4000CDBFDF91CF911F910F91FF90EF90DF9068
:101F5000CF90BF90AF909F908F90089580E085CFF5
:101F600030E020E0220F331FF901E656FC4F0190CC
:101F7000F081E02D309709F497CF892F90E01995E3
:101F8000009709F491CFDC011296ED91FC91139723
:101F90001496CD90DC90309709F08CCF1FC021E0D3
:101FA00030E0E0CF22E030E0DDCF23E030E0DACFF8
:101FB000D12CC12CE9E2FEE09F3F09F07BCFE091FC
:101FC0009A03F0919B03309721F4C90104EF1FEFAE
:101FD0000CC08FEF90E019950097A9F604EF1FEF62
:101FE00089859A85009709F4A5CF0E94BA20A2CFCF
:101FF0000E94951F8C0189859A850E94BA2070E005
:1020000060E0C4010E942E1F98878F830E94631E88
:102010009E838D836F8178856115710559F0C801A4
:102020000E9446229A87898706EF1FEF892B09F0C5
:1020300058CF59CF08EF1FEF56CF08EF1FEFD0CF83
:102040002091A803222319F020E00C94CF1887EFE9
:102050009FEF08958091A6039091A70308950E9491
:10206000531D0E94AD1CF5D0EAE9F3E088E0DF01E2
:102070001D928A95E9F71092A80390E080E00895F8
:102080000C940B1B21E040E050E0BA010C94CF18F7
:1020900086E090E0FA019183808390E080E00895EB
:1020A00047E050E064E572E049CEDF92EF92FF92A4
:1020B0000F931F93CF93DF938A01EC01C60FD71FB5
:1020C000E090AC03F090AD03D9800E947D1FD8163C
:1020D000190678F082E090E0F801918380838EEF1A
:1020E0009FEFDF91CF911F910F91FF90EF90DF90C5
:1020F0000895EF2841F482E090E0F8019183808315
:1021000084EF9FEFEECF89818093AB0390E001963F
:10211000F8019183808390E080E0E3CFCF93DF9359
:10212000EA010E94BC1B882321F00E948A1F0E94A2
:10213000BD1B82E090E0998388838BEF9FEFDF9156
:10214000CF910895CF93DF93EB0186E0FB011192CD
:102150008A95E9F78FEF8883D8DD8983E7DD8A8365
:10216000E8DD9D838C83DF91CF910895CF93DF933A
:10217000EA010E94BF1B811109C082E090E09983AF
:10218000888385EF9FEFDF91CF91089590E080E005
:10219000B7DD81E090E09983888390E080E0F3CF21
:1021A0000F931F93CF93DF93EA018C01060F171F44
:1021B0000E94BF1B81110BC082E090E0998388834D
:1021C00085EF9FEFDF91CF911F910F910895F80157
:1021D0008181823038F082E090E0998388838EEFAD
:1021E0009FEFF0CF81E090E08BDD88E090E0998375
:1021F000888390E080E0E6CFCF93DF930097D1F41F
:10220000EB01FB01329686E0DF011D928A95E9F72A
:102210008FEF888385E089831A820E947D1F8B83DC
:102220000E947C1F9D838C8381E08E838F83DF914E
:10223000CF910895DF91CF911ACD80E590E19093F1
:10224000AA038093A90308958091A9039091AA03FA
:1022500008951092AA031092A90308958091AC03E7
:102260009091AD030895411105C061157105810577
:10227000910561F06093AC037093AD038093AE035E
:102280009093AF034093B00381E0089580E00895F8
:10229000FF920F931F93CF93DF938A01EC01C60F38
:1022A000D71FF9800E947D1FF816190668F082E09A
:1022B00090E0F801918380838EEF9FEFDF91CF91C3
:1022C0001F910F91FF9008956C817D818E819F8178
:1022D0004B81C9DF811108C082E090E0F801918351
:1022E000808384EF9FEFEACF89818093AB0390E0F6
:1022F0000196F8019183808390E080E0DFCFCF9357
:10230000DF93EA01FC01E60FF71F64817581868186
:1023100097814381A8DF811109C082E090E0998311
:10232000888384EF9FEFDF91CF91089581E090E063
:102330009983888390E080E0F6CFECEAF3E0408177
:10234000518162817381480F511D611D711D408350
:102350005183628373830895CF93C091AB034C2F55
:1023600050E06091AC037091AD0301960E9474300F
:102370008C2FE3DF1092AB03CF910895009799F46F
:102380008091AC039091AD032FEFFB012083892B4B
:1023900059F02091AB0330E02F5F3F4F24173507F2
:1023A00019F4CB01D9CF63CC0895009799F48091AB
:1023B000AC039091AD032FEFFB012083892B59F0E3
:1023C0002091AB0330E02F5F3F4F2417350719F4FE
:1023D000CB01C2CF4CCC089523E1AC01249FC001B6
:1023E000259F900D1124E091B503F091B603E80FFD
:1023F000F91F238134812250310981E022303105D7
:1024000008F080E008950F931F93CF93DF9300911E
:10241000B7031091B803D0E0C0E080E00C171D07AF
:1024200049F491E0811190E0892FDF91CF911F91C4
:102430000F9108958111F5CFCE01CEDF2196EECF19
:10244000A091B503B091B603109729F12091B7037D
:102450003091B80382179307F0F453E1589F90012D
:10246000599F300D1124A20FB31FED91FC911197CC
:10247000309789F012968C91681768F48DE0689F08
:10248000E00DF11D112480819181892B21F081E0E3
:102490009281491708F080E008959C0143E1429F32
:1024A000C001439F900D1124E091B503F091B60354
:1024B000E80FF91F8385823091F481E090E0658117
:1024C000768140913102509132026417750711F400
:1024D00090E080E0892B19F081E0232B09F080E067
:1024E0000895FC01A081B1818DE0689FA00DB11D10
:1024F000112413964D915C9185859685489F900196
:10250000499F300D589F300D1124C901019661116A
:1025100003C0478144FD04960895EF92FF920F9304
:102520001F93CF93DF93EA01FC01E60FF71F0281AF
:102530001381E480F5804F2D6E2DC80181DF81115C
:102540000DC082E090E0998388838EEF9FEFDF914A
:10255000CF911F910F91FF90EF900895C8013CDF3C
:10256000882339F082E090E09983888388EF9FEF99
:10257000EECF1093380200933702E0923902F092C6
:102580003A0281E090E09983888390E080E0DFCF99
:10259000CF92DF92EF92FF920F931F93CF93DF932F
:1025A0007A01EC01C60FD71FC0903702D0903802D5
:1025B0000091390210913A02412F602FC60140DF8D
:1025C000811110C082E090E0F701918380838AEF4F
:1025D0009FEFDF91CF911F910F91FF90EF90DF90D0
:1025E000CF900895C601F8DE882341F082E090E0A4
:1025F000F7019183808388EF9FEFEBCF4C815D8162
:102600006E817F819A8189818F3F41F082E090E0E5
:10261000F701918380838EEF9FEFDBCFE3E1EC9DA9
:102620009001ED9D300D1124E091B503F091B603BA
:10263000E20FF31F0190F081E02D2DE0029FE00DED
:10264000F11D11240190F081E02D27E0129FE00D93
:10265000F11D1124808391838B8182834383548372
:10266000658376831F5F10933A0281E090E0F70163
:102670009183808390E080E0ACCFEF92FF920F9344
:102680001F93CF93DF937A018C01060F171FC09120
:10269000B503D091B603209781F021E030E0F80136
:1026A000828193814091B7035091B80384179507B5
:1026B00010F030E020E0232B71F482E090E0F7018D
:1026C000918380838EEF9FEFDF91CF911F910F91C8
:1026D000FF90EF90089543E1489F9001499F300D8E
:1026E0001124C20FD31F78DE882341F082E090E0EE
:1026F000F7019183808388EF9FEFE6CFF801248173
:10270000358120383105C8F687818111D6CF4181C6
:10271000842F90E08F7E009741F082E090E0F701F7
:102720009183808386EF9FEFCFCF4F833E832D83AE
:10273000268128871986223010F421E0288721E09D
:1027400030E0F70131832083BFCF88E090E0FA01C9
:102750009183808390E080E00895FB018FEF808378
:1027600081E181838FEF9FEF9383828380E890E004
:1027700095838483168217820895FB018FEF8083EF
:1027800091E0918382839383848384E3858381E0D2
:1027900090E0978386830895DF92EF92FF920F93E4
:1027A0001F93CF93DF93EA01FC01E60FF71F8181AE
:1027B000813071F082E090E0998388838FEF9FEF02
:1027C000DF91CF911F910F91FF90EF90DF900895CF
:1027D00082819381D4802581E680F7800091B503C2
:1027E0001091B6030115110539F482E090E0998348
:1027F00088838CEF9FEFE4CF4091B7035091B803EB
:102800008417950738F082E090E0998388838EEFF3
:102810009FEFD6CF892B39F082E090E099838883AF
:1028200086EF9FEFCDCF8D2D8D7FB1F72130A1F7B2
:1028300081E0D11006C091E0E916F10431F080E0AA
:1028400004C0E2E0EE16F104D0F3882329F390E00F
:1028500080E0C2DD882339F082E090E099838883AC
:1028600088EF9FEFADCFF801D38681E08487F686AD
:10287000E586108A178681E090E09983888390E04E
:1028800080E09ECF4CE050E06EE772E057CA8F9236
:102890009F92BF92CF92DF92EF92FF920F931F937E
:1028A000CF93DF93EA01FC01E60FF71F828193814A
:1028B0000481B580E091B503F091B603309791F4AF
:1028C00082E090E0998388838CEF9FEFDF91CF9136
:1028D0001F910F91FF90EF90DF90CF90BF909F904E
:1028E0008F9008952091B7033091B8038217930712
:1028F00038F082E090E0998388838EEF9FEFE6CFF7
:1029000023E1289F6001299FD00C1124EC0DFD1DAF
:10291000E080F180E114F10499F28281081748F710
:102920008DE0089F80011124E00EF11EF7018081E7
:102930009181892B29F6BB20E1F2F7E0BF9E40018F
:102940001124C4010E948120F70191838083E091CA
:10295000B503F091B603EC0DFD1D0190F081E02D63
:10296000E00FF11F80819181009739F482E090E0BF
:10297000998388838DEF9FEFA9CFA40170E060E079
:102980000E947D308091B5039091B603C80ED91E88
:10299000F60180819181080F191FF801B28281E050
:1029A00090E09983888390E080E090CFAF92BF92CF
:1029B000CF92DF92FF920F931F93CF93DF93EA01A1
:1029C000FC01E60FF71F82819381F4800091B5032B
:1029D0001091B6030115110581F482E090E099830E
:1029E00088838CEF9FEFDF91CF911F910F91FF9024
:1029F000DF90CF90BF90AF9008952091B7033091B2
:102A0000B8038217930738F082E090E099838883B7
:102A10008EEF9FEFE8CF2FEF2F0D2C3FA8F723E18C
:102A2000289F6001299FD00C11240C0D1D1DF80159
:102A300080819181892B89F6FDE0FF9E5001112450
:102A4000C5010E948120F80191838083E091B50344
:102A5000F091B603EC0DFD1D80819181009739F452
:102A600082E090E0998388838DEF9FEFBCCFA50132
:102A700070E060E00E947D30E091B503F091B60314
:102A8000EC0DFD1DF28281E090E09983888390E057
:102A900080E0A9CFCF92DF92EF92FF920F931F9326
:102AA000CF93DF93860F971FFC01028113818091E2
:102AB000B5039091B603892B81F082E090E0FA0192
:102AC000918380838CEF9FEFDF91CF911F910F91C6
:102AD000FF90EF90DF90CF900895C801B0E0A0E0A4
:102AE0000197A109B1098F3F9F4FA105B10540F0A2
:102AF00082E090E0FA01918380838EEF9FEFE4CF34
:102B00007A0183E1809F6001819FD00C1124C6016E
:102B10000E948120EC01009741F482E090E0F701EF
:102B2000918380838DEF9FEFCFCFA60170E060E0AF
:102B30000E947D30D093B603C093B5031093B803C1
:102B40000093B70390E080E02FEF3FEF41E061E0BA
:102B500070E08017910741F481E090E0F7019183E4
:102B6000808390E080E0B0CF3A8B298B1B864C8726
:102B70007E876D87188A1F8601966396EACFEF924B
:102B8000FF921F93CF93DF93EC0110E0F12CE12C27
:102B90006A811617B0F083E0689FB0011124AE017E
:102BA0004F5E5F4FC7010E94E620009721F02FEF94
:102BB0003FEF3A8B298BDF91CF911F91FF90EF90E0
:102BC0000895612FCE018DDC61E070E00E942E1F20
:102BD000E816F90608F47C011F5FDACFF89420911B
:102BE000B3033091B40381E02115310509F080E091
:102BF000232B09F0789408952F923F924F925F9281
:102C00006F927F928F929F92AF92BF92CF92DF92FC
:102C1000EF92FF920F931F93CF93DF933C01660EC9
:102C2000771EF301828193814C01B12CA12CC091BC
:102C3000B503D091B603209769F021E030E06091B0
:102C4000B7037091B8038617970710F030E020E0C3
:102C5000232BD1F482E090E0FA01918380838EEF00
:102C60009FEFDF91CF911F910F91FF90EF90DF9039
:102C7000CF90BF90AF909F908F907F906F905F901C
:102C80004F903F902F90089580923B0290923C028B
:102C9000A0923D02B0923E0263E1689F9001699F5D
:102CA000300D1124C20FD31FF3018181833040F016
:102CB00082E090E0FA019183808386EF9FEFD1CF8D
:102CC0002A012B813C81232BF1F4288139819F81BA
:102CD00091FF2EC0232B09F46FC02091BA039A8173
:102CE000422F490F5527551FBA0141E050E0613886
:102CF000710514F050E040E0452B09F45DC02A87CF
:102D0000920F9093BA038150823008F481C066DF3D
:102D1000882309F4D8C0F3018181813009F48DC082
:102D200008F47BC0823009F4C6C090E080E0ADC0FA
:102D3000232B09F441C02091B9039A81E22FE90FB6
:102D4000FF27FF1F41E050E0ED3FF10514F050E098
:102D500040E0452B89F12A87920F9093B903D3CF96
:102D6000A081B181A20FB31F11966C91060F111DA6
:102D70000196295F3F4F8417950794F38D859E85B3
:102D8000089F1001099F300C189F300C1124C114AA
:102D9000D104D1F48F8184FF17C00E947C1FF5E01D
:102DA0002F0E311C21E08215930508F420E0A701C5
:102DB000435F5F4F21110EC082E090E0F2019183EA
:102DC000808387EF9FEF4DCF0E947C1F2FEF221A49
:102DD000320AE8CF88819981E80EF91EF701148341
:102DE0000383FFEFCF1ADF0A7A018A818C151D0455
:102DF00009F00CF48CCFE881F981EE0DFF1D4281C2
:102E000050E030E020E010E000E090E080E0B3CF60
:102E1000F12CE12CD12CC12CE8CF81E090E09C83F7
:102E20008B83F1DA882309F480CF81E090E00E945F
:102E3000800E80E40E948E0E78CF89899A8901964F
:102E400061F083E090E09C838B8382E090E00E94BD
:102E5000800E80E40E94880E68CF8D819E81209133
:102E600031023091320282179307D1F4609135021A
:102E700070913602AE014F5E5F4F809133029091A8
:102E800034020E9405220097E1F2789422E030E0BB
:102E9000F20131832083892B99F08DEF9FEFE1CEF2
:102EA00089288A288B2869F6892B59F6CE0167DE96
:102EB000188A1F86E8CF82E090E09C838B8335CF11
:102EC00090E080E0CECE82E090E0F20191838083BA
:102ED00085EF9FEFC6CE8F929F92AF92BF92CF9217
:102EE000DF92EF92FF920F931F93CF93DF93EA014C
:102EF0008C01060F171FF8018181833098F082E062
:102F000090E09983888386EF9FEFDF91CF911F91A7
:102F10000F91FF90EF90DF90CF90BF90AF909F9078
:102F20008F9008958091B5039091B603892B61F03D
:102F300081E090E02091B7033091B803232B11F486
:102F400090E080E0892B39F482E090E099838883D7
:102F50008EEF9FEFDACF42DE882309F4DFC0F8015D
:102F60008181813009F495C0E8F0823099F4209194
:102F7000B7033091B803E091B503F091B60390E048
:102F800080E041E050E02817390709F0BDC03BDA86
:102F9000811117C0789481E090E09983888390E054
:102FA00080E0B3CF2091B7033091B803E091B5032F
:102FB000F091B60390E080E041E050E02817390737
:102FC00041F481E090E00E94800E80E40E948E0E29
:102FD000E1CF63817481672B11F0548343830196A1
:102FE0007396ECCFE091B503F091B603E00FF11FBB
:102FF0002381348122303105D9F4218932892F3F50
:103000003F4FB1F425813681409131025091320217
:103010002417350761F5AF014F5E5F4F60913502B0
:103020007091360280913302909134020E94052201
:10303000EFEFCE1ADE0AEE0AFE0A0D5E1F4F409138
:10304000B7035091B80370E060E0C416D506E606F9
:10305000F7063CF5009731F27894892B09F49BCF61
:1030600082E090E0998388838DEF9FEF4ECFC1146B
:10307000D104E104F104E1F6232BD1F6CF017FDD89
:10308000E091B503F091B603E00FF11F108A1786A7
:10309000CFCF10E000E090E080E0C12CD12C760191
:1030A000CECF0097C9F610E000E0812C912C54019E
:1030B00083E0E82EF12C1AC0E091B503F091B6033D
:1030C000E00FF11F83819481029749F4F482E38237
:1030D00082E090E00E94800E80E40E94880EFFEF64
:1030E0008F1A9F0AAF0ABF0A0D5E1F4F8091B70368
:1030F0009091B803B0E0A0E088169906AA06BB0636
:10310000DCF290E080E0A8CF6381748162307105C9
:1031100011F4548343830196739635CF82E090E097
:103120009983888385EF9FEFF0CE0097B9F48FEFF6
:10313000FB01808320913B0230913C0243E1429F9E
:10314000C001439F900D1124E091B503F091B603A7
:10315000E80FF91F8285FB01818308950C94370ED7
:1031600088E090E0FA019183808390E080E0089508
:103170001092B4031092B303E5EBF3E086E0DF01B5
:103180001D928A95E9F782E494E19093B2038093CB
:10319000B10308958091B1039091B20308952F92E5
:1031A0003F924F925F926F927F928F929F92AF92D7
:1031B000BF92CF92DF92EF92FF920F931F93CF9324
:1031C000DF93CDB7DEB72F970FB6F894DEBF0FBEF3
:1031D000CDBFF894E091B303F091B4033196F0932E
:1031E000B403E093B30378944090B5035090B603D2
:1031F0004114510409F40CC2E091B703F091B803F3
:10320000EF2B09F405C22D8749875A876B877C8786
:1032100098878F831201B12CA12C10E000E08091DF
:10322000B7039091B803A816B90618F40115110553
:1032300029F1F8948091B3039091B403019790938E
:10324000B4038093B3037894C8012F960FB6F89413
:10325000DEBF0FBECDBFDF91CF911F910F91FF90C9
:10326000EF90DF90CF90BF90AF909F908F907F9026
:103270006F905F904F903F902F9008957101E418E8
:10328000F508D10117968C91179781FD54C01396BC
:103290008D919C911497039709F04DC015968D91CF
:1032A0009C91EF81F8858E179F0709F044C0B50106
:1032B00090E080E07FD48A832091B5033091B603FB
:1032C0003D832C833D85332309F44CC04C815D81C3
:1032D000452B09F49AC18091B7039091B803A816C1
:1032E000B90608F092C1C501D8D88823E9F06C81ED
:1032F0007D816E0D7F1D7D836C83DB011F968D911B
:103300009C91892B89F0D12CC12CF12CE12CAC8122
:10331000BD8112968C9112978E151F0409F094F4BA
:1033200050961C921E921F972A81222321F0B501EC
:1033300090E080E041D43FEFA31AB30A43E1240EAA
:10334000311C6DCFAC81BD81ED91FC91EC0DFD1D6B
:10335000858196810FD7BFEFEB1AFB0AEDE0CE0E09
:10336000D11CD5CFEC81FD81309709F44EC18091FD
:10337000B7039091B803A816B90608F046C1EE0D40
:10338000FF1DFF87EE87C50188D88B83882339F11D
:10339000AE85BF851F968D919C915097019621E037
:1033A0001D964D915C918417950709F020E02E83BE
:1033B0001982712C10E000E0AE85BF8512968C91C9
:1033C000781608F45DC0EE85FF85878590890196A3
:1033D000658576850E941D30908B8787A5CFB1E0EB
:1033E000BE83E6CF992493946BC08BD6F601968367
:1033F000858382C0D601ED90FC90B7E06B9EE00C17
:10340000F11C1124F7016381748180818F3F61F188
:1034100021E030E002C0220F331F8A95E2F7C90194
:10342000092E000CAA0BBB0BFB014081518162816C
:10343000738184239523A623B72321E0892B8A2B2C
:103440008B2B09F420E0D4012C93D70111968C9199
:10345000F60123853485820F932F911D880E991EC6
:103460001486138663949BC0418150E0C4010E947E
:103470007430EBCF998206EF1FEFC5C01982C3C02D
:10348000F981F111A0CFEDE07E9E70011124AE858F
:10349000BF85CD90DC90CE0CDF1C15D49D838C8332
:1034A000BB81BB2309F49ECF81E0EE85FF85278594
:1034B0003089232B09F080E0982E882309F458C026
:1034C000672D8E859F850DD8D60118969C938E9377
:1034D000179761E070E0C2D4EE85FF8521893289BB
:1034E0002F3F320709F481CFBC01C901CFD7D601E4
:1034F00016969C938E931597D60115968D919C9157
:103500001697009709F4B6CFEC81FD818E0F9F1FAF
:103510001A969C938E931997AE85BF85ED91FC9179
:103520001197EE0EFF1EF701218532851486138652
:103530001A968C91870DD9018D93711016C0EE8566
:10354000FF85878184FF11C049855A856B857C85FD
:10355000F9014183528363837483F70183859485E2
:103560000496A80FB91F14861386F701B287A187A6
:10357000D60115968D919C911697892B09F443C01D
:10358000EE85FF852581368180913102909132024E
:103590002817390779F019968D909C90612CD601E7
:1035A00012968C911297681608F424CF1A969C9262
:1035B0008E921997BE81BB2309F460CF61E070E061
:1035C000F601878190854AD4D6011796ED90FC903C
:1035D000189715964D915C91E1E0F0E0BA81BB231C
:1035E00011F0F0E0E0E00C811D819C01B50188271D
:1035F00099278E1B9F0B6AD38C01892B21F0F60132
:1036000085819681B7D57394D7CE0FEF1FEF8CCEFF
:1036100010E000E00ECE2F923F924F925F926F9299
:103620007F928F929F92AF92BF92CF92DF92EF9252
:10363000FF920F931F93CF93DF938091B5039091E7
:10364000B60310E000E0892BA9F0C8DA0AEF1FEFFB
:10365000882381F02090B7033090B803C091B50360
:10366000D091B603D12CC12C10E000E02C143D0405
:10367000A9F47894C801DF91CF911F910F91FF9029
:10368000EF90DF90CF90BF90AF909F908F907F9002
:103690006F905F904F903F902F900895C6010E94C9
:1036A0004D12882309F18B819C810397E9F48F8562
:1036B0009889892BC9F0B60190E080E07BD221E0A7
:1036C00030E0882311F030E020E044245524421AF1
:1036D000530AB12CA12C912C812C8A8188151904B4
:1036E00009F038F4188A1F864FEFC41AD40A63967B
:1036F000BDCFE881F981EA0DFB1D85819681892B7B
:10370000A1F161E070E087819085A8D33C01DBD214
:103710008C01E881F981EA0DFB1D81859285258167
:103720003681200F311FAC01421B530B9A01478198
:103730005085421B530B70E060E00E947D30E881B1
:10374000F981EA0DFB1DE780F084458156819301E4
:10375000B601C201BBD28C01892B39F0E881F98115
:10376000EA0DFB1D8581968105D55FEF851A950AC7
:103770008DE0A80EB11CB1CF31CA789408952F9274
:103780003F924F925F926F927F929F92AF92BF92C1
:10379000CF92DF92EF92FF920F931F93CF93DF931D
:1037A00000D000D0CDB7DEB70091B5031091B603BD
:1037B000992493940115110509F43EC0A090B70314
:1037C000B090B8030BDA982E8823B1F11092B603AB
:1037D0001092B5031092B8031092B7031092B90378
:1037E0001092BA038FEF9FEFDC0180933B0290931E
:1037F0003C02A0933D02B0933E0278947FD31E8397
:103800000D83C12CD12C7601C501B0E0A0E08983E5
:103810009A83AB83BC8322242A94322C89819A8197
:10382000AB81BC81C816D906EA06FB06F4F0C801D4
:10383000A1D480E40E948E0E892D26960FB6F894AE
:10384000DEBF0FBECDBFDF91CF911F910F91FF90D3
:10385000EF90DF90CF90BF90AF909F907F906F9050
:103860005F904F903F902F900895AD81BE81159647
:103870008D919C91169720913102309132028217DE
:103880009307D1F451968D919C91EED5ED81FE81F7
:1038900080819181B12CA12C412C512C3201892B9A
:1038A00089F5BFEFCB1ADB0AEB0AFB0AED81FE813B
:1038B0007396FE83ED83B2CFC114D104E104F10409
:1038C00029F7892B19F7ED81FE81818992898F3F34
:1038D000980709F029D5AD81BE8152963C922E926F
:1038E0005197D4CF8A0D9B1DDC018D919C9100973F
:1038F00009F040D4BFEF4B1A5B0A6B0A7B0AEDE07C
:10390000AE0EB11CAD81BE818D919C911197129626
:103910004C9150E070E060E044165506660677066C
:103920000CF328D4BECFCF93DF93EA0128DF8111B7
:1039300009C082E090E09983888385EF9FEFDF9153
:10394000CF91089581E090E00E94800E81E090E0A8
:103950009983888390E080E0F2CF11DF1092B20368
:103960001092B103089542E050E066EC72E00C94CE
:103970009E0EFF920F931F93CF93DF938A01EC016A
:10398000C60FD71FF980B9D20897F816190671F03B
:1039900068F082E090E0F801918380838EEF9FEFE2
:1039A000DF91CF911F910F91FF9008956C817D81E0
:1039B0008E819F814B810E943311811108C082E06A
:1039C00090E0F8019183808384EF9FEFE9CFF98045
:1039D0000E942E114F2D50E0BE01685F7F4F0E9464
:1039E000743089810E949D1181E090E0F8019183FB
:1039F000808390E080E0D4CFDF92EF92FF920F932C
:103A00001F93CF93DF938A01EC01C60FD71F0E944B
:103A10002E117C01D98071D2DD2059F0029721E06E
:103A200030E0D816190619F010F030E020E0232B12
:103A300079F482E090E0F801918380838EEF9FEF2C
:103A4000DF91CF911F910F91FF90EF90DF9008953C
:103A5000EF2841F482E090E0F8019183808384EFC5
:103A60009FEFEECFF9800E942E114F2D50E0BE0146
:103A70006E5F7F4F0E94743089810E949D1181E0AA
:103A800090E0F8019183808390E080E0D9CF83EBD0
:103A90009CE19093BC038093BB0308958091BB038A
:103AA0009091BC0308950895FC01118210829383C4
:103AB00082830895DB011D921C92DC011296ED9128
:103AC000FC9113977183608313967C936E93129786
:103AD0000895FC0180819181DB018D939C93A081ED
:103AE000B181109741F08D919C9191838083892BB6
:103AF00011F4F383E2830895FC0180819181DB015D
:103B00008D939C93892B11F47383628371836083FB
:103B10000895FC0111821082938382830895CF93CC
:103B2000DF931F921F92CDB7DEB71A821982F894E5
:103B3000BE016F5F7F4F82EC93E0CBDF89819A817A
:103B4000009709F017D389819A81892B89F7BE01E3
:103B50006F5F7F4F86EC93E0BCDF89819A8100978D
:103B600009F008D389819A81892B89F778940F907D
:103B70000F90DF91CF910895CF93DF931F921F9203
:103B8000CDB7DEB71A821982F894BE016F5F7F4FFE
:103B90008EEB93E09EDF89819A81009709F0EAD24B
:103BA00089819A81892B89F778940F900F90DF9102
:103BB000CF91089581E0089590E080E00895EF921C
:103BC000FF920F931F93CF93DF931F921F92CDB756
:103BD000DEB71A8219828091BD0307EF1FEF882399
:103BE000A1F1F894BE016F5F7F4F86EC93E071DF27
:103BF000789489819A81EE24E394F12C892B51F4F5
:103C0000F894BE016F5F7F4F82EC93E062DF78949F
:103C1000F12CE12C89819A810EEF1FEF0097A9F01A
:103C2000FC014281538164E070E074D68C01892BE1
:103C300061F0F89469817A81C701880F991F880F14
:103C4000991F8E539C4F58DF7894C8010F900F90A6
:103C5000DF91CF911F910F91FF90EF9008950F93F7
:103C60001F93CF93DF9300D01F92CDB7DEB71C8296
:103C70001B821A8219828091BD0307EF1FEF8823F0
:103C8000C1F0AE014D5F5F4F64E070E0CE01019680
:103C9000B4D68C01892B69F4E981FA818B819C81EE
:103CA00093838283F89469817A818EEB93E002DFBB
:103CB0007894C8010F900F900F900F90DF91CF91E3
:103CC0001F910F910895B9D7049608958F929F92EE
:103CD000AF92BF92CF92DF92EF92FF920F931F931A
:103CE000CF93DF931F921F92CDB7DEB71A8219824E
:103CF000BC016F5F7F4F6330710598F0AA24AA94CE
:103D0000BA2CC5010F900F90DF91CF911F910F91A9
:103D1000FF90EF90DF90CF90BF90AF909F908F90EB
:103D200008954115510551F3480159018A016C016B
:103D3000CADF8815990511F7E114F104F9F28E0D27
:103D40009F1DA816B906D0F28091BD038823F1F01B
:103D5000F894B501645071099701AE014F5F5F4F50
:103D6000C8010496DFD65C01892B71F489819A81A0
:103D7000F80193838283C601880F991F880F991FCA
:103D8000B8018E539C4F96DE7894BBCF87EFA82E58
:103D9000BB24BA94B6CFAF92BF92CF92DF92EF928C
:103DA000FF920F931F93CF93DF931F921F92CDB774
:103DB000DEB71A821982892B09F047C06115710597
:103DC00009F443C04115510509F43FC021153105DF
:103DD00009F43BC001151105C1F18091BD03882391
:103DE000B9F179016A015B01F894BE016F5F7F4F01
:103DF0008EEB93E06EDE789489819A81009759F179
:103E0000DC0112966D917C91A8010496A4D68C01D8
:103E1000E981FA81D501ED93FC9382819381049627
:103E2000F601918380834FDFD7018D939C93C80166
:103E30000F900F90DF91CF911F910F91FF90EF9016
:103E4000DF90CF90BF90AF9008950FEF1FEFEFCFAF
:103E500007EF1FEFECCF0EEF1FEFE9CFCF93DF930C
:103E6000EC01672B71F4F2D68C179D0760F0E5D654
:103E70002496C80FD91FE4D68C0F9D1FDF91CF91D8
:103E80000895E1D6F1CF90E080E0F8CF0F931F9333
:103E9000CF93DF932091BD0321112BC08B01EC0147
:103EA00082EC93E001DE86EC93E0FEDD8EEB93E0A6
:103EB000FBDD97D00097C1F4C9D670E060E0CEDF9B
:103EC0004FE352E062E070E081D1009769F48091A5
:103ED0003F0290914002CCD6B801CE0101D50097A7
:103EE00019F421E02093BD03DF91CF911F910F9131
:103EF000089584EF9FEFF8CFA6C6A8C6CF93DF93AF
:103F0000A8D6EC01892B11F40ADE36DECE01DF9152
:103F1000CF910895CF93DF939CD6EC01892B09F4C0
:103F2000FEDDCE01DF91CF91089580913F02909107
:103F300040020895CF93DF938091BD03D0E0C0E0AD
:103F40008823D1F09AD6EC01892BB1F4E8DD14DE98
:103F500080913F0290914002E7D1E8D2EC01892B99
:103F600059F482EC93E0D5DD86EC93E0D2DD8EEB64
:103F700093E0CFDD1092BD03CE01DF91CF91089584
:103F8000EF92FF920F931F93CF93DF93EC017A018F
:103F90008B010F5F1F4F0E9DA0010F9D500D1E9DA9
:103FA000500D112470E060E00E947D3090E080E0D0
:103FB000F0E0E0E02FEFE816F90639F4DF91CF9159
:103FC0001F910F91FF90EF9008951A821982288314
:103FD000309711F0D283C1830196FE01C00FD11F2B
:103FE000EACFCF92DF92EF92FF920F931F93CF937E
:103FF000DF9307E115E00C7F43E050E061E472E0FD
:1040000087E492E01AD481E4E82E82E0F82E97E467
:10401000C92E92E0D92EC6E9D5E0D7014D915D9128
:104020007D01F601619171916F01198308835D83B0
:104030004C835B834A837F836E839B012F5F3F4F5B
:10404000249FC001259F900D349F900D11249987C6
:1040500088870115110511F0C80192DF88859985BF
:10406000080F191F2A96F7E4EF16F2E0FF06A9F6EB
:10407000ECECF3E088E491E0DF019C011D9221501B
:104080003040E1F71092CB031092CA031092B505AD
:104090001092B4051092B9051092B8051092B705A8
:1040A0001092B6051092BB051092BA051092BD058C
:1040B0001092BC051092BF051092BE051092C30568
:1040C0001092C2051092C1051092C0051092C5054C
:1040D0001092C4051092C7051092C6051092930560
:1040E00010929205109295051092940590E080E050
:1040F000DF91CF911F910F91FF90EF90DF90CF90C4
:1041000008950097F1F0F894A7E4B2E0E6E9F5E04D
:1041100030E020E04D915D9148175907A8F04281A9
:1041200053814115510581F08AE0829FF001839F00
:10413000F00D1124EA56FA4F80819181009759F4CD
:10414000789490E080E008952F5F3F4F3A962330B7
:10415000310501F7F5CFDC0111966D917C917183EA
:1041600060834150510953834283FC012193CF0165
:1041700078940895009749F1DC018E91853041F4DF
:10418000E0919405F09195053097F9F0CD011994DF
:104190008530D8F4282F30E0F8948FEF8C938AE0A4
:1041A000829FF001839FF00D1124EA56FA4F80811F
:1041B000918112969C938E931197B183A0838281F3
:1041C000938101969383828378940895CF92DF92AE
:1041D000EF92FF920F931F93CF93DF939C018FEC8D
:1041E00093E08C7F4115510509F49BC021153105E1
:1041F00009F497C06115710509F493C07A01AB0108
:10420000B9016D5F7F4F6C7F9B012F5F3F4F249FF4
:104210008001259F100D349F100D1124F8942091DA
:10422000B4053091B505232B59F42091BC0530918C
:10423000BD052115310569F12017310708F058C077
:104240002091BE053091BF05232B91F42091BC0530
:104250003091BD05820F931F2091C6053091C7058F
:104260002115310509F441C02017310708F056C067
:104270007894CFEFDFEF86EF9FEFF701D183C08314
:10428000DF91CF911F910F91FF90EF90DF90CF9032
:104290000895C3E0D0E0C090CA03D090CB0325E4DA
:1042A00031E02C193D092017310710F32AE02C9F2B
:1042B000F0012D9FF00D1124EA56FA4F918380836F
:1042C00055834483538342837783668311870087B2
:1042D000009709F055DE0C0D1D1D1093CB030093C4
:1042E000CA03789490E080E0C8CFC4E0D0E0D3CF98
:1042F000C3E0D0E02AE02C9FF0012D9FF00D1124A7
:10430000EA56FA4F918380835583448353834283D3
:1043100077836683009729F333DEE3CFC4E0D0E0F0
:10432000E9CF8FEF9FEFACCF9C010397029708F086
:1043300069C0F89484E09AE0482F50E024173507CC
:104340000CF44DC091E08AE0829FF001839FF00D54
:104350001124EA56FA4F11821082158214821382B8
:104360001282178216829923B1F18091B40590913F
:10437000B505892BA9F42091BC053091BD05211507
:10438000310571F08091CA039091CB03821B930B8E
:104390009093CB038093CA031092BD051092BC0585
:1043A0008091BE059091BF05892BA9F42091C60587
:1043B0003091C7052115310571F08091CA039091A4
:1043C000CB03821B930B9093CB038093CA03109271
:1043D000C7051092C605789490E080E00895949FF8
:1043E000F001959FF00D1124EA56FA4F408151815A
:1043F000452B31F440855185452B11F481509CCFDC
:1044000090E0A1CF8FEF9FEF08954115510549F13D
:10441000009739F16115710521F1F8942091920509
:1044200030919305232BB9F4209194053091950593
:10443000232B89F4909393058093920570939505AF
:1044400060939405789425E030E090E080E0FA01F4
:1044500031832083089578942FEF3FEF86EF9FEF0D
:10446000F6CF8FEF9FEF0895059769F4F8941092B7
:1044700093051092920510929505109294057894E8
:1044800090E080E008958FEF9FEF0895611571052A
:1044900019F4F0E0E0E011C08530910581F4E0917D
:1044A0009205F09193053097A1F3CB0101961995F0
:1044B000009779F3FC0185E08193CF0108959C0179
:1044C000235031092230310520F72AE0289FD001FE
:1044D000299FB00D1124AA56BA4F2D913C911197E6
:1044E000232BB9F216962D913C9117972617370773
:1044F00080F2F89412962D913C9113972115310575
:1045000029F0ED91FC911197309711F47894C1CF77
:104510004181528111965C934E932150310913963B
:104520003C932E93129781937894C7CFE4E1F5E002
:104530008EE7DF011D928A95E9F7ECECF3E088E461
:1045400091E0DF019C011D9221503040E1F7109273
:10455000CB031092CA03E6E9F5E082E3DF011D9286
:104560008A95E9F7E2E9F5E084E0DF011D928A959A
:10457000E9F790E080E00895CF93DF93C0914D027A
:10458000D0914E02CF3FDC0759F420D490934E02D5
:1045900080934D0297FF09C0D0934E02C0934D0205
:1045A00084EF9FEFDF91CF91089590E080E0FACF04
:1045B0008230910528F48093C80590E080E008954A
:1045C0008FEF9FEF08954F925F926F927F92AF921D
:1045D000BF92CF92DF92EF92FF920F931F93CF93F0
:1045E000DF931F921F92CDB7DEB71A821982009710
:1045F00009F478C06115710509F474C020914D0269
:1046000030914E0207EF1FEF2F3F3F4F09F444C098
:104610006B015C01412C512C3201F12CE12C10E09A
:1046200000E09E012F5F3F4FA6014E195F09B501C3
:104630006E0D7F1D80914D0290914E0226D4892BE4
:1046400009F04AC089819A81009741F4E114F1048C
:1046500029F42091C805222309F441C0E80EF91E6F
:10466000EC14FD04C8F480E8481684E858068EE18E
:104670006806710418F560E070E0CB010CD72AE001
:10468000420E511C611C711C0A3F4FEF140721F0B0
:10469000043F8FEF1807A1F4C8010F900F90DF912E
:1046A000CF911F910F91FF90EF90DF90CF90BF902F
:1046B000AF907F906F905F904F90089501EF1FEF44
:1046C00081E090E0013F2FEF120711F090E080E0D1
:1046D000892B09F4A6CFE0CF04EF1FEFDDCF0AEF5F
:1046E0001FEFDACF0FEF1FEFD7CF4F925F926F928E
:1046F0007F92AF92BF92CF92DF92EF92FF920F9391
:104700001F93CF93DF931F921F92CDB7DEB71A820C
:104710001982009709F478C06115710509F474C015
:1047200020914D0230914E0207EF1FEF2F3F3F4F78
:1047300009F444C06B015C01412C512C3201F12C75
:10474000E12C10E000E09E012F5F3F4FA6014E19C3
:104750005F09B5016E0D7F1D80914D0290914E0253
:104760004AD3892B09F04AC089819A81009741F484
:10477000E114F10429F42091C805222309F441C071
:10478000E80EF91EEC14FD04C8F480E4481682E437
:1047900058068FE06806710418F560E070E0CB0100
:1047A0007AD62AE0420E511C611C711C0E3F4FEF5D
:1047B000140721F0043F8FEF1807A1F4C8010F90F0
:1047C0000F90DF91CF911F910F91FF90EF90DF90AD
:1047D000CF90BF90AF907F906F905F904F90089573
:1047E00002EF1FEF81E090E0023F2FEF120711F080
:1047F00090E080E0892B09F4A6CFE0CF04EF1FEF13
:10480000DDCF0EEF1FEFDACF0FEF1FEFD7CF809185
:104810004D0290914E028F3F980749F0CFD2892BDD
:1048200049F48FEF9FEF90934E0280934D0290E0FA
:1048300080E0089584EF9FEF0895CF92DF92EF928A
:10484000FF920F931F93CF93DF9321E04115510502
:1048500009F020E04150510921112CC0DC01FB017D
:10486000D12CC12C21E022C03FEFC31AD30A7D0115
:104870000D911D91E701EA80FB80E016F106A8F496
:1048800020813181E280F380F182E08233832283D0
:10489000ED90FC9011979D0122503109E901F982B8
:1048A000E88211961C930E9320E03296C416D5062A
:1048B000D8F2D2CFDF91CF911F910F91FF90EF905F
:1048C000DF90CF900895FC01680F791F90E080E0A1
:1048D000E617F70709F408952191820F911DF8CF8B
:1048E0002091C905211113C047DE009791F4109261
:1048F000CF051092CE051092CD051092CC051092E6
:10490000CB051092CA0521E02093C905089584EFD4
:104910009FEF0895AF92BF92CF92DF92EF92FF92F6
:104920000F931F93CF93DF93009709F460C0463035
:10493000510508F45CC02091C905C7EFDFEF2223C1
:1049400009F449C08C01060F171FF801C080D180FF
:10495000C114D10409F44EC096012A5F3F4F42179B
:10496000530708F447C07C018091CE059091CF0594
:1049700093838283B6016C5F7F4F5801A60EB71EEA
:10498000C801A1DFF5019183808364E070E0C80174
:104990001ADEEC01892BF9F481E090E009DEB60122
:1049A000C801049610DEEC01892B91F462E070E0FE
:1049B000C50109DEEC01892B59F4C701DBDB8091CD
:1049C000CE059091CF0501969093CF058093CE05AB
:1049D00090E080E0EDDDCE01DF91CF911F910F914E
:1049E000FF90EF90DF90CF90BF90AF900895CFEF02
:1049F000DFEFF1CFC9EFDFEFEECF6F927F928F92B3
:104A00009F92AF92BF92CF92DF92EF92FF920F935D
:104A10001F93CF93DF9300D01F92CDB7DEB70097DF
:104A200009F47AC04115510509F476C02091C905F1
:104A300007EF1FEF222309F44DC03A017B015C010F
:104A400064E070E0CE01019650DE8C01892B09F004
:104A500041C009811A810115110509F45AC04801A4
:104A600086E0880E911CB701680D791D80914F0278
:104A7000909150020BDD6C01009709F450C0A70122
:104A800070E060E00E947D3089819A81AB81BC81B9
:104A9000EC0CFD1CF70181939193A193B1937F01DD
:104AA00081E090E085DDB801C7011FDE892B31F57B
:104AB00062E070E0C701800F911F17DE8C01892B27
:104AC000E9F490E080E074DDF501D182C082F30169
:104AD00091828082C8010F900F900F900F90DF910C
:104AE000CF911F910F91FF90EF90DF90CF90BF90EB
:104AF000AF909F908F907F906F90089590E080E0AE
:104B000057DDF50111821082F30111821082C60176
:104B100031DB09EF1FEFDECF0FEF1FEFDBCF06EF2B
:104B20001FEFD8CF0097A1F04115510589F021154D
:104B3000310571F0F90136966E177F0748F0DC01F8
:104B40002D933C93DA01ED93FC9390E080E008957F
:104B50008FEF9FEF0895AF92BF92CF92DF92EF92C7
:104B6000FF920F931F93CF93DF93009709F45FC0D9
:104B70004115510509F45BC06530710508F457C053
:104B80002091C905C7EFDFEF222391F1DC01CD9021
:104B9000DC9011971296ED91FC9196012A5F3F4FA0
:104BA000C9EFDFEF2617370719F5C091CA05D09175
:104BB000CB05209749F521E030E03093CB052093D9
:104BC000CA057A018C01F093CD05E093CC0556011E
:104BD000B4E0AB0EB11CB50176DE0A0D1B1DF80169
:104BE000208131818217930729F5D701CD92DC927C
:104BF000CE01DF91CF911F910F91FF90EF90DF9049
:104C0000CF90BF90AF9008952091CC053091CD0505
:104C10002F5F3F4FCCEFDFEFE217F30790F2CBEFC0
:104C2000DFEF2E173F0768F2D0E0C0E0CACFCFEF2A
:104C3000DFEFDECFC3EFDFEFDBCF84E090E008955E
:104C400082E090E008958CEF9FEF089580E290E07D
:104C500008951092CF051092CE051092CD051092B6
:104C6000CC051092CB051092CA0590E080E0089523
:104C70009093500280934F0208958091C905882334
:104C800091F0C5DD009789F41092CF051092CE0502
:104C90001092CD051092CC051092CB051092CA054A
:104CA0001092C905089590E080E00895009749F0BA
:104CB0006115710531F0FC0111821082FB01118236
:104CC00010820895F3CF26E030E040E855E260E03E
:104CD00070E090E080E000C08130910569F01CF444
:104CE000892B39F008958230910549F0039751F0EE
:104CF00008958DED95E0D4C68AE796E0FCCF87E174
:104D000097E0F9CF84EB97E0F6CF1F920F920FB6A2
:104D10000F9211240BB60F922F933F934F935F93F3
:104D20006F937F938F939F93AF93BF93EF93FF9373
:104D30008BEC93EF9093250180932401BAD0FF91DF
:104D4000EF91BF91AF919F918F917F916F915F9103
:104D50004F913F912F910F900BBE0F900FBE0F9070
:104D60001F9018958BEC93EF90932501809324016D
:104D7000A3E7B0E08C918E7F8C93E0E2F1E080813C
:104D80008C7F8083E1E2F1E08081877E8083808177
:104D90008560808380818D7F80838C9181608C93FE
:104DA0000895E3E7F0E0808190819E7F9083817099
:104DB000089581E008951092D005089568EE73E09B
:104DC00080E090E068D390E080E0089526E030E055
:104DD00040E052EC61E070E090E080E07DDF8DED3E
:104DE00095E094D5892B21F08DED95E0A9D5F7CFED
:104DF00090E080E00895CF92DF92EF92FF920F93C0
:104E00001F93CF93DF936B017A01E9011982188216
:104E10008DED95E07BD5892B69F18601CC24C39477
:104E200082E0D82E8091D005811110C08DED95E0E3
:104E300087D50297B9F7C092D005F801D1928F01BA
:104E400088819981019699838883ECCF88819981A3
:104E50008E159F0578F48DED95E072D58F3F9807FC
:104E6000A9F3F80181938F01888199810196998333
:104E70008883ECCF90E080E0DF91CF911F910F917C
:104E8000FF90EF90DF90CF9008950F931F93CF93F3
:104E9000DF93EA0189018DED95E00E94E02FF80192
:104EA000D183C08390E080E0DF91CF911F910F917B
:104EB0000895CF92DF92EF92FF92CF93DF9380918C
:104EC000D10591E0980F9093D105882379F021E0E6
:104ED00030E03093D3052093D2058093D105DF9144
:104EE000CF91FF90EF90DF90CF9008957894C0918C
:104EF0005202D09153026E8D7F8D88A199A143D12A
:104F000020E030E040E85FE4F4D16B017C016A8D81
:104F10007B8D8C8D9D8D37D19B01AC01C701B60176
:104F200099D005D16B017C010E94CF04B701A60185
:104F300090E080E00E944104F8948091D105815076
:104F4000CCCF0F931F93CF93DF93109286081092CC
:104F50008508D7D2B8DEC0915202D091530219828F
:104F600018826FEF7FEFCB010E94C40470E060E015
:104F700090E080E00E944503009709F03AC00E944B
:104F8000C906F8947894BE016A5D7F4F8A819B813F
:104F90000E944803892B59F46FEF7FEFCB010E94E9
:104FA000D7030E94BE04882311F081E08AA7F894F9
:104FB000D9DE0E94C104882311F080E008C00E945D
:104FC000BE048111FACF81E09AA59111F6CF8093AA
:104FD000850878940E947B0E8C01789480918508D6
:104FE00081110CC00E949C070E94A304F89490E0D9
:104FF00080E0DF91CF911F910F9108950E94A1044D
:105000000E94C1048823D9F081E0809386089091A2
:10501000860881E0911180E0809385088091860860
:105020008111BFDE0130110529F40E947B0E892B0E
:1050300009F4C1DE0E947B0E8C01BBDECFCF0E9443
:10504000BE048111E1CF81E09AA59111DECF80E00D
:10505000DCCF5058BB27AA270ED00DC1FED030F0B0
:1050600003D120F031F49F3F11F41EF4F3C00EF48D
:10507000E095E7FBE9C0E92F0FD180F3BA1762078B
:1050800073078407950718F071F49EF527C10EF495
:10509000E0950B2EBA2FA02D0B01B90190010C0148
:1050A000CA01A0011124FF27591B99F0593F50F460
:1050B000503E68F11A16F040A22F232F342F4427B8
:1050C000585FF3CF469537952795A795F0405395B0
:1050D000C9F77EF41F16BA0B620B730B840BBAF080
:1050E0009150A1F0FF0FBB1F661F771F881FC2F7EB
:1050F0000EC0BA0F621F731F841F48F487957795FF
:105100006795B795F7959E3F08F0B3CF9395880FB5
:1051100008F09927EE0F97958795089571D008F4B8
:1051200081E0089504D06894B111D9C00895BCD02D
:1051300088F09F5790F0B92F9927B751A0F0D1F080
:10514000660F771F881F991F1AF0BA95C9F712C00A
:10515000B13081F0C3D0B1E00895C0C0672F782F7F
:105160008827B85F39F0B93FCCF386957795679576
:10517000B395D9F73EF490958095709561957F4FE2
:105180008F4F9F4F0895E89409C097FB3EF4909588
:105190008095709561957F4F8F4F9F4F9923A9F010
:1051A000F92F96E9BB279395F6958795779567959F
:1051B000B795F111F8CFFAF4BB0F11F460FF1BC0E3
:1051C0006F5F7F4F8F4F9F4F16C0882311F096E976
:1051D00011C0772321F09EE8872F762F05C0662324
:1051E00071F096E8862F70E060E02AF09A95660FDD
:1051F000771F881FDAF7880F9695879597F9089596
:10520000990F0008550FAA0BE0E8FEEF16161706D7
:10521000E807F907C0F012161306E407F50798F03F
:10522000621B730B840B950B39F40A2661F0232B58
:10523000242B252B21F408950A2609F4A140A695D4
:105240008FEF811D811D089597F99F6780E870E0B9
:1052500060E008959FEF80EC089500240A941616EC
:10526000170618060906089500240A941216130654
:10527000140605060895092E0394000C11F48823E2
:1052800052F0BB0F40F4BF2B11F460FF04C06F5FFE
:105290007F4F8F4F9F4F089557FD9058440F551FD4
:1052A00059F05F3F71F04795880F97FB991F61F0A8
:1052B0009F3F79F087950895121613061406551F1F
:1052C000F2CF4695F1DF08C0161617061806991F8B
:1052D000F1CF86957105610508940895E894BB2780
:1052E00066277727CB0197F908958ADF08F48FEFB7
:1052F00008950BD0C0CFB1DF28F0B6DF18F09523AA
:1053000009F0A2CFA7CF1124EACFC6DFA0F3959F63
:10531000D1F3950F50E0551F629FF001729FBB279C
:10532000F00DB11D639FAA27F00DB11DAA1F649F48
:105330006627B00DA11D661F829F2227B00DA11DFB
:10534000621F739FB00DA11D621F839FA00D611D81
:10535000221F749F3327A00D611D231F849F600DA2
:10536000211D822F762F6A2F11249F5750408AF0DB
:10537000E1F088234AF0EE0FFF1FBB1F661F771F67
:10538000881F91505040A9F79E3F510570F05CCFA7
:10539000A6CF5F3FECF3983EDCF386957795679553
:1053A000B795F795E7959F5FC1F7FE2B880F911D85
:1053B0009695879597F908951F920F920FB60F92C1
:1053C00011242F933F938F939F93AF93BF9380911B
:1053D000D5059091D605A091D705B091D80530910B
:1053E000D40523E0230F2D3758F50196A11DB11DDB
:1053F0002093D4058093D5059093D605A093D70527
:10540000B093D8058091D9059091DA05A091DB057C
:10541000B091DC050196A11DB11D8093D905909333
:10542000DA05A093DB05B093DC05BF91AF919F91A6
:105430008F913F912F910F900FBE0F901F90189555
:1054400026E8230F0296A11DB11DD2CF3FB7F894D5
:105450008091D9059091DA05A091DB05B091DC052A
:1054600026B5A89B05C02F3F19F00196A11DB11DBF
:105470003FBFBA2FA92F982F8827BC01CD01620FFB
:10548000711D811D911D42E0660F771F881F991FB6
:105490004A95D1F708958F929F92AF92BF92CF9283
:1054A000DF92EF92FF926B017C01D0DF4B015C0138
:1054B000C114D104E104F104D9F0AFD5C7DF6819F4
:1054C00079098A099B09683E73408105910580F33B
:1054D00021E0C21AD108E108F10888EE880E83E0C5
:1054E000981EA11CB11CC114D104E104F10431F7D0
:1054F000FF90EF90DF90CF90BF90AF909F908F90F4
:105500000895789484B5826084BD84B5816084BD3B
:1055100085B5826085BD85B5816085BDEEE6F0E02C
:10552000808181608083E1E8F0E010828081826088
:105530008083808181608083E0E8F0E08081816009
:105540008083E1EBF0E0808184608083E0EBF0E039
:10555000808181608083E1E9F0E0808182608083E6
:10556000808181608083E0E9F0E0808181608083D8
:10557000E1EAF0E0808182608083808181608083C5
:10558000E0EAF0E0808181608083E1E2F1E0808107
:1055900082608083808181608083E0E2F1E08081AD
:1055A00081608083EAE7F0E080818460808380818D
:1055B0008260808380818160808380818068808335
:1055C0001092C10008951F93CF93DF93182FEB0122
:1055D00061E033D1209731F460E0812FDF91CF91EA
:1055E0001F9167C1CF3FD10511F461E0F6CFE12FE4
:1055F000F0E0EC51FF4FE491E150E23108F0B2C02D
:10560000F0E08827EA5FF44D8F4F4DC5182B202B13
:10561000252B2F2B392BB22B432B4B2B532B5D2BB5
:10562000672B712B802B8A2BB22B942B9E2BA82BB4
:1056300084B5806884BDC7BDDF91CF911F91089567
:1056400084B5806284BDC8BDF7CF8091800080683A
:1056500080938000D0938900C0938800EDCF809123
:105660008000806280938000D0938B00C0938A007A
:10567000E3CF80918000886080938000D0938D007C
:10568000C0938C00D9CF8091B00080688093B00027
:10569000C093B300D1CF8091B00080628093B000FE
:1056A000C093B400C9CF809190008068809390002F
:1056B000D0939900C0939800BFCF809190008062F2
:1056C00080939000D0939B00C0939A00B5CF8091B7
:1056D0009000886080939000D0939D00C0939C00C0
:1056E000ABCF8091A00080688093A0008091A00043
:1056F0008F7B8093A000D093A900C093A8009CCF7B
:105700008091A00080628093A000D093AB00C093F2
:10571000AA0092CF8091A00088608093A000D093CF
:10572000AD00C093AC0088CF809120018068809349
:105730002001D0932901C09328017ECF80912001C0
:10574000806280932001D0932B01C0932A0174CFF3
:1057500080912001886080932001D0932D01C09317
:105760002C016ACFC038D1050CF03FCF35CF815026
:10577000823108F059C0E82FF0E08827EE53F44D4D
:105780008F4F91C4E22BE62BD42BDA2BDE2B142C7B
:10579000E92BEF2BF32BF92BFD2B012C072C0B2CDA
:1057A000142C0F2C152C192C809180008F7780934E
:1057B00080000895809180008F7DF9CF80918000D6
:1057C000877FF5CF84B58F7784BD089584B58F7DAD
:1057D000FBCF8091B0008F778093B00008958091C7
:1057E000B0008F7DF9CF809190008F7780939000EB
:1057F0000895809190008F7DF9CF80919000877FF0
:10580000F5CF8091A0008F778093A00008958091BC
:10581000A0008F7DF9CF8091A000877FF5CF809188
:1058200020018F77809320010895809120018F7D42
:10583000F9CF80912001877FF5CFCF93DF9390E060
:10584000FC01E65DFE4F249180599E4FFC0184913E
:105850008823C9F090E0880F991FFC01E053FE4FA8
:10586000A591B491FC01EA54FE4FC591D491611108
:105870000DC09FB7F8948C91209582238C938881DA
:10588000282328839FBFDF91CF910895623051F480
:105890009FB7F8943C91822F809583238C93E88165
:1058A0002E2BEFCF8FB7F894EC912E2B2C938FBF2C
:1058B000EACF1F93CF93DF93282F30E0F901EC510B
:1058C000FF4F8491F901E65DFE4FD491F901E05953
:1058D000FE4FC491CC23A1F0162F811148DFEC2F8D
:1058E000F0E0EE0FFF1FEA54FE4FA591B4918FB781
:1058F000F894EC91111108C0D095DE23DC938FBF92
:10590000DF91CF911F910895DE2BF8CFFC01918D8F
:10591000228D892F90E0805C9F4F821B91098F73AD
:1059200099270895FC01918D828D981731F0828D11
:10593000E80FF11D858D90E008958FEF9FEF08959A
:10594000FC01918D828D981761F0A28DAE0FBF2F53
:10595000B11D5D968C91928D9F5F9F73928F90E0A9
:1059600008958FEF9FEF0895FC01538D448D252FEF
:1059700030E0842F90E0821B930B541710F0CF96E9
:10598000089501970895FC01A48DA80FB92FB11DAA
:10599000A35ABF4F2C91848D90E001968F73992765
:1059A000848FA689B7892C93A089B1898C91837043
:1059B00080648C93938D848D981306C00288F3893C
:1059C000E02D80818F7D80830895CF93DF93EC015C
:1059D000888D8823B1F0AA89BB89E889F9898C91DF
:1059E00085FD03C0808186FD0CC00FB607FCF7CF94
:1059F0008C9185FFF2CF808185FFEDCFCE01C3DF93
:105A0000EACFDF91CF910895EF92FF920F931F930A
:105A1000CF93DF93EC0181E0888F9B8D8C8D981361
:105A20001AC0E889F989808185FF15C09FB7F8946D
:105A3000EE89FF896083E889F989808183708064B9
:105A400080839FBF81E090E0DF91CF911F910F9104
:105A5000FF90EF900895F62E0B8D10E00F5F1F4F13
:105A60000F731127E02E8C8D8E110BC00FB607FC23
:105A7000FACFE889F989808185FFF5CFCE0183DFF0
:105A8000F2CFEB8DEC0FFD2FF11DE35AFF4FF082AB
:105A90009FB7F8940B8FEA89FB8980818062D0CF11
:105AA000CF92DF92EF92FF921F93CF93DF93EC019F
:105AB0006A017B01122FE889F98982E08083C11491
:105AC00081EED806E104F10499F060E079E08DE31D
:105AD00090E0A7019601C5D2215031094109510931
