:10000000D5C0000001C10000FFC00000FDC000001D
:10001000FBC00000F9C00000F7C00000F5C0000000
:10002000F3C00000F1C00000EFC00000EDC0000010
:10003000EBC00000E9C00000E7C00000E5C0000020
:10004000E3C00000E1C00000DFC00000DDC0000030
:10005000DBC00000D9C00000D7C0000040C30000D2
:10006000D3C0000071C50000A5C50000CDC00000D0
:10007000CBC00000C9C00000C7C00000C5C0000060
:10008000C3C00000C1C00000BFC00000BDC0000070
:10009000E7C500001BC60000B7C00000B5C00000E7
:1000A000B3C00000B1C00000AFC00000ADC0000090
:1000B000ABC00000A9C00000A7C00000A5C00000A0
:1000C000A3C00000A1C0000045C2000055C600004A
:1000D00089C6000099C00000DBC600000FC7000001
:1000E00093C00000010210202008081020401020BA
:1000F00040800201020108040201010204081020EC
:1001000040808040201008040201800402018040E9
:100110002010080402010804020101020408102052
:1001200040800102040810204080050505050705F0
:1001300008080808020202020A0A08080404040463
:10014000010101010101010103030303030303038F
:10015000040707070C0C0C0C0C0C0C0C020202021E
:1001600006060606060606060B0B0B0B0B0B0B0B07
:1001700000002200250028002B002E003100340052
:1001800002010000050108010B010000210024000C
:1001900027002A002D003000330001010000040177
:1001A00007010A0103068F061B07A70711241FBEBC
:1001B000CFEFD1E2DEBFCDBF00E00CBF12E0A0E088
:1001C000B2E0EAE5F0E100E00BBF02C007900D925B
:1001D000AE31B107D9F724E0AEE1B2E001C01D9223
:1001E000A53CB207E1F710E0C6EDD0E000E005C0A5
:1001F00021970109802FFE0126D7C23DD10780E05B
:100200000807B1F70DD227C7FBCECF93DF93882322
:1002100041F0EB0181500FD399838883DF91CF9117
:100220000895FB0111821082F9CF0F931F938B0168
:100230009C0183E036952795179507958A95D1F708
:10024000025E1D4F462F477021E030E0F90102C0E9
:10025000EE0FFF1F4A95E2F7AF01F801208124233A
:10026000CB010196211102C090E080E01F910F9117
:1002700008950F931F938B019C0183E0369527957A
:10028000179507958A95D1F7677081E090E001C0D6
:10029000880F6A95EAF7F801E25EFD4F2081452B51
:1002A00031F48095822380831F910F910895822BD2
:1002B000FACFCF92DF92EF92FF92CF93DF936B0151
:1002C0007C0160E086E3C816D104E104F10488F4FF
:1002D00086E38C0DD3D2E6012196AE01C701B601AB
:1002E000C8DFCE01DF91CF91FF90EF90DF90CF90EC
:1002F00008958C2DEFCF882341F08150682F70E056
:1003000090E080E050E040E0B4CF0895CF92DF92DB
:10031000EF92FF92CF93DF931F921F92CDB7DEB77C
:10032000C0900002D0900102E0900202F09003021F
:10033000A70196016091BD047091BE048091BF0435
:100340009091C004A4D1882341F0C092BD04D09202
:10035000BE04E092BF04F092C00469E370E080E064
:1003600090E063DF9093BC048093BB0443E050E0D3
:10037000BE016F5F7F4F49DFC0900402D09005023D
:10038000E0900602F0900702A70196016091B10487
:100390007091B2048091B3049091B40478D1882311
:1003A00041F0C092B104D092B204E092B304F09252
:1003B000B40468E370E080E090E037DF9093B0042D
:1003C0008093AF0443E050E0BE016F5F7F4F1DDFBD
:1003D0000F900F90DF91CF91FF90EF90DF90CF9033
:1003E0000895AF92BF92CF92DF92EF92FF921F9348
:1003F000CF93DF931092280210922702C9EAD4E02B
:100400008AE1FE0111928A95E9F711E0198F80E0E7
:10041000A82E82E0B82EF50180819181A281B3815E
:100420008C8B9D8BAE8BBF8BC12CD12C7601C39452
:10043000CD86DE86EF86F88A69E370E080E090E0A2
:1004400038DF9B8B8A8B198B1882188FF50184817A
:100450009581A681B78188879987AA87BB87C9823A
:10046000DA82EB82FC8268E370E080E090E021DFDA
:100470009F838E831D83DF91CF911F91FF90EF901B
:10048000DF90CF90BF90AF9008958091B504811117
:100490001DC081E08093B5048091B6049091B704AB
:1004A000A091B804B091B9040197A105B10571F408
:1004B0008091BA04882351F069E370E080E090E015
:1004C000B4DE9093BC048093BB0415DF8091A90433
:1004D00081111DC081E08093A9048091AA049091AC
:1004E000AB04A091AC04B091AD040197A105B10596
:1004F00071F48091AE04882351F068E370E080E0ED
:1005000090E093DE9093B0048093AF04F4CE08950E
:1005100026E030E040E855E260E070E090E080E006
:1005200000C08130910569F01CF4892B39F00895E1
:100530008230910549F0039751F0089585E392E0E8
:10054000A3C282ED92E0FCCF8FE693E0F9CF8CE07E
:1005500094E0F6CF1F920F920FB60F9211240BB6B4
:100560000F922F933F934F935F936F937F938F934C
:100570009F93AF93BF93EF93FF938BEC93EF909385
:1005800025018093240134D0FF91EF91BF91AF9169
:100590009F918F917F916F915F914F913F912F919B
:1005A0000F900BBE0F900FBE0F901F9018958BEC05
:1005B00093EF9093250180932401A3E7B0E08C9101
:1005C0008E7F8C93E0E2F1E080818C7F8083E1E29A
:1005D000F1E08081877E8083808185608083808157
:1005E0008D7F80838C9181608C93089581E0089544
:1005F0008091290291E0980F90932902882349F075
:1006000021E030E030932B0220932A0280932902CC
:10061000089578947BDEF894809129028150F6CF7A
:10062000CF93DF931092C4041092C304A2D070DF62
:10063000C0910902D0910A0219821882D2DEF89480
:10064000B6DF81E028813981232B09F080E0809397
:10065000C304789478948091C304811107C015DF96
:10066000F89490E080E0DF91CF91089581E02881B7
:100670003981232B09F480E08093C4049091C40451
:1006800081E0911180E08093C304B0DFE4CF03D018
:1006900008F481E00895990F0008550FAA0BE0E8CF
:1006A000FEEF16161706E807F907C0F01216130634
:1006B000E407F50798F0621B730B840B950B39F474
:1006C0000A2661F0232B242B252B21F408950A26DA
:1006D00009F4A140A6958FEF811D811D08951F92F9
:1006E0000F920FB60F9211242F933F938F939F93E6
:1006F000AF93BF9380912D0290912E02A0912F0273
:10070000B091300230912C0223E0230F2D3758F5A1
:100710000196A11DB11D20932C0280932D02909370
:100720002E02A0932F02B09330028091310290915B
:100730003202A0913302B09134020196A11DB11D85
:100740008093310290933202A0933302B09334022B
:10075000BF91AF919F918F913F912F910F900FBEBD
:100760000F901F90189526E8230F0296A11DB11D2A
:10077000D2CF789484B5826084BD84B5816084BD15
:1007800085B5826085BD85B5816085BDEEE6F0E00A
:10079000808181608083E1E8F0E010828081826066
:1007A0008083808181608083E0E8F0E080818160E7
:1007B0008083E1EBF0E0808184608083E0EBF0E017
:1007C000808181608083E1E9F0E0808182608083C4
:1007D000808181608083E0E9F0E0808181608083B6
:1007E000E1EAF0E0808182608083808181608083A3
:1007F000E0EAF0E0808181608083E1E2F1E08081E5
:1008000082608083808181608083E0E2F1E080818A
:1008100081608083EAE7F0E080818460808380816A
:100820008260808380818160808380818068808312
:100830001092C1000895863308F0865320917B0002
:10084000982F9870277F922B90937B00209108021D
:1008500090E4299F900111248770822B80937C0063
:1008600080917A00806480937A0080917A0086FD7E
:10087000FCCF80917800909179000895CF93DF9319
:1008800090E0FC01EC51FF4F2491865D9E4FFC01EE
:1008900084918823C9F090E0880F991FFC01E657E6
:1008A000FE4FA591B491FC01E059FE4FC591D49142
:1008B00061110DC09FB7F8948C91209582238C9381
:1008C0008881282328839FBFDF91CF9108956230CC
:1008D00051F49FB7F8943C91822F809583238C9399
:1008E000E8812E2BEFCF8FB7F894EC912E2B2C9321
:1008F0008FBFEACFFC01918D228D892F90E0805C23
:100900009F4F821B91098F7399270895FC01918D48
:10091000828D981731F0828DE80FF11D858D90E062
:1009200008958FEF9FEF0895FC01918D828D9817A8
:1009300061F0A28DAE0FBF2FB11D5D968C91928D8F
:100940009F5F9F73928F90E008958FEF9FEF0895C0
:10095000FC01538D448D252F30E0842F90E0821BC5
:10096000930B541710F0CF96089501970895FC014A
:10097000A48DA80FB92FB11DA35ABF4F2C91848D00
:1009800090E001968F739927848FA689B7892C935D
:10099000A089B1898C91837080648C93938D848DB0
:1009A000981306C00288F389E02D80818F7D8083B3
:1009B0000895CF93DF93EC01888D8823B1F0AA8945
:1009C000BB89E889F9898C9185FD03C0808186FD0A
:1009D0000CC00FB607FCF7CF8C9185FFF2CF80815A
:1009E00085FFEDCFCE01C3DFEACFDF91CF91089530
:1009F000EF92FF920F931F93CF93DF93EC0181E06F
:100A0000888F9B8D8C8D98131AC0E889F989808115
:100A100085FF15C09FB7F894EE89FF896083E88948
:100A2000F98980818370806480839FBF81E090E03A
:100A3000DF91CF911F910F91FF90EF900895F62EC7
:100A40000B8D10E00F5F1F4F0F731127E02E8C8D61
:100A50008E110BC00FB607FCFACFE889F9898081A7
:100A600085FFF5CFCE0183DFF2CFEB8DEC0FFD2FAD
:100A7000F11DE35AFF4FF0829FB7F8940B8FEA897C
:100A8000FB8980818062D0CFCF92DF92EF92FF927C
:100A90001F93CF93DF93EC016A017B01122FE8894A
:100AA000F98982E08083C11481EED806E104F10463
:100AB00099F060E079E08DE390E0A7019601A1D282
:100AC0002150310941095109569547953795279588
:100AD000211580E1380790F0E889F989108260E8F3
:100AE00074E88EE190E0A70196018BD22150310984
:100AF000410951095695479537952795EC85FD8510
:100B00003083EE85FF852083188EEC89FD89108364
:100B1000EA89FB89808180618083EA89FB89808101
:100B200088608083EA89FB89808180688083EA8984
:100B3000FB8980818F7D8083DF91CF911F91FF9012
:100B4000EF90DF90CF9008951F920F920FB60F9203
:100B500011240BB60F922F938F939F93EF93FF93D4
:100B6000E0914502F09146028081E0914B02F091C4
:100B70004C0282FD1DC0908180914E028F5F8F7369
:100B800020914F02821741F0E0914E02F0E0EB5CC1
:100B9000FD4F958F80934E02FF91EF919F918F9122
:100BA0002F910F900BBE0F900FBE0F901F901895B6
:100BB0008081F2CF1F920F920FB60F9211240BB6C5
:100BC0000F922F933F934F935F936F937F938F93E6
:100BD0009F93AF93BF93EF93FF9385E392E0C7DEBC
:100BE000FF91EF91BF91AF919F918F917F916F9105
:100BF0005F914F913F912F910F900BBE0F900FBEC1
:100C00000F901F901895E5E3F2E01382128288EEB0
:100C100093E0A0E0B0E084839583A683B7838FE060
:100C200092E09183808385EC90E09587848784ECC3
:100C300090E09787868780EC90E0918B808B81ECA9
:100C400090E0938B828B82EC90E0958B848B86EC8A
:100C500090E0978B868B118E128E138E148E0895D2
:100C60001F920F920FB60F9211240BB60F922F9373
:100C70008F939F93EF93FF93E091E202F091E30251
:100C80008081E091E802F091E90282FD1DC090812F
:100C90008091EB028F5F8F732091EC02821741F0FD
:100CA000E091EB02F0E0EE52FD4F958F8093EB0266
:100CB000FF91EF919F918F912F910F900BBE0F900D
:100CC0000FBE0F901F9018958081F2CF1F920F9248
:100CD0000FB60F9211240BB60F922F933F934F93A1
:100CE0005F936F937F938F939F93AF93BF93EF9394
:100CF000FF9382ED92E03BDEFF91EF91BF91AF91C8
:100D00009F918F917F916F915F914F913F912F9123
:100D10000F900BBE0F900FBE0F901F901895E2ED35
:100D2000F2E01382128288EE93E0A0E0B0E08483C8
:100D30009583A683B7838FE092E0918380838DECC7
:100D400090E0958784878CEC90E09787868788EC85
:100D500090E0918B808B89EC90E0938B828B8AEC76
:100D600090E0958B848B8EEC90E0978B868B118E28
:100D7000128E138E148E08951F920F920FB60F923B
:100D800011240BB60F922F938F939F93EF93FF93A2
:100D9000E0917F03F09180038081E0918503F091E1
:100DA000860382FD1DC09081809188038F5F8F73C1
:100DB00020918903821741F0E0918803F0E0E15926
:100DC000FC4F958F80938803FF91EF919F918F91B6
:100DD0002F910F900BBE0F900FBE0F901F90189584
:100DE0008081F2CF1F920F920FB60F9211240BB693
:100DF0000F922F933F934F935F936F937F938F93B4
:100E00009F93AF93BF93EF93FF938FE693E0AFDD94
:100E1000FF91EF91BF91AF919F918F917F916F91D2
:100E20005F914F913F912F910F900BBE0F900FBE8E
:100E30000F901F901895EFE6F3E01382128288EE70
:100E400093E0A0E0B0E084839583A683B7838FE02E
:100E500092E09183808385ED90E09587848784ED8F
:100E600090E09787868780ED90E0918B808B81ED75
:100E700090E0938B828B82ED90E0958B848B86ED56
:100E800090E0978B868B118E128E138E148E0895A0
:100E90001F920F920FB60F9211240BB60F922F9341
:100EA0008F939F93EF93FF93E0911C04F0911D04A7
:100EB0008081E0912204F091230482FD1DC0908185
:100EC000809125048F5F8F7320912604821741F053
:100ED000E0912504F0E0E45FFB4F958F80932504BB
:100EE000FF91EF919F918F912F910F900BBE0F90DB
:100EF0000FBE0F901F9018958081F2CF1F920F9216
:100F00000FB60F9211240BB60F922F933F934F936E
:100F10005F936F937F938F939F93AF93BF93EF9361
:100F2000FF938CE094E023DDFF91EF91BF91AF91AF
:100F30009F918F917F916F915F914F913F912F91F1
:100F40000F900BBE0F900FBE0F901F901895ECE006
:100F5000F4E01382128288EE93E0A0E0B0E0848394
:100F60009583A683B7838FE092E09183808385E3A6
:100F700091E09587848784E391E09787868780E373
:100F800091E0918B808B81E391E0938B828B82E364
:100F900091E0958B848B86E391E0978B868B118E05
:100FA000128E138E148E0895AF92BF92CF92DF925D
:100FB000EF92FF920F931F93CF93DF936C017B010E
:100FC0008B01040F151FEB015E01AE18BF08C0179F
:100FD000D10759F06991D601ED91FC910190F08112
:100FE000E02DC6011995892B79F7C501DF91CF91C5
:100FF0001F910F91FF90EF90DF90CF90BF90AF9037
:101000000895A1E21A2EAA1BBB1BFD010DC0AA1F49
:10101000BB1FEE1FFF1FA217B307E407F50720F061
:10102000A21BB30BE40BF50B661F771F881F991FDC
:101030001A9469F760957095809590959B01AC0125
:10104000BD01CF010895EE0FFF1F881F8BBF0790D2
:0A105000F691E02D1994F894FFCFFB
:10105A00000080BF000080BF01270200000000F8E6
:0E106A0004D407A804D9047A04940486040070
:00000001FF
